:100000000216DB121B0112147380FB021861C2B5C9
:10001000D2B4D2B2D2A7121BEDA2A79203C2B220D1
:1000200003F022021C13D2A9D2AC53AFFB43AF01A1
:10003000C2B943B702C2BC53B7EF43B50143B601DF
:10004000D2AF220217670202EEE86480F8E933E8D3
:100050003360110460F0ED33EC337009E8FCE9FD26
:10006000EAFEEBFF220460DED3EB9FEA9EE99DE807
:10007000C2E78CF0C2F795F0400CE8CCF8E9CDF976
:10008000EACEFAEBCFFB1202B985D0F05804700328
:1000900020D5B3E80470075002B2D50202F892D519
:1000A000EC0460F7E4CCC0E0C398F8603B941860BF
:1000B00008400DD0E0FB0202D0E4FBFAC9FC802826
:1000C000E830E406E4C9FBE4CAFCE830E305E4C92F
:1000D000CACBFCE854076010F8C3E913F9EA13FA35
:1000E000EB13FBEC13FCD8F130F52FC3E49CFCEFD1
:1000F0009BFFEE9AFEED99FDD0E0FBEF4E4D4C706C
:100100001222DB030202F5EC2CFCEF33FFEE33FE90
:10011000ED33FDED30E7EB0202D0EF2BFFEE3AFEC0
:10012000ED39FDD0E0FB50130BBB00030202F8EDEC
:1001300013FDEE13FEEF13FFEC13FC0202D0EC4DA7
:100140006011E8497017ED33EC3304600DE4FCFFF7
:10015000FEFD22E933E8330470F80202EE1202B920
:1001600058046009E4CC248150062850090202F8A2
:100170002840030202F5C0E0EB4A7044B98006D083
:10018000E0FB0202E4EF4E701CBD8008EBFFEAFECC
:10019000E9FD80EBE98DF0A4FEE5F0020227E9CD50
:1001A000F9EAFEEBFFEF89F0A4FCE5F0CE89F0A4BC
:1001B0002EFFE435F0CD89F0A42DFEE435F0806704
:1001C000EF4E7005BD80D780C3EF8BF0A4ACF0EE8E
:1001D0008BF0A42CFCE435F0F8EF8AF0A42CE5F0C9
:1001E00038FCE433CB8DF0A42CFCE5F03BF8EE8A30
:1001F000F0A42CFCE5F038F8E433CF89F0A42CFC13
:10020000E5F038CF3400CE89F0A42FFFE5F03EFEB4
:10021000E433C98DF0A42EFEE5F039CD8AF0A42F89
:10022000FFE5F03EFEE43DFD33D0E0FB50070BBBA5
:10023000000F0202F8EC2CFCEF33FFEE33FEED333F
:10024000FD0202D075F020800E75F010800575F06B
:10025000087D007E007F003392D530D5031205B3B0
:10026000EC334010EF33FFEE33FEED33FDEC33FCA7
:10027000D5F0ED22E5F0247EA2D513CC92E7CDCEC9
:10028000FF22EDD2E7CD33EC3392D524814006E452
:10029000FFFEFDFC22FCE4CFCECDCC24E050117457
:1002A000FF80EDC3CC13CCCD13CDCE13CECF13CF67
:1002B0000470F030D5DE0205B3E9D2E7C933E83384
:1002C000F892D5EDD2E7CD33EC33FC5002B2D52213
:1002D000EC30E7100FBF000C0EBE00080DBD00048F
:1002E0000BEB6014A2D5EB13FCED92E7FD2274FF3B
:1002F000FCFDFEFF22E480F8A2D574FF13FC7D8094
:10030000E480EFF920E72824F950037907E4F42486
:1003100002FB18DBFDE624FB5014E9600DE4F6183F
:10032000E604F6B40A08E4F6D9F57401F60A22C226
:10033000D522ED33EC3392D5FA602AB4FF33EDC207
:10034000E77BFF60067A037957E4227A037960201D
:10035000D5047A03795B224E614E002B494E46004C
:100360002D494E4600E47A08F608DAFC7B00740753
:1003700022E8C0E0ECC0E0EDC0E0EEC0E0EFC0E09D
:10038000EA75F010A4CAABF075F04DA42BFBE43570
:10039000F0FCEA2410FAEB34C5FBEC34D9FCEDC2D6
:1003A000E7FF75F056A4F42411C5F0F434C58FF0BE
:1003B000A42AE5F03BE43CF620E714120505D0E062
:1003C000FFD0E0FED0E0FDD0E0FC1204388014F451
:1003D00004120505D0E0FFD0E0FED0E0FDD0E0FC47
:1003E00012013ED0E0F8E6FAEDD2E7CD33EC33244B
:1003F00082FBE4C3CF33CFCE33CECD33CD33DBF36B
:100400007B0775F00A846004F6081B0AE5F0F6081D
:100410008FF0740AA4FFACF08EF0740AA42CFEAC2A
:10042000F050010C8DF0740AA42CFDE435F0F608B0
:10043000DBDE7407220202F8EC5D046005E8590473
:1004400070030202EE1202B9580460F6EC4860F242
:10045000EC7004FDFEFF22C860DB2481C85009C394
:1004600098600250060202F59850CAF582E9294BBD
:100470004A7005AB820202E475F0007C1A7880C3F2
:10048000EF9BEE9AED99400DC3EF9BFFEE9AFEEDC8
:1004900099FDE842F0DC23ACF0D0E0FFD0E0FED0E4
:1004A000E0FDAB8220E7101BEB60BAEC2CFCEF33D5
:1004B000FFEE33FEED33FD0202D0E803F830E7052E
:1004C000C0F075F000EF2FFFEE33FEED33FD40B8C6
:1004D00030E7C280AA3F8000004120000042C800EF
:1004E00000447A0000461C400047C3500049742471
:1004F000004B1896804CBEBC205A0E1BCA6753C2D4
:100500001C749DC5AEFB60065407601C23231205B6
:1005100033EB5438600912051F12052E12013EEC10
:10052000F8EDF9EEFAEFCB22EB12052E80F15438FC
:1005300003241C9004D5FE93FC0EEE93FD0EEE9367
:100540000ECE93FF22BB010689828A83E0225002ED
:10055000E722BBFE02E32289828A83E49322BB0165
:100560000CE58229F582E5833AF583E0225006E91D
:100570002582F8E622BBFE06E92582F8E222E58222
:1005800029F582E5833AF583E49322BB010689824B
:100590008A83F0225002F722BBFE01F322A3F8E087
:1005A000C5F025F0F0E582158270021583E0C838A9
:1005B000F0E822C3E49FFFE49EFEE49DFDE49CFC82
:1005C00022EB9FF5F0EA9E42F0E99D42F0E89C455F
:1005D000F022E8600FECC313FCED13FDEE13FEEF09
:1005E00013FFD8F122E493F8740193F9740293FA9B
:1005F000740393FB22ECF0A3EDF0A3EEF0A3EFF075
:1006000022FAE6FB0808E6F925F0F618E6CA3AF6FB
:1006100022D083D082F8E4937012740193700DA3FA
:10062000A393F8740193F5828883E473740293684A
:1006300060EFA3A3A380DFEF4E6012EF60010EED29
:10064000BB010B89828A83F0A3DFFCDEFA2289F0EA
:100650005007F709DFFCA9F022BBFEFCF309DFFC21
:10066000A9F022E53B2427F8E6053B227824300850
:10067000027827E475F0011206010205452001EB1E
:100680007F2ED2018018EF540F2490D43440D4FF31
:1006900030050BEF24BFB41A0050032461FFE53C82
:1006A0006002153C053FE53F7002053E30080D78BD
:1006B00024E475F001120601EF02058B021AB574ED
:1006C00003D2088003E4C208F53B8B248A258926DF
:1006D000E4F53CF53EF53FE53C60077F2012069EC1
:1006E00080F5753DFFC202C201C203C204C206C248
:1006F00007C20912066CFF700D3008057F00120654
:10070000AFAF3FAE3E22B4255FC2D5C20512066C24
:10071000FF24D0B40A00501A75F00A783C30D50591
:1007200008B6FF0106C6A426F620D5047002D2043E
:1007300080D924CFB41A00EF5004C2E5D2050209D3
:100740009CD20280C6D20180C0D20380BCD2D580A8
:10075000BAD20680B47F2012069E2003077401B52A
:100760003C0040F1120663FF12069E0206D7D20932
:10077000D2078095120663FB120663FA120663F92C
:100780004A4B700679937A0A7BFF20032EE53C6082
:100790002A7E008E8275830012055E60060EEE656D
:1007A0003D70F0C2D5EBC0E0EAC0E0E9C0E0EE1277
:1007B00009FCD0E0F9D0E0FAD0E0FB120545FF607B
:1007C000AAEBC0E0EAC0E0E9C0E012069ED0E02457
:1007D00001F9D0E03400FAD0E0FBE53D0460DCD55F
:1007E0003DD98087D20380A21209DF60F7E53D7012
:1007F0000104120303A93D600DE53D600914F53DB8
:10080000120A86EF60F3EA30E702F404C3995077E6
:10081000EAF4253D0430E701E404F53D800D1209BA
:10082000DF60C1EA053D253D120303EA783AF63060
:10083000E701E4253D04D53D04200601141209FC1E
:10084000E4C0E0120A86783AE6601320E70714F65F
:10085000120686802204F6D0E014C0E07F00120663
:1008600086E53D600712067D153D800B30060312BC
:10087000067DD0E00206D7D0E00480C51209DF6013
:10088000A0E53D04120303783AEAF6E53D200602AE
:1008900060010424041209FC74FF04C0E0120A86FB
:1008A000120686E53D200602600312067DD0E0B503
:1008B0003DE87F45120690783AE67F2B30E7047FCB
:1008C0002DF404C0E012069ED0E075F00A84C0F05A
:1008D000120687D0E01206870206D77910800279C7
:1008E00008C207C2098008D2D5790A8004790AC2F1
:1008F000D5E53D047002F53DE4FAFDFEFF12066306
:10090000FC7B08200213120663FD7B1030010A12E3
:100910000663FE120663FF7B20EC3382D592D5502E
:1009200013C3E43001069FFFE49EFEE42002039D12
:10093000FDE49CFCE4CBF8C202EC700CCFCECDCC35
:10094000E824F8F870F38017C3EF33FFEE33FEEDC1
:1009500033FDEC33FCEB33FB994002FB0FD8E9EBA2
:10096000300205F8D0E0C448B202C0E00AEC4D4EB7
:100970004F78207B0070C2EAB53D0040BCC0E01259
:1009800009FED0F0D0E0200204C4C0E0C4B202C02E
:10099000F0120687D0F0D5F0EB0206D71206110749
:1009A000745308DB5807454C07414208DF4F08E7FE
:1009B0004408E749075A4308ED55081E46087C4598
:1009C00007E8470AB35007492D074D2E07702B073C
:1009D0005123076E200A9C2A07094800000768E592
:1009E0003DB4FF03753D06120663FC120663FD125B
:1009F0000663FE120663FF7833020332790AA2D53A
:100A0000200414300609B910020404B9080104A234
:100A1000D52007025001042003689203B53C005022
:100A200034C0E07F203004197F30A20372077206C1
:100A3000500F120A55C203C207C206C2097F308096
:100A40000F300603E9C0E012069E300603D0E0F93D
:100A5000D0E0B53CCC3006177F30B9100C12069EA2
:100A60007F583005077F788003B9080312069E304F
:100A700003057F2D02069E7F202009F87F2B20078B
:100A8000F322920380CF7F00B4070050052433F88F
:100A9000E6FF22286E756C6C2900D20212066330C4
:100AA00002F8C202783C30D50108F60207092D5041
:100AB0004349581206632403B405004001E4900A38
:100AC000AE9312068F743A12068FD204753C04025C
:100AD00008DB8F23E47801F2900074E030E002D369
:100AE000227527FF75281E752906900070E075F0A5
:100AF00003A424D6F582E5F0341DF583E493FB745A
:100B00000193FA7402938B2A8A2BF52C1212781215
:100B100006BF900275EEF0A3EFF0E5231470030218
:100B20000CA0147003020CA6147003020C9A240388
:100B30006003020CB1900070E01206110B5B000B19
:100B400073010B8B020B9A030BA9040BB8050BC79F
:100B5000080C20090C800D00000CB1121176121245
:100B60001D752B1C752C5E752DFF752E1C752F7237
:100B7000020C9512117612121D752B1C752C9B758B
:100B80002DFF752E1C752FCC020C951211761212AA
:100B900002752B1C752CD1020C95121176121202C3
:100BA000752B1D752C0A020C951211761212027506
:100BB0002B1D752C0D020C95121176121202752B3D
:100BC0001D752C10020C95900073E01460201460C9
:100BD00029243A603124C86003020CB112117675E1
:100BE00027FF75281E7529191211CA020C951211BA
:100BF000761211C112127F020C951211761211C1D8
:100C0000121289020C951211767527FF75281E7530
:100C100029651211CA7530FF75311D75323F807517
:100C2000900072E01460281460382402704A121197
:100C300076C0037527FF75281E75298B900274E016
:100C4000244DF52B900273E034001211F180241230
:100C50001176C003121293901D3D1211DD12127F06
:100C60008011121176C003121293901D3E1211DDF5
:100C7000121289D0031206BF900071E004F0803197
:100C800012117612121D752B1C752C48752DFF75CF
:100C90002E1C752F551206BF80171211AA743DF035
:100CA0001211AA743FF01211AA740DF01211AAE4E5
:100CB000F0121278121ADC900074E04401F0121164
:100CC0009312125E54FCF0C322752CFF752D1F7514
:100CD0002E5C752F00753005120E517003020E1038
:100CE000752CFF752D1F752E62752F007530021241
:100CF0000E51703B900070E0FF64067003020E100E
:100D0000EF64097003020E10EF64077003020E1007
:100D1000EF640D7003020E1012122A900070E0644E
:100D2000086003020E10900073E0900072F02290B1
:100D3000007FE0642B6003020E10752CFF752D1FE1
:100D4000752E65F52F753008120E42700122752C34
:100D5000FF752D1F752E6E752F00753009120E420E
:100D60007074900070E064067016752CFF752D1F6E
:100D7000752E78120E2E7008120E11700312122AA0
:100D8000900070E064077031752CFF752D1F752E73
:100D900088F52F7530097A00798A120E60701A75FD
:100DA0002CFF752D1F752E80F52F7530077A007971
:100DB00094120E60700312122A900070E0640970A1
:100DC0004F752CFF752D1F752E92120E2E7041122D
:100DD0000E11703C8037752CFF752D1F752E9A757E
:100DE0002F007530067A007980120E6B7022900009
:100DF00070E0640D701A752CFF752D1F752EA1F50E
:100E00002F75300A7A007987120E6B700312122A3E
:100E100022752CFF752D1F752E80F52F7530077BE1
:100E2000017A0079921217F2EF3395E04F22F52FF5
:100E30007530077B017A00798A1217F2EF3395E05B
:100E40004F227B017A0079801217F2EF3395E04F41
:100E5000227B017A00797F1217F2EF3395E04F225F
:100E60007B011217F2EF3395E04F227B011217F24C
:100E7000EF3395E04F227E007F137D007B017A00E7
:100E8000796C120637E490046BF0A3F0900275F0D1
:100E9000A3F0900273F0A3F0740E120FFE1211A1D2
:100EA000700D12162B7F14120FCC70F1020F8B7481
:100EB0000F120FFE1211A1700D12162B7F64120F6C
:100EC000CC70F1020F8B740D120FDB1211A1700D9B
:100ED00012162B7F96120FE570F1020F8BE4900033
:100EE00070F0FF120AD21211A17008120F9070F662
:100EF000020F8B7401120FDB1211A17008120F90F8
:100F000070F6020F8B7402120FF41211A170071207
:100F10000FA470F680757403120FF41211A17007FC
:100F2000120FA470F680647404121271120AD212A5
:100F300011A17007120FB870F6805074051212716B
:100F4000120AD21211A17007120FB870F6803C90ED
:100F500000707406F07F02120AD21211A1700C12F6
:100F6000162B7F28120FE570F18020121251120A01
:100F7000D21211A1701912162B7F16121394900021
:100F800079E0FF13135403640170E6EF4410F0227C
:100F900012162B7F16121394900079E0FF1313544E
:100FA0000364012212162B7F16121394900079E02D
:100FB000FF1313540364012212162B7F161213948D
:100FC000900079E0FF1313540364012212139490EC
:100FD0000079E0FF13135403640122900070F0E4E1
:100FE000FF120AD222121394900079E0FF131354D7
:100FF00003640122900070F0E4FF120AD2229000F4
:1010000070F07F02120AD222780474FFF20874C9C9
:10101000F2C3E494C9FEE494FF18F208CEF2121968
:101020008A041219B08005C333CE33CED8F97905BE
:10103000F3EE19F3121A895001227FCC121A5C7F49
:10104000BE121A5C1219487801EFF21219487800A2
:10105000EFF27802E4F208EFF2E27F0018F2FE0805
:10106000EFF27801E2FDEE08F2ED08F212198AFFC4
:10107000C374039F1219B08005CEC313CE13D8F9E1
:10108000FF7802EEF208EFF2EE30E43118E2FE08EB
:10109000E2FFEE30E327EFF4FFEEF418F208EFF290
:1010A000E22401F218E23400F2E2FE08E2FFC37823
:1010B00005E29F7903F318E29E19F380107804E2A9
:1010C000FE08E2FF7803E22FF218E23EF27802E235
:1010D000FE08E2FF9006C5E0FCA3E0FDEC540FFA29
:1010E000EF6D7002EE6A7003021174EE540FFEECA5
:1010F00054F04EFE9006C5EEF0A3EFF0900079E0BC
:101100004420F012199F13540170159006CBE0FC97
:10111000A3D31219975009EF44081219A74440F0BD
:1011200012199F135401640170149006CD12199185
:10113000400CEF54F7A3F0900079E04440F012190E
:101140009F540170119006C71219914009EF440491
:101150001219A74480F012199F5401640170159070
:1011600006C9E0FCA3D31219955009EF54FB1219DC
:10117000A74480F0C322900275E0FEA3E02477F933
:1011800074023EFA7B0122A3E0F8A3E0F9A3E0FA9F
:10119000A3E0FB90006CE0FCA3E0FDA3E0FEA3E075
:1011A00022900074E05401640122900275E475F00D
:1011B0000112059DFE747725F0F58274023EF583D9
:1011C000227527FF75281E752942752AFF752B1C6D
:1011D000752C3C752DFF752E1C752F3422E493243D
:1011E00045FFE433FE900274E02FF52B900273E08C
:1011F0003EF52A900071E0F52C8B2D752E00752F91
:1012000008227527FF75281E752914752AFF227478
:101210006D2526F58274043525F583E0227527FFB8
:1012200075281E75290C752AFF22900074E054FE63
:10123000F0227527FF75281F7529509006CFE0FF13
:10124000131322C39BFBEE9AFAED99F9EC98F8E0A0
:10125000229000707408F0E4900073F0FF22FF9079
:1012600000751205F5900079E022900079E0C41332
:1012700022900070F0E4FF227B017A0279772275D8
:1012800030FF75311D753214227530FF75311D75B3
:101290003228227527FF75281E7529E2228F229099
:1012A0000074E020E00C900079E0FFC45401640178
:1012B0007002D322E5227057900072E0600CA3E028
:1012C0006006121251120AD2D3227527FF75281F09
:1012D0007529389006C5E0540FFCA3E0FDE4120226
:1012E000499006CFE0540375F004A424D2F582E5BA
:1012F000F0341FF5831205E512013EE4FBFA795C38
:1013000078C212004D8F2D8E2C8D2B8C2A806790E9
:101310000072E065226045900079E0131354037871
:1013200000F29000707408F0900073E522F0E4FF82
:10133000120AD21211A1702412162B7F05121394D7
:101340007800E22401FFE433FE900079E0131354A7
:10135000037C00B507DDECB506D9D322E52224FED7
:10136000600D047022121232135401F52A80071204
:1013700012325401F52A7B017A0079081206BF90D7
:101380000273EEF0A3EFF09000707409F0E4FF1226
:101390000AD2C322EF75F064A4FF9006D0E5F0F006
:1013A000A3EFF0900074E054017003021472121164
:1013B000879006D0121243FEA3E0FFE4FCFDC312A7
:1013C00005C15003021472900079E0540364026076
:1013D0000302145C12122A900079E0FF1313543FA9
:1013E000FEEF54F3FFEE045403FE25E025E04FF03A
:1013F000E0FF131354036403707890007074FFF0DF
:10140000FB7A1F7933121ADC90006CA3A3E0FEA3D1
:10141000E08E23F524900074E04401F01211A170D5
:101420003412162BAE23AF24AB07AA06121193C3B6
:101430009BFFEE9AFEED9400FDEC9400FCE47BAC87
:101440007A0DF9F8D31205C150D2900079E044101A
:10145000F053AFFE2253C7BF43C7202212127812A7
:101460001ADC12119312125EFF54FCFEEF045403B7
:101470004EF022900079E0FFC45401704F12162BF9
:101480007F0612139412126A1354016401700E7FC6
:101490000112129D4007900079E054BFF012126AC9
:1014A000131354016401700E7F0212129D400790C5
:1014B0000079E0547FF012126A54016401700DFF4C
:1014C00012129D4007900079E054DFF090007AE01E
:1014D00054016401703F1211879006CF12124354D9
:1014E0000375F002A424CAF582E5F0341FF583E405
:1014F00093FE740193FFE4FCFDC31205C140161274
:101500001008401190007AE054FEF0121193FF9001
:10151000007B1205F590007AE054017032121187B9
:10152000C39BFFEE9AFEED99FDEC98FCE47BE87A14
:1015300003F9F8D31205C15016121B584011900040
:101540007AE04401F0121193FF90007B1205F5221E
:101550007E007F0B7D007B017A0679C5120637126B
:101560001A89500302162A7FCC121A5C7FBE121A07
:101570005C1219481219481219488F221219488F03
:1015800023121948EFC4135403FF9006CFE054FC14
:101590004FF0540304FF7E007455A807088005C36C
:1015A00033CE33CED8F99006C7121982FF7E00746D
:1015B00001A807088005C333CE33CED8F9FFC3EDA9
:1015C0009FFFEC9E9006C9F0A3EFF012198A04FF6A
:1015D0007E00744DA807088005C333CE33CED8F9FA
:1015E0009006CB121982FF7E007401A807088005BF
:1015F000C333CE33CED8F92DFFEE3C9006CDF0A309
:10160000EFF0121B5812198A14600F146011146045
:101610001324037012121B9C800D121BA980081248
:101620001B8D8003121BB612100822850825850920
:1016300026850A27850B28E52665287004E525659B
:101640002770030216DAE50C14600F04706512129D
:101650000F640A705E750C01805912120F640D70D0
:1016600036C390046CE0940290046BE09400401840
:10167000E475F00112059DFE747F25F0F58274007B
:101680003EF583E4F0120CC9E4F50C90046BF0A372
:10169000F090007FF0801C12120FFF90046BE47535
:1016A000F00112059DFC747F25F0F58274003CF575
:1016B00083EFF0E5262401FFE43525FEBE020ABFD4
:1016C0005807E4F525F52680080526E5267002056D
:1016D0002585250885260902163722787FE4F6D865
:1016E000FD75813F021722020003E493A3F8E493FF
:1016F000A34003F68001F208DFF48029E493A3F805
:101700005407240CC8C333C4540F4420C883400476
:10171000F456800146F6DFE4800B01020408102035
:101720004080901C30E47E019360BCA3FF543F30A6
:10173000E509541FFEE493A360010ECF54C025E0D9
:1017400060A840B8E493A3FAE493A3F8E493A3C891
:10175000C582C8CAC583CAF0A3C8C582C8CAC58322
:10176000CADFE9DEE780BEC0E0C083C08263A201B9
:10177000C083C082C0D075D000C006C007E59A30D3
:10178000E057C200539AFE121BD9BE020DBF580A81
:10179000E50945087012D200800EEFB50908EEB5D4
:1017A0000804D2008002D291300004C291802F74CC
:1017B0006D250BF5827404350AF583E59BF0121B49
:1017C000D9BE020BBF5808750A00750B00800F05C3
:1017D0000BE50B7002050A8005539AFDC20BD0077A
:1017E000D006D0D0D082D08363A201D082D083D063
:1017F000E0328B298A2A892BAB2CAA2DA92E12051F
:1018000045FEAB29AA2AA92B120545FF6E702BEFC6
:10181000600DE53015307002152F14452F70037FD1
:1018200000227401252BF52BE4352AF52A740125B5
:101830002EF52EE4352DF52D80BEAB29AA2AA92B35
:10184000120545FDD3EE6480F8ED64809840037F77
:101850000122AB2CAA2DA92E120545FFC3ED9FFF37
:1018600022C0E0C0F0C083C08263A201C083C082F6
:10187000C0D075D000C000C004C005C006C007902D
:10188000006CE0FCA3E0FDA3E0FEA3E02401FFE484
:101890003EFEE43DFDE43CFC90006C1205F5D007F3
:1018A000D006D005D004D000D0D0D082D08363A29F
:1018B00001D082D083D0F0D0E032C2B2C2027F38F1
:1018C000121B45C2027F0C121B45C2027F06121B6F
:1018D00045C2027F01121B457BFF7A1F79BAE4FFE4
:1018E0001219F17BFF7A1F79C27F011219F17BFF78
:1018F0007A1F79ACC2011219BA7BFF7A1F79B4D270
:10190000010219BA8F258E248D238C22300138E4F0
:10191000FFFEFD7C40AB25AA24A923A82212013E8C
:10192000E4FBFA798078BF12004D1202827800EE53
:10193000F208EFF218E2547FF2E2FE08E2F5AAEEB6
:10194000547FF5AB43AB8022D2C1121C23E478064E
:10195000F208F27806E26408602308E2FFC313F29B
:10196000C2C1121C2AD2C1121C2A30C1067807E259
:101970004480F2121BCE7806E204F280D67807E2A9
:10198000FF22FFEEF0FCA3EFF0FD9006CFE0540342
:1019900022E0FCA3C37803E0FDE29D18E29C2290C4
:1019A00006CFE0FF1313229006CFF0900079E022DB
:1019B000FF18E2FE08E2A80708228B228A23892466
:1019C0003001047F408002E4FF121C1BE4F525ABCC
:1019D00022AA23A92485258275830012055EFF6053
:1019E0000FE52564286009D202121B45052580DF1A
:1019F000228F228B238A248925121C0AAF22121BD4
:101A00006A121C0AE4F526E52664086019AB23AACD
:101A100024A92585268275830012055EFFD2021255
:101A20001B45052680E122E47525D07524FFF523AA
:101A3000F522438E04E525FFE48FD7AF25AE24AD14
:101A400023AC2278081205D28FD6759A10C20BE407
:101A5000F50AF50BF508F509438E10228F24E4787A
:101A600006F27806E26408601FC2C1121C2AE5244F
:101A70001392C1121BCED2C1121C2A7806E204F2C4
:101A8000E524C313F52480DA2278067414F2D2C157
:101A9000121BCEC2C1121C01D2C1121C2330C107BD
:101AA0007806E214F270F37806E27002D322D2C113
:101AB000121BF7C322EFB40A07740D121AC0740A7E
:101AC000309811A899B8130CC2983098FDA899C203
:101AD00098B811F63099FDC299F599228B258A267E
:101AE0008927AB25AA26A92712054560130527E5F6
:101AF000277002052614F9120545FF121BC380E268
:101B000022121BE3121B26121B7C121A27C2017F12
:101B1000007E007D807C3F121904120026120E7692
:101B20001215500218BA53B1FE53B2FE53B1FD4321
:101B3000B2025391FE5392FE5391FD43920253B170
:101B4000BF43B240228F2712000EA20292B5C2B448
:101B50008527A0D2B2C2B222121A895001227FCCAC
:101B6000121A5C7F44121A5CC322530707EF333307
:101B70003354F8FF430740C202021B45438E805393
:101B800089F0758A9A758CA9C28DD28C227F127EBB
:101B9000347D2C0000DFFEDEFCDDFA227F7A7E3908
:101BA0007D0CDFFEDEFCDDFA227FF87E717D17DF23
:101BB000FEDEFCDDFA227F8A7ED77D56DFFEDEFC6C
:101BC000DDFA22200BFDD20B8F9B200BFD227FB66E
:101BD0007E020000DFFEDEFC22E50B2401FFE4357F
:101BE0000AFE2253C1DF53FFAF53FFFC227F237E47
:101BF0000200DFFEDEFC227FB97E0400DFFEDEFC99
:101C0000227FEC7E0EDFFEDEFC227FB77E1DDFFE34
:101C1000DEFC22309904C299C20A32430780C20214
:101C2000021B457F470000DFFE227F0500DFFE220A
:101C3000010C000044533138423230006131636995
:101C40003934733535774F0054502D4C494E4B5F26
:101C500038333041007A64777A78793237004453E8
:101C60003138423230266131636939347335357722
:101C70004F00626231313535663839366664366414
:101C8000636332376435353133636364663362646A
:101C900061363062303732616138006131636939F1
:101CA00034733535774F2E696F742D61732D6D71D7
:101CB00074742E636E2D7368616E676861692E613E
:101CC0006C6979756E63732E636F6D0031383833CC
:101CD000003132333435367C7365637572656D6FF0
:101CE00064653D335C2C7369676E6D6574686F6401
:101CF0003D686D6163736861315C2C74696D6573F7
:101D000074616D703D3738397C003630004F4E00BD
:101D10004F464600576174657254656D7065726117
:101D2000747572654C6F7700576174657254656D98
:101D30007065726174757265486967680013140094
:101D4000004D51545441555448004D515454534F33
:101D5000434B004D515454434944004D5154544B4E
:101D6000454550414C495645004D51545452454308
:101D70004F4E4E004D5154544155544F53544152BF
:101D800054004D5154545354415254004D515454E5
:101D9000535542004D515454505542004D515454E6
:101DA00053454E44004D515454554E535542004DE9
:101DB000515454535441545553004D515454434C71
:101DC0004F534500574A4150005245424F4F54002F
:101DD000574A41505100FF1D41FF1D4AFF1D53FF4F
:101DE0001D5BFF1D69FF1D74FF1D82FF1D8CFF1D04
:101DF00094FF1D9CFF1DA5FF1DAFFF1DBAFF1DC455
:101E0000FF1DC9FF1DD041542B2573003D25732CA8
:101E100025730D003D25730D003D2F7379732F251C
:101E2000732F25732F7468696E672F6576656E74DE
:101E30002F70726F70657274792F706F73742C309D
:101E40000D003D2F7379732F25732F25732F746821
:101E5000696E672F6576656E742F25732F706F73AB
:101E6000742C300D003D2F7379732F25732F25733C
:101E70002F7468696E672F736572766963652F25A5
:101E8000735F7265706C792C300D003D25750D7B8C
:101E9000226964223A222530336275222C2276652B
:101EA0007273696F6E223A22312E30222C227061B9
:101EB00072616D73223A7B25737D2C226D65746887
:101EC0006F64223A227468696E672E6576656E7457
:101ED0002E70726F70657274792E706F7374227DBC
:101EE0000D003D25750D7B226964223A2225303391
:101EF0006275222C2276657273696F6E223A2231E6
:101F00002E30222C22706172616D73223A7B257310
:101F10007D2C226D6574686F64223A227468696E44
:101F2000672E6576656E742E25732E706F7374221E
:101F30007D0D000D41540D0022576174657254658A
:101F40006D7065726174757265223A252E33660074
:101F5000224572726F72223A256275004552524FC5
:101F600052004F4B004D51545452454356004D5171
:101F700054544556454E5400434F4E4E454354002D
:101F800053554343455353005355425343524942DB
:101F900045005055424C49534800574556454E540C
:101FA0000053544154494F4E5F5550004C43443107
:101FB000363032005265616479001006090808095C
:101FC0000600000A1F1F0E040000005F00BE017A19
:101FD00002F13F0000003E8000003E0000003D8016
:021FE0000000FF
:00000001FF
