:1000000002173C1219591215B380FB020026C2B523
:10001000D2B4D2B2D2A7121C2AA2A79203C2B22093
:1000200003F022021C50C0E0C0F0C083C08263A273
:1000300001C083C082C0D075D000C000C004C0051C
:10004000C006C00790006CE0FCA3E0FDA3E0FEA3A7
:10005000E02401FFE43EFEE43DFDE43CFC90006C46
:10006000120645D007D006D005D004D000D0D0D09D
:1000700082D08363A201D082D083D0F0D0E0328FCF
:100080002712000EA20292B5C2B48527A0D2B2C236
:02009000B2229A
:100093000217C802033EE86480F8E933E8336011CD
:1000A3000460F0ED33EC337009E8FCE9FDEAFEEBA4
:1000B300FF220460DED3EB9FEA9EE99DE8C2E78C52
:1000C300F0C2F795F0400CE8CCF8E9CDF9EACEFAA6
:1000D300EBCFFB12030985D0F05804700320D5B38E
:1000E300E80470075002B2D502034892D5EC0460CD
:1000F300F7E4CCC0E0C398F8603B94186008400D67
:10010300D0E0FB020320E4FBFAC9FC8028E830E4DA
:1001130006E4C9FBE4CAFCE830E305E4C9CACBFC46
:10012300E854076010F8C3E913F9EA13FAEB13FB79
:10013300EC13FCD8F130F52FC3E49CFCEF9BFFEEEE
:100143009AFEED99FDD0E0FBEF4E4D4C701222DB91
:1001530003020345EC2CFCEF33FFEE33FEED33FDDE
:10016300ED30E7EB020320EF2BFFEE3AFEED39FD16
:10017300D0E0FB50130BBB0003020348ED13FDEE6D
:1001830013FEEF13FFEC13FC020320EC4D6011E8A8
:10019300497017ED33EC3304600DE4FCFFFEFD22E0
:1001A300E933E8330470F802033E1203095804608C
:1001B30009E4CC248150062850090203482840034F
:1001C300020345C0E0EB4A7044B98006D0E0FB026D
:1001D3000334EF4E701CBD8008EBFFEAFEE9FD809F
:1001E300EBE98DF0A4FEE5F0020277E9CDF9EAFE32
:1001F300EBFFEF89F0A4FCE5F0CE89F0A42EFFE439
:1002030035F0CD89F0A42DFEE435F08067EF4E7014
:1002130005BD80D780C3EF8BF0A4ACF0EE8BF0A4C8
:100223002CFCE435F0F8EF8AF0A42CE5F038FCE47C
:1002330033CB8DF0A42CFCE5F03BF8EE8AF0A42C34
:10024300FCE5F038F8E433CF89F0A42CFCE5F03872
:10025300CF3400CE89F0A42FFFE5F03EFEE433C98E
:100263008DF0A42EFEE5F039CD8AF0A42FFFE5F042
:100273003EFEE43DFD33D0E0FB50070BBB000F0215
:100283000348EC2CFCEF33FFEE33FEED33FD0203AA
:100293002075F020800E75F010800575F0087D0044
:1002A3007E007F003392D530D503120603EC334032
:1002B30010EF33FFEE33FEED33FDEC33FCD5F0ED01
:1002C30022E5F0247EA2D513CC92E7CDCEFF22ED1A
:1002D300D2E7CD33EC3392D524814006E4FFFEFD13
:1002E300FC22FCE4CFCECDCC24E0501174FF80ED92
:1002F300C3CC13CCCD13CDCE13CECF13CF0470F01C
:1003030030D5DE020603E9D2E7C933E833F892D5E4
:10031300EDD2E7CD33EC33FC5002B2D522EC30E71B
:10032300100FBF000C0EBE00080DBD00040BEB60E8
:1003330014A2D5EB13FCED92E7FD2274FFFCFDFE46
:10034300FF22E480F8A2D574FF13FC7D80E480EFE4
:10035300F920E72824F950037907E4F42402FB1871
:10036300DBFDE624FB5014E9600DE4F618E604F621
:10037300B40A08E4F6D9F57401F60A22C2D522EDCF
:1003830033EC3392D5FA602AB4FF33EDC2E77BFF37
:1003930060067A0379A7E4227A0379B020D5047A38
:1003A3000379AB224E614E002B494E46002D494E38
:1003B3004600E47A08F608DAFC7B00740722E8C0FA
:1003C300E0ECC0E0EDC0E0EEC0E0EFC0E0EA75F0C5
:1003D30010A4CAABF075F04DA42BFBE435F0FCEA96
:1003E3002410FAEB34C5FBEC34D9FCEDC2E7FF75FE
:1003F300F056A4F42411C5F0F434C58FF0A42AE513
:10040300F03BE43CF620E714120555D0E0FFD0E0C2
:10041300FED0E0FDD0E0FC1204888014F404120541
:1004230055D0E0FFD0E0FED0E0FDD0E0FC12018E1D
:10043300D0E0F8E6FAEDD2E7CD33EC332482FBE4E7
:10044300C3CF33CFCE33CECD33CD33DBF37B077581
:10045300F00A846004F6081B0AE5F0F6088FF074CE
:100463000AA4FFACF08EF0740AA42CFEACF0500189
:100473000C8DF0740AA42CFDE435F0F608DBDE7471
:100483000722020348EC5D046005E8590470030287
:10049300033E120309580460F6EC4860F2EC700462
:1004A300FDFEFF22C860DB2481C85009C3986002A7
:1004B30050060203459850CAF582E9294B4A700554
:1004C300AB8202033475F0007C1A7880C3EF9BEE95
:1004D3009AED99400DC3EF9BFFEE9AFEED99FDE86F
:1004E30042F0DC23ACF0D0E0FFD0E0FED0E0FDAB87
:1004F3008220E7101BEB60BAEC2CFCEF33FFEE33EA
:10050300FEED33FD020320E803F830E705C0F07584
:10051300F000EF2FFFEE33FEED33FD40B830E7C2BE
:1005230080AA3F8000004120000042C80000447AB6
:100533000000461C400047C35000497424004B1878
:1005430096804CBEBC205A0E1BCA6753C21C749DB6
:10055300C5AEFB60065407601C2323120583EB54CE
:1005630038600912056F12057E12018EECF8EDF961
:10057300EEFAEFCB22EB12057E80F1543803241CF4
:10058300900525FE93FC0EEE93FD0EEE930ECE9397
:10059300FF22BB010689828A83E0225002E722BB45
:1005A300FE02E32289828A83E49322BB010CE58263
:1005B30029F582E5833AF583E0225006E92582F89E
:1005C300E622BBFE06E92582F8E222E58229F582CE
:1005D300E5833AF583E49322BB010689828A83F09B
:1005E300225002F722BBFE01F322A3F8E0C5F02557
:1005F300F0F0E582158270021583E0C838F0E82236
:10060300C3E49FFFE49EFEE49DFDE49CFC22EB9F7C
:10061300F5F0EA9E42F0E99D42F0E89C45F022E8BD
:10062300600FECC313FCED13FDEE13FEEF13FFD8C5
:10063300F122E493F8740193F9740293FA74039327
:10064300FB22ECF0A3EDF0A3EEF0A3EFF022FAE629
:10065300FB0808E6F925F0F618E6CA3AF622D08335
:10066300D082F8E4937012740193700DA3A393F8EE
:10067300740193F5828883E4737402936860EFA333
:10068300A3A380DFEF4E6012EF60010EEDBB010B01
:1006930089828A83F0A3DFFCDEFA2289F05007F710
:1006A30009DFFCA9F022BBFEFCF309DFFCA9F02261
:1006B300E53E242AF8E6053E227827300802782A08
:1006C300E475F0011206510205952001EB7F2ED24D
:1006D300018018EF540F2490D43440D4FF30050B1D
:1006E300EF24BFB41A0050032461FFE53F600215F5
:1006F3003F0542E5427002054130080D7827E47555
:10070300F001120651EF0205DB021C677403D208E5
:100713008003E4C208F53E8B278A288929E4F53F44
:10072300F541F542E53F60077F201206EE80F5753F
:1007330040FFC202C201C203C204C206C207C20909
:100743001206BCFF700D3008057F001206FFAF4292
:10075300AE4122B4255FC2D5C2051206BCFF24D028
:10076300B40A00501A75F00A783F30D50508B6FF71
:100773000106C6A426F620D5047002D20480D9242B
:10078300CFB41A00EF5004C2E5D2050209ECD2023D
:1007930080C6D20180C0D20380BCD2D580BAD20633
:1007A30080B47F201206EE2003077401B53F00409A
:1007B300F11206B3FF1206EE020727D209D2078011
:1007C300951206B3FB1206B3FA1206B3F94A4B703D
:1007D3000679E37A0A7BFF20032EE53F602A7E0039
:1007E3008E827583001205AE60060EEE654070F0D2
:1007F300C2D5EBC0E0EAC0E0E9C0E0EE120A4CD09B
:10080300E0F9D0E0FAD0E0FB120595FF60AAEBC057
:10081300E0EAC0E0E9C0E01206EED0E02401F9D03E
:10082300E03400FAD0E0FBE5400460DCD540D98039
:1008330087D20380A2120A2F60F7E54070010412E9
:100843000353A940600DE540600914F540120AD630
:10085300EF60F3EA30E702F404C3995077EAF42532
:10086300400430E701E404F540800D120A2F60C113
:10087300EA05402540120353EA783DF630E701E4E8
:10088300254004D5400420060114120A4CE4C0E0BC
:10089300120AD6783DE6601320E70714F61206D64F
:1008A300802204F6D0E014C0E07F001206D6E540B3
:1008B30060071206CD1540800B3006031206CDD01B
:1008C300E0020727D0E00480C5120A2F60A0E540AC
:1008D30004120353783DEAF6E54020060260010462
:1008E3002404120A4C74FF04C0E0120AD61206D67E
:1008F300E54020060260031206CDD0E0B540E87F54
:10090300451206E0783DE67F2B30E7047F2DF404A3
:10091300C0E01206EED0E075F00A84C0F01206D7EC
:10092300D0E01206D7020727791080027908C207A0
:10093300C2098008D2D5790A8004790AC2D5E54074
:10094300047002F540E4FAFDFEFF1206B3FC7B08D7
:100953002002131206B3FD7B1030010A1206B3FE08
:100963001206B3FF7B20EC3382D592D55013C3E438
:100973003001069FFFE49EFEE42002039DFDE49CFC
:10098300FCE4CBF8C202EC700CCFCECDCCE824F85B
:10099300F870F38017C3EF33FFEE33FEED33FDEC56
:1009A30033FCEB33FB994002FB0FD8E9EB30020534
:1009B300F8D0E0C448B202C0E00AEC4D4E4F7820B4
:1009C3007B0070C2EAB5400040BCC0E0120A4ED0C2
:1009D300F0D0E0200204C4C0E0C4B202C0F01206AA
:1009E300D7D0F0D5F0EB02072712066107C45309ED
:1009F3002B5807954C079142092F4F093744093764
:100A03004907AA43093D55086E4608CC45083847AF
:100A13000B035007992D079D2E07C02B07A1230712
:100A2300BE200AEC2A075948000007B8E540B4FF86
:100A3300037540061206B3FC1206B3FD1206B3FE9D
:100A43001206B3FF7836020382790AA2D520041472
:100A5300300609B910020404B9080104A2D520071D
:100A6300025001042003689203B53F005034C0E0F4
:100A73007F203004197F30A20372077206500F12D1
:100A83000AA5C203C207C206C2097F30800F30061F
:100A930003E9C0E01206EE300603D0E0F9D0E0B57A
:100AA3003FCC3006177F30B9100C1206EE7F58305A
:100AB30005077F788003B908031206EE3003057F2C
:100AC3002D0206EE7F202009F87F2B2007F32292C8
:100AD3000380CF7F00B4070050052436F8E6FF22D9
:100AE300286E756C6C2900D2021206B33002F8C26C
:100AF30002783F30D50108F60207592D5043495873
:100B03001206B32403B405004001E4900AFE9312D5
:100B130006DF743A1206DFD204753F0402092B7E06
:100B2300007F127D007B017A00796C120687E490C6
:100B3300046AF0A3F0900274F0A3F0900272F0A3A1
:100B4300F0740E120D3A1212911213301213027036
:100B53001012168C12128312129F50F01212C780B9
:100B6300E07BFF7A1C7977120715740F120D3A1286
:100B73001291121330121302701712168C12128371
:100B83001213447BB87A0B1212B050E91212C780C9
:100B9300D97BFF7A1C7992120715740D120D261258
:100BA3001291121330121302701712168C12128341
:100BB3001213447B107A271212B050E91212C78025
:100BC300D97BFF7A1C79B4120715E4900070F0FF0B
:100BD300120D4412129112133012130270101216D6
:100BE3008C12128312129F50F01212C780DC7BFF0B
:100BF3007A1C79D31207157401120D261212911261
:100C03001330121302701012168C12128312129FD9
:100C130050F01212C780E07BFF7A1C79F41207159B
:100C23007402120D3012129112133012130270104B
:100C330012168C12128312129F50F01212C780E008
:100C43007BFF7A1D79151207157403120D301212EA
:100C530091121330121302701012168C1212831297
:100C6300129F50F01212C780E07BFF7A1D79391270
:100C73000715740412138B120D44121291121330C0
:100C8300121302701012168C12128312129F50F05C
:100C93001212C780DD7BFF7A1D795B12071574057D
:100CA30012138B120D44121291121330121302708D
:100CB3001012168C12128312129F50F01212C78058
:100CC300DD7BFF7A1D79851207159000707406F09D
:100CD3007F02120D4412129112133012130270107C
:100CE30012168C12128312129F50F01212C780DA5E
:100CF3007BFF7A1D79AB12071512137E120D441276
:100D03001291121330121302701012168C121283E6
:100D130012129F50F01212C780DF7BFF7A1D79CA2F
:100D2300020715900070F0E4FF120D44229000704A
:100D3300F0E4FF120D4422900070F07F02120D4484
:100D4300228F23E47800F2900074E030E002D32293
:100D5300752AFF752B1D752CDE900070E075F0036E
:100D6300A4244CF582E5F03421F583E493FB74016C
:100D730093FA7402938B2D8A2EF52F7B017A0279D5
:100D83007612070F900274EEF0A3EFF0E5231470D0
:100D930003020F15147003020F1B147003020F0FCD
:100DA30024036003020F26900070E01206610DD049
:100DB300000DE8010E00020E0F030E1E040E2D059A
:100DC3000E3C080E95090EF50D00000F261212B603
:100DD300121360752E1F752FD47530FF75311F7573
:100DE30032E8020F0A1212B6121360752E20752F05
:100DF300117530FF753120753242020F0A1212B697
:100E0300121337752E20752F47020F0A1212B612CE
:100E13001337752E20752F80020F0A1212B6121384
:100E230037752E20752F83020F0A1212B61213374D
:100E3300752E20752F86020F0A900073E014602030
:100E4300146029243A603124C86003020F26121269
:100E5300B6752AFF752B1D752CF11212EF020F0ABE
:100E63001212B61212E6121392020F0A1212B612DD
:100E730012E612139C020F0A1212B6752AFF752B83
:100E83001E752C3D1212EF7533FF7534207535B581
:100E93008075900072E01460281460382402704A50
:100EA3001212B6C003752AFF752B1E752C639002B0
:100EB30073E0244DF52E900272E0340012131F806C
:100EC300241212B6C0031213A69020B312130B12EE
:100ED300139280111212B6C0031213A69020B412FB
:100EE300130B12139CD00312070F900071E004F050
:100EF30080311212B6121360752E1F752FBE753016
:100F0300FF75311F7532CB12070F80171212CF7482
:100F13003DF01212CF743FF01212CF740DF0121283
:100F2300CFE4F0752A01752B02752C767BFF7A1FAF
:100F3300790B1207157B017A027976E4FD1219CD3C
:100F4300900074E04401F0121291FF9000751206B4
:100F530045C322752A01752B00752C7E7BFF7A1FF2
:100F63007943120715752AFF752B1F752C5A752D9A
:100F730000752E051210F070030210AF752AFF756D
:100F83002B1F752C60752D00752E021210F0703B0F
:100F9300900070E0FF640670030210AFEF64097005
:100FA300030210AFEF640770030210AFEF640D701C
:100FB300030210AF1212C7900070E06408600302CE
:100FC30010AF900073E0900072F02290007EE06416
:100FD3002B60030210AF752AFF752B1F752C63F569
:100FE3002D752E081210E1700122752AFF752B1F33
:100FF300752C6C752D00752E091210E1707490001C
:1010030070E064067016752AFF752B1F752C761217
:1010130010CD70081210B070031212C7900070E068
:1010230064077031752AFF752B1F752C86F52D7596
:101033002E097A0079891210FF701A752AFF752B11
:101043001F752C7EF52D752E077A0079931210FFEC
:1010530070031212C7900070E06409704F752AFF85
:10106300752B1F752C901210CD70411210B0703C6F
:101073008037752AFF752B1F752C98752D00752EDB
:10108300067A00797F12110A7022900070E0640DD5
:10109300701A752AFF752B1F752C9FF52D752E0A57
:1010A3007A00798612110A70031212C722752AFF79
:1010B300752B1F752C7EF52D752E077B017A007914
:1010C30091121853EF3395E04F22F52D752E077BC0
:1010D300017A007989121853EF3395E04F227B018F
:1010E3007A00797F121853EF3395E04F227B017A10
:1010F30000797E121853EF3395E04F227B011218CB
:1011030053EF3395E04F227B01121853EF3395E0F1
:101113004F22780474FFF20874C9F2C3E494C9FE41
:10112300E494FF18F208CEF2121A0E04121A348055
:1011330005C333CE33CED8F97905F3EE19F3121A7A
:10114300AB5001227FCC121B0F7FBE121B0F121953
:10115300937801EFF21219937800EFF27802E4F238
:1011630008EFF2E27F0018F2FE08EFF27801E2FDE9
:10117300EE08F2ED08F2121A0EFFC374039F121A5F
:10118300348005CEC313CE13D8F9FF7802EEF208EC
:10119300EFF2EE30E43118E2FE08E2FFEE30E3272F
:1011A300EFF4FFEEF418F208EFF2E22401F218E292
:1011B3003400F2E2FE08E2FFC37805E29F7903F30D
:1011C30018E29E19F380107804E2FE08E2FF780328
:1011D300E22FF218E23EF27802E2FE08E2FF900705
:1011E3008CE0FCA3E0FDEC540FFAEF6D7002EE6AA5
:1011F3007003021281EE540FFEEC54F04EFE900782
:101203008CEEF0A3EFF0900079E04404F0121A237F
:101213001354017015900792E0FCA3D3121A1B50CC
:1012230009EF4408121A2B4408F0121A231354012D
:1012330064017014900794121A15400CEF54F7A32D
:10124300F0900079E04408F0121A235401701190D1
:10125300078E121A154009EF4404121A2B4410F09A
:10126300121A23540164017015900790E0FCA3D374
:10127300121A195009EF54FB121A2B4410F0C3220F
:10128300900797E0F8A3E0F9A3E0FAA3E0FB90004E
:101293006CE0FCA3E0FDA3E0FEA3E022C39BFFEE12
:1012A3009A7BDC7A05FEED99FDEC98FCE4F9F8D322
:1012B300020611900274E0FEA3E02476F974023E64
:1012C300FA7B0122900074E054FEF022900274E451
:1012D30075F0011205EDFE747625F0F58274023E79
:1012E300F58322752AFF752B1E752C1A752DFF7534
:1012F3002E1F752FB27530FF75311F7532AA2290DC
:101303000074E05401640122E4932445FFE433FEB6
:10131300900273E02FF52E900272E03EF52D9000BF
:1013230071E0F52F8B3075310075320822FF90077D
:1013330097020645752AFF752B1D752CEC752DFF3D
:1013430022C39BFFEE9AFEED99FDEC98FCE4227418
:101353006C2524F58274043523F583E022752AFF76
:10136300752B1D752CE4752DFF22752AFF752B1F18
:10137300752C37900796E0FF1313229000707408C2
:10138300F0E4900073F0FF22900070F0E4FF227508
:1013930033FF75342075358A227533FF7534207514
:1013A300359E22752AFF752B1E752CBA227E007F6F
:1013B3000B7D007B017A07798C120687121AAB50DA
:1013C300097BFF7A21797C0214CC7FCC121B0F7F1F
:1013D300BE121B0F1219931219931219938F221213
:1013E30019938F23121993EFC4135403FF90079695
:1013F300E054FC4FF0540304FF7E007455A8070823
:101403008005C333CE33CED8F990078E121A06FF68
:101413007E007401A807088005C333CE33CED8F904
:10142300FFC3ED9FFFEC9E900790F0A3EFF0121A1D
:101433000E04FF7E00744DA807088005C333CE3326
:10144300CED8F9900792121A06FF7E007401A807FE
:10145300088005C333CE33CED8F92DFFEE3C900779
:1014630094F0A3EFF0121B75121A0E14600F1460A0
:101473001114601324037012121BD9800D121BE682
:101483008008121BCA8003121BF31211157BFF7A0B
:101493002179A71207157BFF7A2179BD85222A8539
:1014A300232B121A0EF52C90078EE0F52DA3E0F5F1
:1014B3002EA3E0F52FA3E0F530A3E0F531A3E0F58B
:1014C30032A3E0F533A3E0F534120715228F2290FF
:1014D3000074E030E002D322E5227057900072E0FE
:1014E300600CA3E0600612137E120D44D322752A0A
:1014F300FF752B1F752C1F90078CE0540FFCA3E086
:10150300FDE4120299900796E0540375F004A424B5
:1015130011F582E5F03422F58312063512018EE4CB
:10152300FBFA795C78C212009D8F308E2F8D2E8C42
:101533002D805F900072E06522603D90007074081A
:10154300F0900073E522F0E4FF120D44121291FFB4
:10155300900797120645900072E06522601A1216F2
:101563008C9007971212861213447B2C7A01121265
:10157300B050E31212C780C3E52224FE600D04704D
:101583002212136D135401F52D800712136D5401AC
:10159300F52D7B017A00790812070F900272EEF0A5
:1015A300A3EFF09000707409F0E4FF120D44C3221E
:1015B30012168C900079E0C41354017028A3121200
:1015C30086C39BFFEE9A7BE87A031212A850161289
:1015D3001B754011900079E04420F0121291FF90A6
:1015E300007A120645900079E01313135401640145
:1015F300700E7F011214D04007900079E054F7F089
:10160300900079E0C454016401700E7F021214D07B
:101613004007900079E054EFF0900079E013135401
:10162300016401700DFF1214D04007900079E0545B
:10163300FBF0900079E0C41354016401704AA312D3
:101643001286C39BFBEE9AFAED99F9EC98F8900792
:1016530096E0540375F002A42409F582E5F03422E0
:10166300F583E493FE740193FFE4FCFDC3120611BA
:1016730040161211154011900079E054DFF0121258
:1016830091FF90007A120645228508238509248557
:101693000A25850B26E52465267004E52365257058
:1016A3000302173BE50C14600F04706512135264B8
:1016B3000A705E750C018059121352640D7036C3A3
:1016C30090046BE0940290046AE094004018E4757F
:1016D300F0011205EDFE747E25F0F58274003EF5EF
:1016E30083E4F0120F56E4F50C90046AF0A3F09033
:1016F300007EF0801C121352FF90046AE475F0011F
:101703001205EDFC747E25F0F58274003CF583EF41
:10171300F0E5242401FFE43523FEBE030ABF2007BE
:10172300E4F523F52480080524E5247002052385C8
:10173300230885240902169822787FE4F6D8FD75DC
:101743008142021783020003E493A3F8E493A340C6
:1017530003F68001F208DFF48029E493A3F8540729
:10176300240CC8C333C4540F4420C8834004F45624
:10177300800146F6DFE4800B01020408102040805C
:10178300901C73E47E019360BCA3FF543F30E509D2
:10179300541FFEE493A360010ECF54C025E060A85C
:1017A30040B8E493A3FAE493A3F8E493A3C8C582EF
:1017B300C8CAC583CAF0A3C8C582C8CAC583CADF5D
:1017C300E9DEE780BEC0E0C083C08263A201C083BC
:1017D300C082C0D075D000C006C007E58430E05792
:1017E300C2005384FE121C16BE030DBF200AE50976
:1017F30045087012D200800EEFB50908EEB5080453
:10180300D2008002D291300004C291802F746C25E3
:101813000BF5827404350AF583E585F0121C16BEB8
:10182300030BBF2008750A00750B00800F050BE53D
:101833000B7002050A80055384FDC20BD007D00646
:10184300D0D0D082D08363A201D082D083D0E032C3
:101853008B278A288929AB2AAA2BA92C120595FE46
:10186300AB27AA28A929120595FF6E702BEF600DEF
:10187300E52E152E7002152D14452D70037F0022C1
:1018830074012529F529E43528F5287401252CF55B
:101893002CE4352BF52B80BEAB27AA28A9291205EA
:1018A30095FDD3EE6480F8ED64809840037F0122B8
:1018B300AB2AAA2BA92C120595FFC3ED9FFF22C2C9
:1018C300B2C2027F3812007FC2027F0C12007FC2B5
:1018D300027F0612007FC2027F0112007F7BFF7A24
:1018E30022797DE4FF121A757BFF7A2279857F01C5
:1018F300121A757BFF7A227959C201121A3E7BFFB5
:101903007A227961D201121A3E7BFF7A2279670229
:1019130007158F258E248D238C22300138E4FFFE9A
:10192300FD7C40AB25AA24A923A82212018EE4FB47
:10193300FA798078BF12009D1202D27800EEF20885
:10194300EFF218E2547FF2E2FE08E2F5AAEE547FCA
:10195300F5AB43AB8022121C20121B3C121BAA12B4
:101963001AE0121BBBC2017F007E007D807C3F1208
:101973001915121B5B7BFF7A227921120715120BB3
:10198300221213B01218C27BFF7A22793D02071587
:10199300D2C1121C60E47806F208F27806E2640809
:1019A300602308E2FFC313F2C2C1121C6DD2C1123D
:1019B3001C6D30C1067807E24480F2121C0B7806D6
:1019C300E204F280D67807E2FF228B248A25892657
:1019D300ED6017AF051DEF6029AB240526E526AAA8
:1019E3002570020525121B9980E9AB24AA25A92697
:1019F300120595600D0526E52670020525121B9933
:101A030080E822FFEEF0FCA3EFF0FD900796E05490
:101A13000322E0FCA3C37803E0FDE29D18E29C22CD
:101A2300900796E0FF131322900796F0900079E059
:101A330022FF18E2FE08E2A80708228B228A2389E4
:101A4300243001047F408002E4FF121C58E4F52592
:101A5300AB22AA23A9248525827583001205AEFF34
:101A6300600FE52564286009D20212007F052580F6
:101A7300DF228F228B238A248925121C47AF22124F
:101A83001B87121C47E4F526E52664086019AB237F
:101A9300AA24A9258526827583001205AEFFD202EA
:101AA30012007F052680E12278067414F2D2C11257
:101AB3001C0BC2C1121C3ED2C1121C6030C107787C
:101AC30006E214F270F37806E2700B7BFF7A217959
:101AD300F2120715D322D2C1121C34C322E4752596
:101AE300D07524FFF523F52275984053873F438E25
:101AF30005E525FFE48FD7AF25AE24AD23AC2278CF
:101B0300081206228FD6C20A438E10228F24E4784D
:101B130006F27806E26408601FC2C1121C6DE52458
:101B23001392C1121C0BD2C1121C6D7806E204F28F
:101B3300E524C313F52480DA2253B1FE53B2FE53D6
:101B4300B1FD43B2025393FB5394FB5393F7439476
:101B53000853B1BF43B24022D2A9D2AC53AFFB4327
:101B6300AF1053AFBFD2B943B702D2BC53B7EFD212
:101B7300AF22121AAB5001227FCC121B0F7F4412EB
:101B83001B0FC322530707EF33333354F8FF4307C5
:101B930040C20202007F14F9120595FF200BFDD20B
:101BA3000B8F85200BFD22438E805389F0758A9A13
:101BB300758CA9C28DD28C22758410C20BE4F50AF0
:101BC300F50BF508F509227F127E347D2C0000DF2A
:101BD300FEDEFCDDFA227F7A7E397D0CDFFEDEFC41
:101BE300DDFA227FF87E717D17DFFEDEFCDDFA224F
:101BF3007F8A7ED77D56DFFEDEFCDDFA22200AFDDA
:101C0300D20A8F99200AFD227FB67E020000DFFEF2
:101C1300DEFC22E50B2401FFE4350AFE2253C1DF7B
:101C230053FFAF53FFFC227F237E0200DFFEDEFC67
:101C3300227FB97E0400DFFEDEFC227FEC7E0EDF16
:101C4300FEDEFC227FB77E1DDFFEDEFC2230990420
:101C5300C299C20A32430780C20202007F7F470053
:101C630000DFFE22121C007F01227F0500DFFE221F
:101C7300010C00004C4F47233A436C6F7564496E67
:101C830069742D5265626F6F74206F6B0D0A004C7F
:101C93004F47233A436C6F7564496E69742D5769D6
:101CA3004669446973436F6E656374206F6B0D0AF5
:101CB300004C4F47233A436C6F7564496E69742D2A
:101CC30057694669436F6E656374206F6B0D0A0035
:101CD3004C4F47233A436C6F7564496E69742D4DBD
:101CE3005154545F55736572536574206F6B0D0ABD
:101CF300004C4F47233A436C6F7564496E69742DEA
:101D03004D5154545F486F7374536574206F6B0D5A
:101D13000A004C4F47233A436C6F7564496E6974EC
:101D23002D4D5154545F436C696E7449445365742B
:101D3300206F6B0D0A004C4F47233A436C6F756459
:101D4300496E69742D4D5154545F486561727453E3
:101D53006574206F6B0D0A004C4F47233A436C6F39
:101D63007564496E69742D4D5154545F4175746F98
:101D73005265436F6E65637420536574206F6B0DFA
:101D83000A004C4F47233A436C6F7564496E69747C
:101D93002D4D5154545F4175746F53746172745374
:101DA3006574206F6B0D0A004C4F47233A436C6FE9
:101DB3007564496E69742D4D5154545F5374617247
:101DC30074206F6B0D0A004C4F47233A436C6F75B9
:101DD30064496E6974206F6B0D0A0041542B25739F
:101DE300003D25732C25730D003D25730D003D2FFC
:101DF3007379732F25732F25732F7468696E672F7B
:101E03006576656E742F70726F70657274792F705A
:101E13006F73742C300D003D2F7379732F25732F3F
:101E230025732F7468696E672F6576656E742F2529
:101E3300732F706F73742C300D003D2F7379732FD4
:101E430025732F25732F7468696E672F73657276F8
:101E53006963652F25735F7265706C792C300D0093
:101E63003D25750D7B226964223A22253033627544
:101E7300222C2276657273696F6E223A22312E30DC
:101E8300222C22706172616D73223A7B25737D2C43
:101E9300226D6574686F64223A227468696E672ED6
:101EA3006576656E742E70726F70657274792E70BC
:101EB3006F7374227D0D003D25750D7B22696422AD
:101EC3003A222530336275222C2276657273696F4C
:101ED3006E223A22312E30222C22706172616D7390
:101EE300223A7B25737D2C226D6574686F64223AD8
:101EF300227468696E672E6576656E742E25732E5F
:101F0300706F7374227D0D004C4F47233A436C6FFF
:101F1300756453656E642425730D0A00225761743A
:101F2300657254656D7065726174757265223A25C8
:101F33002E336600224572726F72223A2562750053
:101F43004C4F473A48616E646C65526563656976C8
:101F5300652425730D0A004552524F52004F4B0022
:101F63004D51545452454356004D515454455645D2
:101F73004E5400434F4E4E4543540053554343453F
:101F8300535300535542534352494245005055421F
:101F93004C49534800574556454E540053544154F9
:101FA300494F4E5F5550004453313842323000613F
:101FB3003163693934733535774F0054502D4C49AB
:101FC3004E4B5F38333041007A64777A7879323711
:101FD30000445331384232302661316369393473F6
:101FE3003535774F006262313135356638393666BB
:101FF30064366463633237643535313363636466EF
:102003003362646136306230373261613800613186
:1020130063693934733535774F2E696F742D617366
:102023002D6D7174742E636E2D7368616E676861B4
:10203300692E616C6979756E63732E636F6D003100
:10204300383833003132333435367C736563757217
:10205300656D6F64653D335C2C7369676E6D657484
:10206300686F643D686D6163736861315C2C74698A
:102073006D657374616D703D3738397C003630009F
:102083004F4E004F464600576174657254656D703C
:10209300657261747572654C6F7700576174657210
:1020A30054656D706572617475726548696768001F
:1020B300131400004D51545441555448004D51548C
:1020C30054534F434B004D515454434944004D51D5
:1020D30054544B454550414C495645004D51545479
:1020E3005245434F4E4E004D5154544155544F5356
:1020F30054415254004D5154545354415254004D81
:10210300515454535542004D515454505542004D6F
:1021130051545453454E44004D515454554E535508
:1021230042004D515454535441545553004D51544E
:1021330054434C4F534500574A4150005245424F78
:102143004F5400574A41505100FF20B7FF20C0FFB2
:1021530020C9FF20D1FF20DFFF20EAFF20F8FF2165
:1021630002FF210AFF2112FF211BFF2125FF21303E
:10217300FF213AFF213FFF21464552523A44533152
:1021830038423230496E6974206661696C20776821
:10219300656E20445331384232305354496E69746A
:1021A300210D0A004C4F47233A4453313842323011
:1021B300496E6974206F6B0D0A004C4F473A5448BF
:1021C3002D2562752C544C2D2562752C4D6F64653D
:1021D3002D2562752C48312D25752C48322D2575FA
:1021E3002C4C312D25752C4C322D25750D0A0045AF
:1021F30052523A44533138423230496E6974206640
:1022030061696C0D0A00005F00BE017A02F13F00B4
:1022130000003E8000003E0000003D8000004C4F67
:1022230047233A496E7465726E616C20496E697416
:102233002046696E6973680D0A004C4F47233A457F
:10224300787465726E616C20496E69742046696E9C
:102253006973680D0A004C434431363032005265CD
:10226300616479004C4F47233A4C43443136303252
:10227300496E6974206F6B0D0A001006090808097E
:0A2283000600000A1F1F0E040000F1
:00000001FF
