:1000000002180B12199D1215D980FB020026C2B5E9
:10001000D2B4D2B2D2A7121C66A2A79202C2B22058
:1000200002F022021C8CC0E0C0F0C083C08263A238
:1000300001C083C082C0D075D000C000C004C0051C
:10004000C006C007900070E0FCA3E0FDA3E0FEA3A3
:10005000E02401FFE43EFEE43DFDE43CFC90007042
:1000600012069AD007D006D005D004D000D0D0D048
:1000700082D08363A201D082D083D0F0D0E0328FCF
:100080002712000EA20192B5C2B48527A0D2B2C237
:02009000B2229A
:1000930002176A02033EE86480F8E933E83360112B
:1000A3000460F0ED33EC337009E8FCE9FDEAFEEBA4
:1000B300FF220460DED3EB9FEA9EE99DE8C2E78C52
:1000C300F0C2F795F0400CE8CCF8E9CDF9EACEFAA6
:1000D300EBCFFB12030985D0F05804700320D5B38E
:1000E300E80470075002B2D502034892D5EC0460CD
:1000F300F7E4CCC0E0C398F8603B94186008400D67
:10010300D0E0FB020320E4FBFAC9FC8028E830E4DA
:1001130006E4C9FBE4CAFCE830E305E4C9CACBFC46
:10012300E854076010F8C3E913F9EA13FAEB13FB79
:10013300EC13FCD8F130F52FC3E49CFCEF9BFFEEEE
:100143009AFEED99FDD0E0FBEF4E4D4C701222DB91
:1001530003020345EC2CFCEF33FFEE33FEED33FDDE
:10016300ED30E7EB020320EF2BFFEE3AFEED39FD16
:10017300D0E0FB50130BBB0003020348ED13FDEE6D
:1001830013FEEF13FFEC13FC020320EC4D6011E8A8
:10019300497017ED33EC3304600DE4FCFFFEFD22E0
:1001A300E933E8330470F802033E1203095804608C
:1001B30009E4CC248150062850090203482840034F
:1001C300020345C0E0EB4A7044B98006D0E0FB026D
:1001D3000334EF4E701CBD8008EBFFEAFEE9FD809F
:1001E300EBE98DF0A4FEE5F0020277E9CDF9EAFE32
:1001F300EBFFEF89F0A4FCE5F0CE89F0A42EFFE439
:1002030035F0CD89F0A42DFEE435F08067EF4E7014
:1002130005BD80D780C3EF8BF0A4ACF0EE8BF0A4C8
:100223002CFCE435F0F8EF8AF0A42CE5F038FCE47C
:1002330033CB8DF0A42CFCE5F03BF8EE8AF0A42C34
:10024300FCE5F038F8E433CF89F0A42CFCE5F03872
:10025300CF3400CE89F0A42FFFE5F03EFEE433C98E
:100263008DF0A42EFEE5F039CD8AF0A42FFFE5F042
:100273003EFEE43DFD33D0E0FB50070BBB000F0215
:100283000348EC2CFCEF33FFEE33FEED33FD0203AA
:100293002075F020800E75F010800575F0087D0044
:1002A3007E007F003392D530D503120658EC3340DD
:1002B30010EF33FFEE33FEED33FDEC33FCD5F0ED01
:1002C30022E5F0247EA2D513CC92E7CDCEFF22ED1A
:1002D300D2E7CD33EC3392D524814006E4FFFEFD13
:1002E300FC22FCE4CFCECDCC24E0501174FF80ED92
:1002F300C3CC13CCCD13CDCE13CECF13CF0470F01C
:1003030030D5DE020658E9D2E7C933E833F892D58F
:10031300EDD2E7CD33EC33FC5002B2D522EC30E71B
:10032300100FBF000C0EBE00080DBD00040BEB60E8
:1003330014A2D5EB13FCED92E7FD2274FFFCFDFE46
:10034300FF22E480F8A2D574FF13FC7D80E480EFE4
:10035300F920E72824F950037907E4F42402FB1871
:10036300DBFDE624FB5014E9600DE4F618E604F621
:10037300B40A08E4F6D9F57401F60A22C2D522EDCF
:1003830033EC3392D5FA602AB4FF33EDC2E77BFF37
:1003930060067A0379A7E4227A0379B020D5047A38
:1003A3000379AB224E614E002B494E46002D494E38
:1003B3004600E47A08F608DAFC7B00740722E8C0FA
:1003C300E0ECC0E0EDC0E0EEC0E0EFC0E0EA75F0C5
:1003D30010A4CAABF075F04DA42BFBE435F0FCEA96
:1003E3002410FAEB34C5FBEC34D9FCEDC2E7FF75FE
:1003F300F056A4F42411C5F0F434C58FF0A42AE513
:10040300F03BE43CF620E714120555D0E0FFD0E0C2
:10041300FED0E0FDD0E0FC1204888014F404120541
:1004230055D0E0FFD0E0FED0E0FDD0E0FC12018E1D
:10043300D0E0F8E6FAEDD2E7CD33EC332482FBE4E7
:10044300C3CF33CFCE33CECD33CD33DBF37B077581
:10045300F00A846004F6081B0AE5F0F6088FF074CE
:100463000AA4FFACF08EF0740AA42CFEACF0500189
:100473000C8DF0740AA42CFDE435F0F608DBDE7471
:100483000722020348EC5D046005E8590470030287
:10049300033E120309580460F6EC4860F2EC700462
:1004A300FDFEFF22C860DB2481C85009C3986002A7
:1004B30050060203459850CAF582E9294B4A700554
:1004C300AB8202033475F0007C1A7880C3EF9BEE95
:1004D3009AED99400DC3EF9BFFEE9AFEED99FDE86F
:1004E30042F0DC23ACF0D0E0FFD0E0FED0E0FDAB87
:1004F3008220E7101BEB60BAEC2CFCEF33FFEE33EA
:10050300FEED33FD020320E803F830E705C0F07584
:10051300F000EF2FFFEE33FEED33FD40B830E7C2BE
:1005230080AA3F8000004120000042C80000447AB6
:100533000000461C400047C35000497424004B1878
:1005430096804CBEBC205A0E1BCA6753C21C749DB6
:10055300C5AEFB60065407601C2323120583EB54CE
:1005630038600912056F12057E12018EECF8EDF961
:10057300EEFAEFCB22EB12057E80F1543803241CF4
:10058300900525FE93FC0EEE93FD0EEE930ECE9397
:10059300FF22BB010689828A83E0225002E722BB45
:1005A300FE02E32289828A83E49322BB010CE58263
:1005B30029F582E5833AF583E0225006E92582F89E
:1005C300E622BBFE06E92582F8E222E58229F582CE
:1005D300E5833AF583E49322BB010689828A83F09B
:1005E300225002F722BBFE01F322BC000BBE0029FE
:1005F300EF8DF084FFADF022E4CCF875F008EF2F17
:10060300FFEE33FEEC33FCEE9DEC984005FCEE9DD3
:10061300FE0FD5F0E9E4CEFD22EDF8F5F0EE8420EF
:10062300D21CFEADF075F008EF2FFFED33FD400750
:10063300985006D5F0F222C398FD0FD5F0EA22A315
:10064300F8E0C5F025F0F0E582158270021583E02D
:10065300C838F0E822C3E49FFFE49EFEE49DFDE476
:100663009CFC22EB9FF5F0EA9E42F0E99D42F0E804
:100673009C45F022E8600FECC313FCED13FDEE1371
:10068300FEEF13FFD8F122E493F8740193F9740297
:1006930093FA740393FB22ECF0A3EDF0A3EEF0A323
:1006A300EFF022FAE6FB0808E6F925F0F618E6CAA9
:1006B3003AF622D083D082F8E493701274019370D7
:1006C3000DA3A393F8740193F5828883E4737402F2
:1006D300936860EFA3A3A380DFEF4E6012EF600186
:1006E3000EEDBB010B89828A83F0A3DFFCDEFA22C5
:1006F30089F05007F709DFFCA9F022BBFEFCF309E0
:10070300DFFCA9F022E53E242AF8E6053E227827FD
:10071300300702782AE475F0011206A60205952037
:1007230000EB7F2ED2008018EF540F2490D4344076
:10073300D4FF30040BEF24BFB41A0050032461FF2D
:10074300E53F6002153F0542E5427002054130076F
:100753000D7827E475F0011206A6EF0205DB021CF3
:10076300A37403D2078003E4C207F53E8B278A28CC
:100773008929E4F53FF541F542E53F60077F201203
:10078300074380F57540FFC201C200C202C203C223
:1007930005C206C208120711FF700D3007057F005E
:1007A300120754AF42AE4122B4255FC2D5C2041230
:1007B3000711FF24D0B40A00501A75F00A783F30AD
:1007C300D50508B6FF0106C6A426F620D504700297
:1007D300D20380D924CFB41A00EF5004C2E5D20467
:1007E300020A41D20180C6D20080C0D20280BCD2AC
:1007F300D580BAD20580B47F201207432002077444
:1008030001B53F0040F1120708FF12074302077CBE
:10081300D208D2068095120708FB120708FA1207BE
:1008230008F94A4B700679387A0B7BFF20022EE5D4
:100833003F602A7E008E827583001205AE60060E2D
:10084300EE654070F0C2D5EBC0E0EAC0E0E9C0E07D
:10085300EE120AA1D0E0F9D0E0FAD0E0FB12059540
:10086300FF60AAEBC0E0EAC0E0E9C0E0120743D0B2
:10087300E02401F9D0E03400FAD0E0FBE540046065
:10088300DCD540D98087D20280A2120A8460F7E5C2
:1008930040700104120353A940600DE54060091440
:1008A300F540120B2BEF60F3EA30E702F404C3992F
:1008B3005077EAF425400430E701E404F540800D65
:1008C300120A8460C1EA05402540120353EA783DC9
:1008D300F630E701E4254004D54004200501141255
:1008E3000AA1E4C0E0120B2B783DE6601320E70772
:1008F30014F612072B802204F6D0E014C0E07F0028
:1009030012072BE54060071207221540800B3005C4
:1009130003120722D0E002077CD0E00480C5120A4C
:100923008460A0E54004120353783DEAF6E54020D5
:1009330005026001042404120AA174FF04C0E0123A
:100943000B2B12072BE5402005026003120722D070
:10095300E0B540E87F45120735783DE67F2B30E769
:10096300047F2DF404C0E0120743D0E075F00A843D
:10097300C0F012072CD0E012072C02077C791080FC
:10098300027908C206C2088008D2D5790A800479A0
:100993000AC2D5E540047002F540E4FAFDFEFF12F9
:1009A3000708FC7B08200113120708FD7B103000A9
:1009B3000A120708FE120708FF7B20EC3382D59248
:1009C300D55013C3E43000069FFFE49EFEE42001EC
:1009D300039DFDE49CFCE4CBF8C201EC700CCFCE8C
:1009E300CDCCE824F8F870F38017C3EF33FFEE3370
:1009F300FEED33FDEC33FCEB33FB994002FB0FD8E8
:100A0300E9EB300105F8D0E0C448B201C0E00AECDC
:100A13004D4E4F78207B0070C2EAB5400040BCC009
:100A2300E0120AA3D0F0D0E0200104C4C0E0C4B2B5
:100A330001C0F012072CD0F0D5F0EB02077C1206B0
:100A4300B608195309805807EA4C07E64209844F50
:100A5300098C44098C4907FF4309925508C3460989
:100A63002145088D470B585007EE2D07F22E081528
:100A73002B07F6230813200B412A07AE4800000872
:100A83000DE540B4FF03754006120708FC12070882
:100A9300FD120708FE120708FF7836020382790A5F
:100AA300A2D5200314300509B910020404B90801C2
:100AB30004A2D52006025001042002689202B53F29
:100AC300005034C0E07F203003197F30A202720649
:100AD3007205500F120AFAC202C206C205C2087F8B
:100AE30030800F300503E9C0E0120743300503D01F
:100AF300E0F9D0E0B53FCC3005177F30B9100C12C8
:100B030007437F583004077F788003B9080312072F
:100B1300433002057F2D0207437F202008F87F2BF7
:100B23002006F322920280CF7F00B40700500524F1
:100B330036F8E6FF22286E756C6C2900D201120785
:100B4300083001F8C201783F30D50108F60207AE3C
:100B53002D504349581207082403B405004001E40B
:100B6300900B5393120734743A120734D203753F30
:100B7300040209808F23E47800F2900078E030E0EB
:100B830002D322752AFF752B1D752CF8900074E093
:100B930075F003A42460F582E5F03421F583E49332
:100BA300FB740193FA7402938B2D8A2EF52F7B012C
:100BB3007A02797A120764900278EEF0A3EFF0E5F7
:100BC30023147003020D48147003020D4E147003B6
:100BD300020D4224036003020D59900074E01206D3
:100BE300B60C03000C1B010C33020C42030C510422
:100BF3000C60050C6F080CC8090D280D00000D5979
:100C03001212DC121386752E1F752FEE7530FF75C9
:100C13003120753202020D3D1212DC121386752E3D
:100C230020752F2B7530FF75312075325C020D3D19
:100C33001212DC12135D752E20752F61020D3D1209
:100C430012DC12135D752E20752F9A020D3D1212C0
:100C5300DC12135D752E20752F9D020D3D1212DCE3
:100C630012135D752E20752FA0020D3D900077E0C5
:100C7300146020146029243A603124C86003020DF3
:100C8300591212DC752AFF752B1E752C0B121315C6
:100C9300020D3D1212DC12130C1213B8020D3D1299
:100CA30012DC12130C1213C2020D3D1212DC752A50
:100CB300FF752B1E752C571213157533FF753420D2
:100CC3007535CF8075900076E01460281460382461
:100CD30002704A1212DCC003752AFF752B1E752C95
:100CE3007D900277E0244DF52E900276E0340012D9
:100CF300133C80241212DCC0031213CC9020CD12BB
:100D030013281213B880111212DCC0031213CC90F3
:100D130020CE1213281213C2D00312076490007559
:100D2300E004F080311212DC121386752E1F752F2A
:100D3300D87530FF75311F7532E5120764801712BD
:100D430012ED743DF01212ED743FF01212ED740DBA
:100D5300F01212EDE4F0752A01752B02752C7A7BE3
:100D6300FF7A1F792512076A7B017A02797AE4FDFB
:100D7300121A11900078E04401F01212B7FF9000AC
:100D83007912069AC3227E007F127D007B017A00CE
:100D930079701206DCE490046EF0A3F0900278F010
:100DA300A3F0900276F0A3F0740E120F721212B732
:100DB30012135612134D70171216B21212A91213F0
:100DC3006A7BD07A071212D650E912130480D97BBA
:100DD300FF7A1C79B312076A740D120F5E1212B7F1
:100DE30012135612134D70171216B21212A91213C0
:100DF3006A7BD07A071212D650E912130480D97B8A
:100E0300FF7A1C79CE12076AE4900074F0FF120B8C
:100E1300771212B712135612134D70101216B21224
:100E230012A91212C550F012130480DC7BFF7A1C46
:100E330079ED12076A7401120F5E1212B71213567C
:100E430012134D70101216B21212A91212C550F0DD
:100E530012130480E07BFF7A1D790E12076A740275
:100E6300120F681212B712135612134D7010121686
:100E7300B21212A91212C550F012130480E07BFFC4
:100E83007A1D792F12076A7403120F681212B712B0
:100E9300135612134D70101216B21212A91212C564
:100EA30050F012130480E07BFF7A1D795312076A16
:100EB30074041213B1120B771212B71213561213D2
:100EC3004D70101216B21212A91212C550F012135D
:100ED3000480DD7BFF7A1D797512076A740512138E
:100EE300B1120B771212B712135612134D70101260
:100EF30016B21212A91212C550F012130480DD7B30
:100F0300FF7A1D799F12076A7406120F721212B7C5
:100F130012135612134D70101216B21212A9121296
:100F2300C550F012130480E07BFF7A1D79C51207C8
:100F33006A1213A4120B771212B712135612134D1F
:100F430070101216B21212A91212C550F012130425
:100F530080DF7BFF7A1D79E402076A900074F0E476
:100F6300FF120B7722900074F0E4FF120B772290AC
:100F73000074F07F02120B7722752A01752B00751E
:100F83002C827BFF7A1F795D12076A752AFF752B06
:100F93001F752C74752D00752E0512111670030222
:100FA30010D5752AFF752B1F752C7A752D00752E9C
:100FB30002121116703B900074E0FF640670030286
:100FC30010D5EF640970030210D5EF6407700302B4
:100FD30010D5EF640D70030210D512130490007442
:100FE300E0640860030210D5900077E0900076F08B
:100FF30022900082E0642B60030210D5752AFF75EE
:101003002B1F752C7DF52D752E08121107700122EB
:10101300752AFF752B1F752C86752D00752E0912E9
:1010230011077074900074E064067016752AFF75DA
:101033002B1F752C901210F370081210D670031228
:101043001304900074E064077031752AFF752B1F39
:10105300752CA0F52D752E097A00798D1211257046
:101063001A752AFF752B1F752C98F52D752E077A87
:101073000079971211257003121304900074E06431
:1010830009704F752AFF752B1F752CAA1210F37068
:10109300411210D6703C8037752AFF752B1F752CB3
:1010A300B2752D00752E067A0079831211307022E5
:1010B300900074E0640D701A752AFF752B1F752C50
:1010C300B9F52D752E0A7A00798A12113070031240
:1010D300130422752AFF752B1F752C98F52D752E79
:1010E300077B017A007995121897EF3395E04F2229
:1010F300F52D752E077B017A00798D121897EF3342
:1011030095E04F227B017A007983121897EF33958C
:10111300E04F227B017A007982121897EF3395E032
:101123004F227B01121897EF3395E04F227B011278
:101133001897EF3395E04F22780474FFF20874C9CF
:10114300F2C3E494C9FEE494FF18F208CEF2121A33
:101153005204121A788005C333CE33CED8F97905F9
:10116300F3EE19F3121AEF5001227FCC121B537FB7
:10117300BE121B531219D77801EFF21219D7780058
:10118300EFF27802E4F208EFF2E27F0018F2FE08D1
:10119300EFF27801E2FDEE08F2ED08F2121A52FFC7
:1011A300C374039F121A788005CEC313CE13D8F9E4
:1011B300FF7802EEF208EFF2EE30E43118E2FE08B7
:1011C300E2FFEE30E327EFF4FFEEF418F208EFF25C
:1011D300E22401F218E23400F2E2FE08E2FFC378EF
:1011E30005E29F7903F318E29E19F380107804E275
:1011F300FE08E2FF7803E22FF218E23EF27802E201
:10120300FE08E2FF900858E0FCA3E0FDEC540FFA5F
:10121300EF6D7002EE6A70030212A7EE540FFEEC3C
:1012230054F04EFE900858EEF0A3EFF090007DE0EE
:101233004404F0121A67135401701590085EE0FC21
:10124300A3D3121A5F5009EF4408121A6F4408F02F
:10125300121A6713540164017014900860121A592A
:10126300400CEF54F7A3F090007DE04408F0121A0D
:10127300675401701190085A121A594009EF440437
:10128300121A6F4410F0121A67540164017015901A
:10129300085CE0FCA3D3121A5D5009EF54FB121A49
:1012A3006F4410F0C322900863E0F8A3E0F9A3E0D1
:1012B300FAA3E0FB900070E0FCA3E0FDA3E0FEA333
:1012C300E022C39BFFEE9A7BDC7A05FEED99FDECF1
:1012D30098FCE4F9F8D3020666900278E0FEA3E0F6
:1012E300247AF974023EFA7B0122900278E475F0C5
:1012F30001120642FE747A25F0F58274023EF583EC
:1013030022900078E054FEF022752AFF752B1E759B
:101313002C34752DFF752E1F752FCC7530FF75314D
:101323001F7532C422E4932445FFE433FE90027711
:10133300E02FF52E900276E03EF52D900075E0F556
:101343002F8B3075310075320C22900078E05401F8
:10135300640122FF90086302069A752AFF752B1E0B
:10136300752C06752DFF22C39BFFEE9AFEED99FDAA
:10137300EC98FCE42274702524F58274043523F57B
:1013830083E022752AFF752B1D752CFE752DFF2218
:10139300752AFF752B1F752C51900862E0FF1313FC
:1013A300229000747408F0E4900077F0FF2290001C
:1013B30074F0E4FF227533FF7534207535A422756C
:1013C30033FF7534207535B822752AFF752B1E75CA
:1013D3002CD4227E007F0B7D007B017A0879581282
:1013E30006DC121AEF50097BFF7A21798D0214F281
:1013F3007FCC121B537FBE121B531219D71219D75E
:101403001219D78F221219D78F231219D7EFC413AA
:101413005403FF900862E054FC4FF0540304FF7E32
:10142300007455A807088005C333CE33CED8F9908E
:10143300085A121A4AFF7E007401A807088005C3E0
:1014430033CE33CED8F9FFC3ED9FFFEC9E90085CFB
:10145300F0A3EFF0121A5204FF7E00744DA80708A0
:101463008005C333CE33CED8F990085E121A4AFFF3
:101473007E007401A807088005C333CE33CED8F9A4
:101483002DFFEE3C900860F0A3EFF0121BB9121A87
:101493005214600F14601114601324037012121C91
:1014A3001F800D121C2C8008121C108003121C3983
:1014B30012113B7BFF7A2179B812076A7BFF7A21ED
:1014C30079CE85222A85232B121A52F52C90085A9D
:1014D300E0F52DA3E0F52EA3E0F52FA3E0F530A36F
:1014E300E0F531A3E0F532A3E0F533A3E0F53412E0
:1014F300076A228F22900078E030E002D322E522AF
:101503007057900076E0600CA3E060061213A412FB
:101513000B77D322752AFF752B1F752C399008582A
:10152300E0540FFCA3E0FDE4120299900862E0543A
:101533000375F004A42422F582E5F03422F5831226
:10154300068A12018EE4FBFA795C78C212009D8F41
:10155300308E2F8D2E8C2D805F900076E06522607B
:101563003D9000747408F0900077E522F0E4FF12D8
:101573000B771212B7FF90086312069A900076E079
:101583006522601A1216B29008631212AC12136A23
:101593007B2C7A011212D650E312130480C3E52286
:1015A30024FE600D047022121393135401F52D8051
:1015B300071213935401F52D7B017A00790C12075E
:1015C30064900276EEF0A3EFF09000747409F0E4F7
:1015D300FF120B77C3221216B290007DE0C413549E
:1015E300017028A31212ACC39BFFEE9A7BE87A0327
:1015F3001212CE5016121BB9401190007DE0442008
:10160300F01212B7FF90007E12069A90007DE0134D
:10161300131354016401700E7F011214F6400790F6
:10162300007DE054F7F090007DE0C4540164017044
:101633000E7F021214F6400790007DE054EFF09005
:10164300007DE0131354016401700DFF1214F64082
:101653000790007DE054FBF090007DE0C41354013B
:101663006401704AA31212ACC39BFBEE9AFAED9984
:10167300F9EC98F8900862E0540375F002A4241A78
:10168300F582E5F03422F583E493FE740193FFE4DD
:10169300FCFDC3120666401612113B401190007DFB
:1016A300E054DFF01212B7FF90007E12069A227800
:1016B30008E2F52308E2F524780AE2F52508E2F5C5
:1016C30026E52465267004E5236525700302176962
:1016D300E50814600E047064121378640A705D05E3
:1016E300088059121378640D7036C390046FE09428
:1016F3000290046EE094004018E475F00112064273
:10170300FE748225F0F58274003EF583E4F0120F37
:101713007CE4F50890046EF0A3F0900082F0801C46
:10172300121378FF90046EE475F001120642FC7404
:101733008225F0F58274003CF583EFF0E524240163
:10174300FFE43523FEBE030ABFE807E4F523F524CF
:1017530080080524E524700205237808E523F208B0
:10176300E524F20216C422C0E0C0F0C083C0826345
:10177300A201C083C082C0D075D000C000C002C027
:1017830003C004C005C006C007E58430E055538498
:10179300FED291780BE22401FB18E23400FA7C03B9
:1017A3007DE8AF03FE1205ED7809E2B5050918E2FD
:1017B300B50404C2918031780AE2FE08E22470F590
:1017C3008274043EF583E585F0BA030ABBE8071883
:1017D300E4F208F28012780BE22401F218E23400FA
:1017E300F280055384FDC20AD007D006D005D00489
:1017F300D003D002D000D0D0D082D08363A201D056
:1018030082D083D0F0D0E032787FE4F6D8FD7581C2
:1018130042021852020003E493A3F8E493A34003A3
:10182300F68001F208DFF48029E493A3F854072437
:101833000CC8C333C4540F4420C8834004F45680F7
:101843000146F6DFE4800B0102040810204080907B
:101853001CAFE47E019360BCA3FF543F30E5095401
:101863001FFEE493A360010ECF54C025E060A8409F
:10187300B8E493A3FAE493A3F8E493A3C8C582C896
:10188300CAC583CAF0A3C8C582C8CAC583CADFE96B
:10189300DEE780BE8B278A288929AB2AAA2BA92CAD
:1018A300120595FEAB27AA28A929120595FF6E708C
:1018B3002BEF600DE52E152E7002152D14452D709E
:1018C300037F002274012529F529E43528F52874BE
:1018D30001252CF52CE4352BF52B80BEAB27AA284C
:1018E300A929120595FDD3EE6480F8ED6480984034
:1018F300037F0122AB2AAA2BA92C120595FFC3ED66
:101903009FFF22C2B2C2017F3812007FC2017F0C47
:1019130012007FC2017F0612007FC2017F01120005
:101923007F7BFF7A22798EE4FF121AB97BFF7A223A
:1019330079967F01121AB97BFF7A22796AC2001263
:101943001A827BFF7A227972D200121A827BFF7A83
:1019530022797802076A8F258E248D238C2230000A
:1019630038E4FFFEFD7C40AB25AA24A923A822125C
:10197300018EE4FBFA798078BF12009D1202D278BF
:1019830000EEF208EFF218E2547FF2E2FE08E2F50D
:10199300AAEE547FF5AB43AB8022121C5C121B8072
:1019A300121BEE121B24121BFFC2007F007E007D60
:1019B300807C3F121959121B9F7BFF7A22793212C6
:1019C300076A120D891213D61219067BFF7A227940
:1019D3004E02076AD2C1121C9CE47806F208F27820
:1019E30006E26408602308E2FFC313F2C2C1121CBB
:1019F300A9D2C1121CA930C1067807E24480F212B1
:101A03001C517806E204F280D67807E2FF228B2489
:101A13008A258926ED6017AF051DEF6029AB2405E4
:101A230026E526AA2570020525121BDD80E9AB24D5
:101A3300AA25A926120595600D0526E5267002053F
:101A430025121BDD80E822FFEEF0FCA3EFF0FD90F2
:101A53000862E0540322E0FCA3C37803E0FDE29DA7
:101A630018E29C22900862E0FF131322900862F0B0
:101A730090007DE022FF18E2FE08E2A80708228B0F
:101A8300228A2389243000047F408002E4FF121C51
:101A930094E4F525AB22AA23A92485258275830026
:101AA3001205AEFF600FE52564286009D20112001C
:101AB3007F052580DF228F228B238A248925121C10
:101AC30083AF22121BCB121C83E4F526E5266408A0
:101AD3006019AB23AA24A9258526827583001205E4
:101AE300AEFFD20112007F052680E122780674142E
:101AF300F2D2C1121C51C2C1121C7AD2C1121C9C57
:101B030030C1077806E214F270F37806E2700B7BBB
:101B1300FF7A22790312076AD322D2C1121C70C33F
:101B230022E47525D07524FFF523F52275984053DB
:101B3300873F438E05E525FFE48FD7AF25AE24AD60
:101B430023AC2278081206778FD6C209438E10225F
:101B53008F24E47806F27806E26408601FC2C1129B
:101B63001CA9E5241392C1121C51D2C1121CA978DD
:101B730006E204F2E524C313F52480DA2253B1FE0E
:101B830053B2FE53B1FD43B2025393FB5394FB5341
:101B930093F743940853B1BF43B24022D2A9D2ACC6
:101BA30053AFFB43AF1053AFBFD2B943B702D2BC5D
:101BB30053B7EFD2AF22121AEF5001227FCC121B80
:101BC300537F44121B53C322530707EF333333545A
:101BD300F8FF430740C20102007F14F9120595FF85
:101BE300200AFDD20A8F85200AFD22438E80538965
:101BF300F0758A9A758CA9C28DD28C22758410C215
:101C03000AE4780AF208F27808F208F2227F127ED8
:101C1300347D2C0000DFFEDEFCDDFA227F7A7E3984
:101C23007D0CDFFEDEFCDDFA227FF87E717D17DF9F
:101C3300FEDEFCDDFA227F8A7ED77D56DFFEDEFCE8
:101C4300DDFA222009FDD2098F992009FD227FB6F2
:101C53007E020000DFFEDEFC2253C1DF53FFAF53E1
:101C6300FFFC227F237E0200DFFEDEFC227FB97EA3
:101C73000400DFFEDEFC227FEC7E0EDFFEDEFC22B4
:101C83007FB77E1DDFFEDEFC22309904C299C209B4
:101C930032430780C20102007F7F470000DFFE223C
:101CA300121C467F01227F0500DFFE22010800008F
:101CB3004C4F47233A436C6F7564496E69742D52D8
:101CC30065626F6F74206F6B0D0A004C4F47233AA8
:101CD300436C6F7564496E69742D57694669436F28
:101CE3006E656374206F6B0D0A004C4F47233A43B4
:101CF3006C6F7564496E69742D4D5154545F5573FF
:101D03006572536574206F6B0D0A004C4F47233A7D
:101D1300436C6F7564496E69742D4D5154545F481B
:101D23006F7374536574206F6B0D0A004C4F472318
:101D33003A436C6F7564496E69742D4D5154545F09
:101D4300436C696E744944536574206F6B0D0A00CC
:101D53004C4F47233A436C6F7564496E69742D4D3C
:101D63005154545F4865617274536574206F6B0DF1
:101D73000A004C4F47233A436C6F7564496E69748C
:101D83002D4D5154545F4175746F5265436F6E65A9
:101D9300637420536574206F6B0D0A004C4F472307
:101DA3003A436C6F7564496E69742D4D5154545F99
:101DB3004175746F5374617274536574206F6B0D46
:101DC3000A004C4F47233A436C6F7564496E69743C
:101DD3002D4D5154545F5374617274206F6B0D0A0F
:101DE300004C4F47233A436C6F7564496E69742006
:101DF3006F6B0D0A0041542B2573003D25732C2571
:101E0300730D003D25730D003D2F7379732F2573DB
:101E13002F25732F7468696E672F6576656E742F2F
:101E230070726F70657274792F706F73742C300DCC
:101E3300003D2F7379732F25732F25732F746869D2
:101E43006E672F6576656E742F25732F706F7374AD
:101E53002C300D003D2F7379732F25732F25732F8E
:101E63007468696E672F736572766963652F25736E
:101E73005F7265706C792C300D003D25750D7B22EA
:101E83006964223A222530336275222C22766572E8
:101E930073696F6E223A22312E30222C22706172C6
:101EA300616D73223A7B25737D2C226D6574686F97
:101EB30064223A227468696E672E6576656E742EA5
:101EC30070726F70657274792E706F7374227D0DEA
:101ED300003D25750D7B226964223A222530336249
:101EE30075222C2276657273696F6E223A22312E27
:101EF30030222C22706172616D73223A7B25737DCF
:101F03002C226D6574686F64223A227468696E6767
:101F13002E6576656E742E25732E706F7374227D15
:101F23000D004C4F47233A436C6F756453656E64E1
:101F33002425730D0A0022576174657254656D7010
:101F430065726174757265223A252E3366002245E7
:101F530072726F72223A256275004C4F473A48619C
:101F63006E646C65526563656976652425730D0A35
:101F7300004552524F52004F4B004D51545452455D
:101F83004356004D5154544556454E5400434F4E0D
:101F93004E45435400535543434553530053554211
:101FA300534352494245005055424C495348005708
:101FB3004556454E540053544154494F4E5F555076
:101FC300004453313842323000613163693934732C
:101FD3003535774F0054502D4C494E4B5F383330D5
:101FE30041007A64777A7879323700445331384242
:101FF300323026613163693934733535774F006286
:102003006231313535663839366664366463633236
:102013003764353531336363646633626461363004
:102023006230373261613800613163693934733545
:1020330035774F2E696F742D61732D6D7174742E06
:10204300636E2D7368616E676861692E616C69796F
:10205300756E63732E636F6D003138383300313220
:10206300333435367C7365637572656D6F64653DB6
:10207300335C2C7369676E6D6574686F643D686D5E
:102083006163736861315C2C74696D657374616D30
:10209300703D3738397C003630004F4E004F46468E
:1020A30000576174657254656D7065726174757201
:1020B300654C6F7700576174657254656D70657216
:1020C30061747572654869676800131400004D51A7
:1020D300545441555448004D515454534F434B00AD
:1020E3004D515454434944004D5154544B4545506C
:1020F300414C495645004D5154545245434F4E4E61
:10210300004D5154544155544F5354415254004D72
:102113005154545354415254004D51545453554205
:10212300004D515454505542004D51545453454E53
:1021330044004D515454554E535542004D5154543F
:10214300535441545553004D515454434C4F5345EC
:1021530000574A4150005245424F4F5400FF20D18F
:10216300FF20DAFF20E3FF20EBFF20F9FF2104FF2C
:102173002112FF211CFF2124FF212CFF2135FF21E8
:102183003FFF214AFF2154FF21594552523A4453FC
:102193003138423230496E6974206661696C207748
:1021A30068656E20445331384232305354496E6966
:1021B30074210D0A004C4F47233A445331384232BD
:1021C30030496E6974206F6B0D0A004C4F473A54C7
:1021D300482D2562752C544C2D2562752C4D6F644A
:1021E300652D2562752C48312D25752C48322D25FA
:1021F300752C4C312D25752C4C322D25750D0A006F
:102203004552523A44533138423230496E69742050
:102213006661696C0D0A00005F00BE017A02F13F3E
:102223000000003E8000003E0000003D8000004CA6
:102233004F47233A496E7465726E616C20496E692B
:10224300742046696E6973680D0A004C4F47233A40
:1022530045787465726E616C20496E6974204669B5
:102263006E6973680D0A004C4344313630320052B4
:1022730065616479004C4F47233A4C43443136300F
:1022830032496E6974206F6B0D0A00100609080845
:0B229300090600000A1F1F0E040000D7
:00000001FF
