:10000000020C9412265312194580FB021315812C01
:0F00100000010E00C10E00309904C299C20B32DC
:1000230080F2005F00BE017A02F13F0000003E80D3
:1000330000003E0000003D800000F0E4FF0213805A
:10004300021692EFB40A07740D120051740A309825
:1000530011A899B8130CC2983098FDA899C298B802
:1000630011F63099FDC299F599221006090808097D
:100073000600000A1F1F0E0400009003E1E0FEA328
:0B008300E024E3F974033EFA7B012245
:100093000217B30203DEE86480F8E933E833601142
:1000A3000460F0ED33EC337009E8FCE9FDEAFEEBA4
:1000B300FF220460DED3EB9FEA9EE99DE8C2E78C52
:1000C300F0C2F795F0400CE8CCF8E9CDF9EACEFAA6
:1000D300EBCFFB1203A985D0F05804700320D5B3EE
:1000E300E80470075002B2D50203E892D5EC04602D
:1000F300F7E4CCC0E0C398F8603B94186008400D67
:10010300D0E0FB0203C0E4FBFAC9FC8028E830E43A
:1001130006E4C9FBE4CAFCE830E305E4C9CACBFC46
:10012300E854076010F8C3E913F9EA13FAEB13FB79
:10013300EC13FCD8F130F52FC3E49CFCEF9BFFEEEE
:100143009AFEED99FDD0E0FBEF4E4D4C701222DB91
:10015300030203E5EC2CFCEF33FFEE33FEED33FD3E
:10016300ED30E7EB0203C0EF2BFFEE3AFEED39FD76
:10017300D0E0FB50130BBB00030203E8ED13FDEECD
:1001830013FEEF13FFEC13FC0203C0EC4D6011E808
:10019300497017ED33EC3304600DE4FCFFFEFD22E0
:1001A300E933E8330470F80203DE1203A95804604C
:1001B30009E4CC248150062850090203E8284003AF
:1001C3000203E5C0E0EB4A7044B98006D0E0FB02CD
:1001D30003D4EF4E701CBD8008EBFFEAFEE9FD80FF
:1001E300EBE98DF0A4FEE5F0020277E9CDF9EAFE32
:1001F300EBFFEF89F0A4FCE5F0CE89F0A42EFFE439
:1002030035F0CD89F0A42DFEE435F08067EF4E7014
:1002130005BD80D780C3EF8BF0A4ACF0EE8BF0A4C8
:100223002CFCE435F0F8EF8AF0A42CE5F038FCE47C
:1002330033CB8DF0A42CFCE5F03BF8EE8AF0A42C34
:10024300FCE5F038F8E433CF89F0A42CFCE5F03872
:10025300CF3400CE89F0A42FFFE5F03EFEE433C98E
:100263008DF0A42EFEE5F039CD8AF0A42FFFE5F042
:100273003EFEE43DFD33D0E0FB50070BBB000F0215
:1002830003E8EC2CFCEF33FFEE33FEED33FD02030A
:10029300C00203E8EC5D046005E85904700302033F
:1002A300DE1203A9580460F6EC4860F2EC7004FD1A
:1002B300FEFF22C860DB2481C85009C39860025046
:1002C300060203E59850CAF582E9294B4A7005AB4B
:1002D300820203D475F0007C1A7880C3EF9BEE9AF8
:1002E300ED99400DC3EF9BFFEE9AFEED99FDE842B9
:1002F300F0DC23ACF0D0E0FFD0E0FED0E0FDAB8239
:1003030020E7101BEB60BAEC2CFCEF33FFEE33FE5F
:10031300ED33FD0203C0E803F830E705C0F075F0E4
:1003230000EF2FFFEE33FEED33FD40B830E7C28020
:10033300AA75F020800E75F010800575F0087D0019
:100343007E007F003392D530D503120652EC334042
:1003530010EF33FFEE33FEED33FDEC33FCD5F0ED60
:1003630022E5F0247EA2D513CC92E7CDCEFF22ED79
:10037300D2E7CD33EC3392D524814006E4FFFEFD72
:10038300FC22FCE4CFCECDCC24E0501174FF80EDF1
:10039300C3CC13CCCD13CDCE13CECF13CF0470F07B
:1003A30030D5DE020652E9D2E7C933E833F892D5F5
:1003B300EDD2E7CD33EC33FC5002B2D522EC30E77B
:1003C300100FBF000C0EBE00080DBD00040BEB6048
:1003D30014A2D5EB13FCED92E7FD2274FFFCFDFEA6
:1003E300FF22E480F8A2D574FF13FC7D80E480EF44
:1003F300F920E72824F950037907E4F42402FB18D1
:10040300DBFDE624FB5014E9600DE4F618E604F680
:10041300B40A08E4F6D9F57401F60A22C2D522ED2E
:1004230033EC3392D5FA602AB4FF33EDC2E77BFF96
:1004330060067A047947E4227A04795020D5047A55
:1004430004794B224E614E002B494E46002D494EF6
:100453004600E47A08F608DAFC7B00740722E8C059
:10046300E0ECC0E0EDC0E0EEC0E0EFC0E0EA75F024
:1004730010A4CAABF075F04DA42BFBE435F0FCEAF5
:100483002410FAEB34C5FBEC34D9FCEDC2E7FF755D
:10049300F056A4F42411C5F0F434C58FF0A42AE572
:1004A300F03BE43CF620E714120555D0E0FFD0E022
:1004B300FED0E0FDD0E0FC1202978014F404120594
:1004C30055D0E0FFD0E0FED0E0FDD0E0FC12018E7D
:1004D300D0E0F8E6FAEDD2E7CD33EC332482FBE447
:1004E300C3CF33CFCE33CECD33CD33DBF37B0775E1
:1004F300F00A846004F6081B0AE5F0F6088FF0742E
:100503000AA4FFACF08EF0740AA42CFEACF05001E8
:100513000C8DF0740AA42CFDE435F0F608DBDE74D0
:1005230007223F8000004120000042C80000447AB7
:100533000000461C400047C35000497424004B1878
:1005430096804CBEBC205A0E1BCA6753C21C749DB6
:10055300C5AEFB60065407601C2323120583EB54CE
:1005630038600912056F12057E12018EECF8EDF961
:10057300EEFAEFCB22EB12057E80F1543803241CF4
:10058300900525FE93FC0EEE93FD0EEE930ECE9397
:10059300FF22BB010689828A83E0225002E722BB45
:1005A300FE02E32289828A83E49322BB010CE58263
:1005B30029F582E5833AF583E0225006E92582F89E
:1005C300E622BBFE06E92582F8E222E58229F582CE
:1005D300E5833AF583E49322BB010689828A83F09B
:1005E300225002F722BBFE01F322A3F8E0C5F02557
:1005F300F0F0E582158270021583E0C838F0E82236
:10060300E88FF0A4CC8BF0A42CFCE98EF0A42CFC96
:100613008AF0EDA42CFCEA8EF0A4CDA8F08BF0A414
:100623002DCC3825F0FDE98FF0A42CCD35F0FCEB73
:100633008EF0A4FEA9F0EB8FF0A4CFC5F02ECD3938
:10064300FEE43CFCEAA42DCE35F0FDE43CFC22C3E1
:10065300E49FFFE49EFEE49DFDE49CFC22EB9FF5FA
:10066300F0EA9E42F0E99D42F0E89C45F022E86002
:100673000FECC313FCED13FDEE13FEEF13FFD8F1E4
:1006830022E493F8740193F9740293FA740393FBCD
:1006930022ECF0A3EDF0A3EEF0A3EFF022A8828505
:1006A30083F0D083D0821206B71206B71206B712B0
:1006B30006B7E473E493A3C583C5F0C583C8C582B5
:1006C300C8F0A3C583C5F0C583C8C582C822FAE6AE
:1006D300FB0808E6F925F0F618E6CA3AF622D083B5
:1006E300D082F8E4937012740193700DA3A393F86E
:1006F300740193F5828883E4737402936860EFA3B3
:10070300A3A380DFEF4E6012EF60010EEDBB010B80
:1007130089828A83F0A3DFFCDEFA2289F05007F78F
:1007230009DFFCA9F022BBFEFCF309DFFCA9F022E0
:10073300E709F608DFFA8046E709F208DFFA803EA8
:1007430088828C83E709F0A3DFFA8032E309F60895
:10075300DFFA8076E309F208DFFA806E88828C8301
:10076300E309F0A3DFFA806289828A83E0A3F608B3
:10077300DFFA805689828A83E0A3F208DFFA804A8F
:1007830080D280FA80C680D4806580F28031801068
:1007930080A680EA809A80A880DA80E280CA8031CD
:1007A30089828A8363A20188828C8363A201E49392
:1007B300A363A201F0A363A201DFF3DEF1800B893F
:1007C300828A83E493A3F608DFF9ECFAA9F0EDFB40
:1007D3002289828A8363A20188828C8363A201E0D7
:1007E300A363A201F0A363A201DFF4DEF280DB893D
:1007F300828A83E493A3F208DFF980CE88F0EF6066
:10080300010E4E60C588F0ED2402B4040050BBF520
:1008130082EB2402B4040050B123234582239007C2
:100823008373E53B2427F8E6053B2278243009024D
:100833007827E475F0011206D10205952002EB7FBB
:100843002ED2028018EF540F2490D43440D4FF30BA
:10085300060BEF24BFB41A0050032461FFE53C608C
:1008630002153C053FE53F7002053E30090D782433
:10087300E475F0011206D1EF0205DB0200467403B2
:10088300D2098003E4C209F53B8B248A258926E437
:10089300F53CF53EF53FE53C60077F20120860809C
:1008A300F5753DFFC203C202C204C205C207C208F6
:1008B300C20A12082EFF700D3009057F001208715D
:1008C300AF3FAE3E22B4255FC2D5C20612082EFF4B
:1008D30024D0B40A00501A75F00A783C30D50508C4
:1008E300B6FF0106C6A426F620D5047002D2058001
:1008F300D924CFB41A00EF5004C2E5D206020B5E2E
:10090300D20380C6D20280C0D20480BCD2D580BAC2
:10091300D20780B47F201208602004077401B53C1D
:100923000040F1120825FF120860020899D20AD28A
:10093300088095120825FB120825FA120825F94AA2
:100943004B700679557A0C7BFF20042EE53C602A18
:100953007E008E827583001205AE60060EEE653D45
:1009630070F0C2D5EBC0E0EAC0E0E9C0E0EE120BE4
:10097300BED0E0F9D0E0FAD0E0FB120595FF60AA03
:10098300EBC0E0EAC0E0E9C0E0120860D0E0240177
:10099300F9D0E03400FAD0E0FBE53D0460DCD53D5E
:1009A300D98087D20480A2120BA160F7E53D7001C4
:1009B300041203F3A93D600DE53D600914F53D12F2
:1009C3000C48EF60F3EA30E702F404C3995077EA86
:1009D300F4253D0430E701E404F53D800D120BA13D
:1009E30060C1EA053D253D1203F3EA783AF630E7A4
:1009F30001E4253D04D53D0420070114120BBEE498
:100A0300C0E0120C48783AE6601320E70714F612A8
:100A13000848802204F6D0E014C0E07F00120848A2
:100A2300E53D600712083F153D800B3007031208B0
:100A33003FD0E0020899D0E00480C5120BA160A06A
:100A4300E53D041203F3783AEAF6E53D2007026038
:100A530001042404120BBE74FF04C0E0120C4812FC
:100A63000848E53D200702600312083FD0E0B53D8A
:100A7300E87F45120852783AE67F2B30E7047F2D52
:100A8300F404C0E0120860D0E075F00A84C0F012EC
:100A93000849D0E0120849020899791080027908C0
:100AA300C208C20A8008D2D5790A8004790AC2D55D
:100AB300E53D047002F53DE4FAFDFEFF120825FC56
:100AC3007B08200313120825FD7B1030020A12084D
:100AD30025FE120825FF7B20EC3382D592D55013D7
:100AE300C3E43002069FFFE49EFEE42003039DFD62
:100AF300E49CFCE4CBF8C203EC700CCFCECDCCE885
:100B030024F8F870F38017C3EF33FFEE33FEED33B1
:100B1300FDEC33FCEB33FB994002FB0FD8E9EB30E0
:100B23000305F8D0E0C448B203C0E00AEC4D4E4FD1
:100B330078207B0070C2EAB53D0040BCC0E0120BD8
:100B4300C0D0F0D0E0200304C4C0E0C4B203C0F0BE
:100B5300120849D0F0D5F0EB0208991206E10936E4
:100B6300530A9D5809074C0903420AA14F0AA94495
:100B73000AA949091C430AAF5509E0460A3E45093B
:100B8300AA470C7550090B2D090F2E09322B091397
:100B9300230930200C5E2A08CB480000092AE53DD2
:100BA300B4FF03753D06120825FC120825FD120843
:100BB30025FE120825FF7833020422790AA2D520E4
:100BC3000514300709B910020404B9080104A2D5B9
:100BD3002008025001042004689204B53C005034FC
:100BE300C0E07F203005197F30A2047208720750DD
:100BF3000F120C17C204C208C207C20A7F30800F4B
:100C0300300703E9C0E0120860300703D0E0F9D0F1
:100C1300E0B53CCC3007177F30B9100C1208607F69
:100C2300583006077F788003B90803120860300440
:100C3300057F2D0208607F20200AF87F2B2008F310
:100C430022920480CF7F00B4070050052433F8E6D6
:100C5300FF22286E756C6C2900D20312082530031D
:100C6300F8C203783C30D50108F60208CB2D504377
:100C730049581208252403B405004001E4900C7080
:100C830093120851743A120851D205753C04020AB2
:100C93009D787FE4F6D8FD75813F020CDB020003EB
:100CA300E493A3F8E493A34003F68001F208DFF48E
:100CB3008029E493A3F85407240CC8C333C4540F06
:100CC3004420C8834004F456800146F6DFE4800BD9
:100CD300010204081020408090000EE47E0193601E
:100CE300BCA3FF543F30E509541FFEE493A3600106
:100CF3000ECF54C025E060A840B8E493A3FAE49370
:100D0300A3F8E493A3C8C582C8CAC583CAF0A3C81D
:100D1300C582C8CAC583CADFE9DEE780BE8B298ADC
:100D23002A892BAB2CAA2DA92E1205956063AB291A
:100D3300AA2AA92B120595605F852C2F852D308556
:100D43002E318B328A338934AB2FAA30A931120565
:100D530095FF6023AB32AA33A9341205956F701740
:100D6300042531F531E43530F53074012534F5349B
:100D7300E43533F53380D1AB2FAA30A93112059571
:100D83007002800D7401252BF52BE4352AF52A809A
:100D93009DAB29AA2AA92B227B007A007900228BFA
:100DA300298A2A892BAB2CAA2DA92E120595FEABD5
:100DB30029AA2AA92B120595FF6E702BEF600DE56A
:100DC3003015307002152F14452F70037F002274E5
:100DD30001252BF52BE4352AF52A7401252EF52E52
:100DE300E4352DF52D80BEAB29AA2AA92B12059532
:100DF300FDD3EE6480F8ED64809840037F0122AB5D
:100E03002CAA2DA92E120595FFC3ED9FFF22415455
:100E13002B2573003D25732C25730D003D25730D84
:100E2300003D2562752C2F7379732F25732F25733E
:100E33002F7468696E672F736572766963652F70A7
:100E4300726F70657274792F7365742C300D003D69
:100E53002562752C2F7379732F25732F25732F74A8
:100E630068696E672F736572766963652F25732CC6
:100E7300300D003D2F7379732F25732F25732F7436
:100E830068696E672F6576656E742F70726F706513
:100E93007274792F706F73742C300D003D2F73793A
:100EA300732F25732F25732F7468696E672F6576EB
:100EB300656E742F25732F706F73742C300D003D86
:100EC3002F7379732F25732F25732F7468696E67BA
:100ED3002F736572766963652F25735F7265706C16
:100EE300792C300D003D25750D7B226964223A2251
:100EF3002530336275222C2276657273696F6E22F8
:100F03003A22312E30222C22706172616D73223AA3
:100F13007B25737D2C226D6574686F64223A22747D
:100F230068696E672E6576656E742E70726F706574
:100F33007274792E706F7374227D0D003D25750DCB
:100F43007B226964223A222530336275222C227671
:100F5300657273696F6E223A22312E30222C227011
:100F63006172616D73223A7B25737D2C226D6574EA
:100F7300686F64223A227468696E672E6576656EBF
:100F8300742E25732E706F7374227D0D003D2575AD
:100F93000D7B226964223A222573222C22636F641B
:100FA30065223A2530366C752C2264617461223ACD
:100FB3007B25737D7D0D000D41540D002248656135
:100FC30064416E676C65223A252E32662C22506985
:100FD300746368416E676C65223A252E32662C2253
:100FE300526F6C6C416E676C65223A252E32660037
:100FF30022576174657254656D70657261747572A0
:1010030065223A252E336600224C454431223A2587
:10101300627500224C454432223A25627500224C07
:10102300454433223A2562750022497353746F7223
:101033006167654C4544223A256275002245727208
:101043006F72223A25627500004552524F52004F8B
:101053004B004D5154545245435600226964223A81
:10106300220022706172616D73223A7B22004C452B
:101073004431004C454432004C45443300497353DA
:10108300746F726167654C4544007D2C22766572EE
:1010930073696F6E223A22312E302E30227D002268
:1010A300706172616D73223A7B0054657874007BC2
:1010B300226F626A656374223A007B224944223AB2
:1010C300004D5154544556454E5400434F4E4E45E2
:1010D30043540053554343455353005355425343DD
:1010E30052494245005055424C49534800434C4FE6
:1010F300534500574556454E540053544154494FA8
:101103004E5F55500020202020202020202020202A
:1011130020202020200044533138423230006131F6
:1011230063693934733535774F0054502D4C494E2C
:101133004B5F38333041007A64777A7879323700FD
:10114300445331384232302661316369393473355F
:1011530035774F006262313135356638393666642A
:1011630036646363323764353531336363646633BE
:1011730062646136306230373261613800613163F5
:10118300693934733535774F2E696F742D61732D3B
:101193006D7174742E636E2D7368616E6768616917
:1011A3002E616C6979756E63732E636F6D003138D0
:1011B3003833003132333435367C73656375726589
:1011C3006D6F64653D335C2C7369676E6D65746820
:1011D3006F643D686D6163736861315C2C74696D24
:1011E300657374616D703D3738397C003630004F5C
:1011F3004E004F464600576174657254656D7065C5
:101203007261747572654C6F7700576174657254BF
:10121300656D7065726174757265486967680013FE
:10122300144C434431363032446973706C61790035
:101233000E47593235436F7272656374696F6E007E
:101243000E4D4355436F6E74726F6C000A4D5154CB
:101253005441555448004D515454534F434B004D42
:10126300515454434944004D5154544B4545504106
:101273004C495645004D5154545245434F4E4E0030
:101283004D5154544155544F5354415254004D51B0
:1012930054545354415254004D51545453554200E5
:1012A3004D515454505542004D51545453454E449E
:1012B300004D515454554E535542004D51545453BF
:1012C3005441545553004D515454434C4F534500CE
:1012D300574A4150005245424F4F5400574A4150DC
:1012E3005100FF1250FF1259FF1262FF126AFF12E0
:1012F30078FF1283FF1291FF129BFF12A3FF12AB21
:10130300FF12B4FF12BEFF12C9FF12D3FF12D8FFA0
:1013130012DFC0E0C0F0C083C08263A201C083C0FB
:1013230082C0D075D000C000C004C005C006C0078D
:10133300716F2401FFE43EFEE43DFDE43CFC9001BB
:1013430059120694D007D006D005D004D000D0D0CF
:10135300D082D08363A201D082D083D0F0D0E03298
:10136300A3E0F8A3E0F9A3E0FAA3E0FB900159E0BE
:10137300FCA3E0FDA3E0FEA3E022F0E4FF8F23E45F
:101383007804F2900170E020E007121FEB64017013
:1013930002D3227527FF75280E75291190015EE08F
:1013A30075F003A424E5F582E5F03412F583E493A4
:1013B300FB740193FA7402938B2A8A2BF52C7B011D
:1013C3007A0379E31208819003E1EEF0A3EFF0E5ED
:1013D30023147002C16E147002C173147002C169C8
:1013E30024036002C17C90015EE01206E114120046
:1013F300142801143E02144B0314580414650514F5
:10140300720714F308157F0916500D0000167C129D
:10141300007DF166752B11752C43752DFF752E110B
:10142300752F57C16412007DF166752B11752C80E1
:10143300752DFF752E11752FB1C16412007DF13921
:10144300752B11752CB6C16412007DF139752B1102
:10145300752CEFC16412007DF139752B11752CF2D7
:10146300C16412007DF139752B11752CF5C164909F
:101473000161E054077002C17C6401701012007DA9
:101483007527FF75280E752924F198C164900161B1
:10149300E0540724FD60161460222402702B7801A7
:1014A30074FFF2087412F2087424F2801C78017439
:1014B300FFF2087412F2087434F2800D780174FF9D
:1014C300F2087412F2087444F212007DC003C002E1
:1014D3007527FF75280E752952F1987801E2FB08EC
:1014E300E2FA08E28B318A32F533D002D003C164C9
:1014F30090016FE0146023146039243A604E146045
:101503005B14606824CA6002C17C12007D7527FFEA
:1015130075280E752976F126C16412007D7527FFA3
:1015230075280E75299FF1267530FF7531117532B7
:10153300F9C16412007D7527FF75280E75299FF187
:10154300267530FF75311275320DC16412007DF1BD
:101553001D7530FF753112753224C16412007DF19F
:101563001D7530FF753112753234C16412007DF17F
:101573001D7530FF753112753244C16490016EE000
:1015830014602F14604A243A24FD506224CB600275
:10159300C13B12007DC0037527FF75280E7529E82E
:1015A3009003E0E0244DF52B9003DFE03400F18756
:1015B300C13612007DC0037527FF75280F75293FBB
:1015C300901222F1737530FF7531117532F9806312
:1015D30012007DC0037527FF75280F75293F9012F0
:1015E30023F1737530FF75311275320D804512008A
:1015F3007DC0037527FF75280F75299090016DE055
:10160300540F2421FFE433FE9003E0E02FF52B90E9
:1016130003DFE03EF52A8B2C752D01752E629001B8
:10162300787172F5328E318D308C2F8B3375340097
:1016330075352DD00312088190016EE0C394C874F0
:10164300809480503490015FE004F0802C12007D80
:10165300F166752B11752C2D752DFF752E11752FB8
:101663003A1208818013F146743DF0F146743FF05D
:10167300F146740DF0F146E4F07B017A0379E3124D
:101683002013122D7F716F122D5154FCF0C322C011
:10169300E0C083C08263A201C083C082C0D075D082
:1016A30000C006C007E59A30E057C200539AFEF126
:1016B3005DFEBE020DBF580AE50945087012D2004F
:1016C300800EEFB50908EEB50804D2008002D2916E
:1016D300300004C291802F743D250BF582740635CA
:1016E3000AF583E59BF0F15DFEBE020BBF5808755A
:1016F3000A00750B00800F050BE50B7002050A80CD
:1017030005539AFDC20CD007D006D0D0D082D08327
:1017130063A201D082D083D0E0327527FF75280EF3
:101723007529C2752AFF752B11752C21752DFF752F
:101733002E11752F19227527FF75280E75291F7510
:101743002AFF229003E1E475F0011205EDFE74E334
:1017530025F0F58274033EF58322E50B2401FFE4B3
:10176300350A227527FF75280E752917752AFF225A
:10177300E4932445FFE433FE9003E0E02FF52B9040
:1017830003DFE03EF52A90015FE0F52C8B2D752EEB
:1017930000752F2D22900161E05407F52A752BFF68
:1017A300752C11752D21752EFF752F11753019228A
:1017B300C0E0C083C08263A201C083C082C0D07571
:1017C300D000C004C006C007E58430E043C2015323
:1017D30084FE12182E7008E50C7014D20180107C60
:1017E30000EFB50C08ECB50604D2018002D28730B5
:1017F3000104C287801F7495250DF582E43408F532
:1018030083E585F0112E7004F50D8009050D800523
:101813005384FDC20DD007D006D004D0D0D082D0DF
:101823008363A201D082D083D0E032E50D2401FF8F
:10183300E433FEEF64204E22AD0CAC0DED6C700270
:10184300212E782CE2B408005071901854F82828FF
:101853007302186C0218740218740218870218872E
:1018630002189A02189A0218B3313164AA704C8094
:10187300459008B6E0F8E4F0E89008B53130FF9001
:1018830008B580249008B8E0F8E4F0E89008B73190
:1018930030FF9008B780119008BAE0F8E4F0E890C0
:1018A30008B93130FF9008B9E0F0A3E04FF08006AB
:1018B300313164557005782CE204F2ED1130700378
:1018C300FD80010D8D0C782CE264086002013FC29B
:1018D30002F25384EF9008B5E0FEA3E0FF9008BB4B
:1018E300E06E7003A3E06F60059008BB313D900884
:1018F300B7E0FEA3E0FF9008BDE06E7003A3E06FC6
:1019030060059008BD313D9008B9E0FEA3E0FF906B
:1019130008BFE06E7003A3E06F60059008BF313D20
:10192300300206122ADA4402F0C322D322F074955D
:101933002DF582E43408F583E022EEF0A3EFF0D234
:101943000222F1EB600221E991F07F061220379029
:101953000177E054016401700D7F0151EF4007905E
:101963000177E054FEF0900177E0C3135401640162
:10197300700D7F0251EF4007900177E054FDF09026
:101983000175E0C454016401701BFF51EF401690D0
:101993000175E054EFF07E007F017D007B017A0149
:1019A3007976120707900177E0F151700D7FC851E6
:1019B300EF4007900177E054FBF0900177F14F700F
:1019C3000D7FC951EF4007900177E054F7F0900184
:1019D30077E0C454016401700D7FCA51EF40079052
:1019E3000177E054EFF0900186E0FF540164016059
:1019F30009EFC313540164017033F10C7012200E0C
:101A03000F90015E740CF07F021213804002D20E1D
:101A1300F1EB64017017900186E054FEF0E0FFC320
:101A23001354016401700653C7BF43C7209001815B
:101A3300E0540164017040121363C39BFBEE9AFAF6
:101A4300ED99F9EC98F8F17975F002A42425F58263
:101A5300E5F03400F583E493FE740193FFE4FCFDA9
:101A6300C31206604011122928400C900181E054F2
:101A7300FEF012136FF1F290017CE05401640170E7
:101A830015113B401190017CE054FEF012136FFFDF
:101A930090017D120694900181E054017024121389
:101AA30063122646E47BF47A01F9F8D312066050F8
:101AB30011122C55400C900181E04401F012136F78
:101AC300F1F290017CE05401702112136312264657
:101AD300E47BE87A03F9F8D3120660500E7F5112C3
:101AE30025FA400790017CE04401F0228F22900107
:101AF30070E020E006F1EB64017002D322E522607E
:101B030002815F90016EE06008A3E06002F1F9D307
:101B130022E49003DFF0A3F0900176E0FFC31354B7
:101B2300016401703F7527FF75280F7529BF900861
:101B3300BB122D32120297122D669008BD122D3260
:101B43001202978F318E308D2F8C2E9008BF122D5D
:101B5300321202978F358E348D338C327B017A00AB
:101B6300792DF125900176E05401640170649003AE
:101B7300DFE07002A3E06002F1359003DFE0FEA333
:101B8300E0242DF974003EFA7B01C003C002C001BA
:101B93007527FF75280F7529F39008C1E0540FFCD2
:101BA300A3E0FDE4120339F17975F004A4242DF5C3
:101BB30082E5F03400F58312068412018EE4FBFA09
:101BC300795C78C212009D122D66D001D002D00339
:101BD300F125900176E0F15170189003DFE0700277
:101BE300A3E06002F1357F01F18F75281075290B91
:101BF300F125900176F14F70189003DFE07002A396
:101C0300E06002F1357F02F18F752810752916F116
:101C130025900176E0C45401640170189003DFE05D
:101C23007002A3E06002F1357F03F18F7528107510
:101C33002921F125900176E0C41354016401600267
:101C430081E69003DFE07002A3E06002F1357F04D8
:101C5300F18F75281075292CF12581E690016EE02E
:101C630065226042900175E0131354037800F290EB
:101C7300015E7408F090016FE52212003DF10C64DF
:101C830001702391F07F051220377800E22401FFD1
:101C9300E433FE900175E0131354037C00B507DDB4
:101CA300ECB506D9D322E52224FE6011243A24FDA3
:101CB300501724CA702D122D43FF138004122D4395
:101CC300FF13135401F52A80097527FF7528107532
:101CD300294B7B017A00792D1208819003DFEEF006
:101CE300A3EFF090015E740912137DC322850825CA
:101CF300850926850A27850B28E52665287004E5CE
:101D03002565277002A18BE50E14600F047053F153
:101D130065E0640A704C750E018047F165E0640D5F
:101D2300702DC390063CE0940290063BE094004083
:101D33000F122D78FE122D6F3EF583E4F012213140
:101D4300E4F50E90063BF0A3F0900187F08013F1C9
:101D530065E0FF90063B122D78FC122D6F3CF58356
:101D6300EFF0E5262401FFE43525FEBE020ABF5845
:101D730007E4F525F52680080526E52670020525E6
:101D830085250885260981FC227E007F2E7D007B28
:101D9300017A017959120707E490063BF0A3F0900A
:101DA30003E1F0A3F09003DFF0A3F090015E740E63
:101DB300F07F02121380F10C6401700A91F07F141A
:101DC300F11770F2E10890015E740FF07F021213B5
:101DD30080F10C6401700A91F07F1EF11770F2E13B
:101DE3000890015E740D12137DF10C6401700A9169
:101DF300F07F96F11770F2E108E490015EF0FF12B4
:101E03001380F10C64017006F11370F6E108900180
:101E13005E740112003DF10C64017006F11370F65B
:101E2300E10890015E740212003DF10C640170063A
:101E3300F11370F6E10890015E740312003DF10C9A
:101E430064017006F11370F6E10890015E740412E8
:101E5300003DF10C64017006F11370F6E108900186
:101E63005E740512003DF10C64017006F11370F607
:101E7300E10890015E7406F07F02121380F10C6496
:101E830001700A91F07F28F11770F28078F1845481
:101E9300F8440112003DF10C64017006F11370F671
:101EA3008063F158ED4402F18054F8440212003D7E
:101EB300F10C64017006F11370F68049F158ED449A
:101EC30004F18054F8440312003DF10C64017006E0
:101ED300F11370F6802FF158ED4408F18054F84463
:101EE3000412003DF10C64017006F11370F68015C5
:101EF300F158ED4410543F4FF0F1F9F10C640170C7
:101F030007F11370F612263E22900170E05401226D
:101F130091F07F16122037900175E0131354036478
:101F230001221208819003E0E02FF09003DFE03EEE
:101F3300F0229003DFE475F0011205EDFE742D2508
:101F4300F0F58274003EF583742CF022E013131332
:101F53005401640122900160E0FF543FFDEF54C03F
:101F6300FF22743D2526F58274063525F58322EE7E
:101F7300F0FCA3EFF0FD9008CBE0540322543F4F55
:101F8300F090015E7407F0900161E022F1A78F2ABF
:101F93009003DFE0FEA3E0242DF974003EFA7B01F9
:101FA3007527FF22EF24FE601614601F1460282497
:101FB30003702FA2C24003D38001C392028023A2E5
:101FC300C34003D38001C392028017A2C44003D34A
:101FD3008001C39202800B122C3C6455C37001D361
:101FE3009202A202E433FF2290015DE0540122FF3A
:101FF30090018202069490015E7408F0E490016FF0
:10200300F0FF021380200CFDD20C8F9B200CFD22CD
:102013008B258A268927AB25AA26A9271205956031
:10202300120527E5277002052614F9120595FF11FD
:102033000880E322E4FCFDFE9008CC12069490088D
:10204300CC121372FFE47B64FAF9F81206039008CA
:10205300CC120694121F0C70022128121FEB64018C
:1020630070022128900171121364D1469008CCE0CC
:10207300F8A3E0F9A3E0FAA3E0FBD3120660400261
:102083002128900175E05403640260022110312974
:10209300900175E0FF1313543FFEEF54F3FFEE047A
:1020A3005403FE25E025E04FF0E0FF1313540364CF
:1020B30003707290015E74FFF0FB7A0F79BA11130B
:1020C300900159A3A3E0FEA3E08E23F524122D7FF4
:1020D300121F0C6401702F121CF0AE23AF24AB0748
:1020E300AA0612136FC39BFFEE9AFEED9400FDEC5C
:1020F3009400FCE47BAC7A0DF9F8D312066050D05F
:10210300D13E53AFFE2253C7BF43C720227B017A80
:102113000379E3111312136F122D51FF54FCFEEFD9
:102123000454034EF022900170E054FEF022752C0B
:10213300FF752D10752E4C752F007530057B017AB8
:10214300017987B1A97002A191752CFF752D1075C6
:102153002E52752F007530027B017A017987B1A960
:10216300703C90015EE0FF64067002A191EF640988
:102173007002A191EF64077002A191EF640D7002E8
:10218300A191EF640C7002A191312990015EE0648A
:10219300086002A19190016FE090016EF02290011E
:1021A30087E0642B6002A191752CFF752D10752EAD
:1021B30055F52F7530087B017A017988B1A9600242
:1021C30081837B017A017997782804B1E0E408F2EE
:1021D300752CFF752D10752E5EB1B2B19212059557
:1021E300642260197828B1E8FF782BE2FE04F274C8
:1021F300622EF582E43401F583EFF080DE782BE282
:10220300540FFF90016DE054F04FF0900191E024E2
:10221300CE700241ED147002810E147002814724C6
:10222300036002A191752CFF752D10752E65B19277
:10223300B1DAE2240BB1C2E47811F2B1921205953E
:102243006422601A7811E2640F60137828B1E8FF02
:102253007811E2FE04F274012EF8EFF280DD7811BA
:10226300E22401F8E4F2782AE22402B1C2752CFFD9
:10227300752D10752E71B19D7010B1921205957D5B
:1022830001B431027D007F01805D752CFF752D1037
:10229300752E76B19D7010B1921205957D01B43102
:1022A300027D007F028040752CFF752D10752E7BFB
:1022B300B19D7010B1921205957D01B431027D007C
:1022C3007F038023752CFF752D10752E80752F00CD
:1022D30075300CB1A36002A191B1921205957D00F6
:1022E300B431027D017F04022AE4752CFF752D10A1
:1022F300752E8DB192120D207813B1DF087C007D0D
:10230300FE7BFF7A1179087E007F111207FFE478C4
:1023130027F2752CFF752D10752EA208B194B1DA32
:10232300E2240A61D87813B194C0038A838982B105
:1023330092D0E06B7008E965827003EA65837002EE
:1023430061DC782AE22401B1C2752CFF752D10756A
:102353002EAD752F0075300418B194B1A970527861
:1023630012F2782AE22407B1C2B192120595FF64F2
:102373002260257812E26410601EEFB45C07782AAD
:10238300E22401B1C27828B1E8FF7812E2FE04F238
:1023930074162EF8EFF280D1B19212059564226083
:1023A30007E22401B1C280F0782AE22401B1C2809D
:1023B30010782AE22408B1C218B1E824D024FF928D
:1023C300027827E204F208B194120595642C6002A6
:1023D3006128E22401B1C261287827E264027019FE
:1023E3007BFE7A007916A2029203122CDF90017809
:1023F3001206A0000000C8800A9001781206A0000F
:102403000001CC900177E04404F022752CFF752D78
:1024130010752EB2B192B1DAE2240AB1C218B194A6
:1024230012059524CE60070470087F5480027F55FF
:10243300B1FA9001781206A0000000C8900177E07D
:102443004408F022752CFF752D10752EBDB192B185
:10245300B218B19412059524CF600C04701090014A
:1024630086E04401F08007900186E04402F0900189
:10247300781206A0000000C8900177E04410F02213
:10248300752CFF752D10752EC4752F007530097BC3
:10249300017A017988B1A96002A15690015EE064D6
:1024A30006701F752CFF752D10752ECEB1D27A01D3
:1024B3007992B1A9700CB1C97A01799AB1A9700264
:1024C300312990015EE064077034752CFF752D107F
:1024D300752EDEF52F7530097B017A017994B1A948
:1024E300701CB1C97A01799EB1A97012900192E072
:1024F30024D0FF900161E05407B507023129900110
:102503005EE06409701F752CFF752D10752EE8B100
:10251300D27A017992B1A9700CB1C97A01799AB1D1
:10252300A97002312990015EE0640C7061752CFF83
:10253300752D10752EF0F52F7530057B017A017915
:1025430092B1A97049B1C97A017998B1A9703F31A3
:1025530029C13E752CFF752D10752EF6752F00754C
:1025630030067B017A017988B1A9702290015EE07F
:10257300640D701A752CFF752D10752EFDF52F75D2
:10258300300A7B017A01798FB1A97002312922784F
:1025930028E2FB08E2FA08E2F922752F00753004FD
:1025A3007BFE7A007901120DA2EF3395E04F2212E0
:1025B3000D207828EBF208EAF208E9F2E22406F2A9
:1025C30018E23400F222752CFF752D10752ED6F506
:1025D3002F7530077B0122120D207828EBF208EAD1
:1025E300F208E9F222E2FB0808E2F92401F218E218
:1025F300FA3400F20205958F297FA5D109AF29D1BD
:1026030009438410C322200DFDD20D8F85200DFDBB
:10261300227E007F067DFF7B017A0879BB120707C4
:102623005384EF43AF107F55B1FA7F54B1FA7F5112
:10263300B1FA43841012183B40FB2290015DE04441
:1026430001F022C39BFFEE9AFEED99FDEC98FC226C
:10265300F1F812280212282712283812286FC20212
:102663007F007E007D807C3F1228951228D9121DA1
:102673008CD1EBD114122C0DC2B2C2047F38D1D845
:10268300C2047F0CD1D8C2047F06D1D8C2047F0113
:10269300D1D87BFF7A00796DE4FFD1A77BFF7A0065
:1026A30079757F018F228B238A248925122CA0AF71
:1026B30022122D20122CA0E4F526E52664086014CE
:1026C300AB23AA24A925852682122D18D204D1D89A
:1026D300052680E6228F2D122C8CA20492B5C2B45B
:1026E300852DA0D2B2C2B2227E007F0B7D007B017A
:1026F3007A0879C112070712290040FBF1B0F1BA39
:10270300F1BA8F22F1BA8F23F1BAEFC4135403FF46
:102713009008CBE054FC4FF0540304FF7E00745543
:10272300A807088005C333CE33CED8F9FF9008C37A
:10273300121F72122D5D8005C333CE33CED8F9FF3D
:10274300C3ED9FFFEC9E9008C5F0A3EFF0121F7935
:1027530004FF7E00744DA807088005C333CE33CE33
:10276300D8F9FF9008C7121F72122D5D8005C3337D
:10277300CE33CED8F92DFFEE3C9008C9F0A3EFF08D
:10278300122C5540FB121F7914600F146011146052
:102793001324037012122CA9800D122CB680081278
:1027A3002CC38003122CD212292840FB227FCC1287
:1027B3002A877FBE122A87D2C11228F9E47806F24B
:1027C30008F27806E26408602108E2FFC313F2C24C
:1027D300C1F1F2D2C1F1F230C1067807E24480F2CE
:1027E300122C647806E204F280D87807E2FF227F95
:1027F3000500DFFE2253C1DF53FFAF53FFFC22531B
:10280300B1FE53B2FE53B1FD43B2025391FE539254
:10281300FE5391FD4392025393FB5394FB5393F75F
:1028230043940822438E805389F0758A9A758CA944
:10283300C28DD28C22E47525D07524FFF523F522B1
:10284300438E04E525FFE48FD711628FD6759A1066
:10285300C20CE4F50AF50BF508F509438E1022AF17
:1028630025AE24AD23AC227808020671E47525C099
:102873007524FDF523F52243D120E525FFE48FD30D
:1028830011628FD2758450C20DE4F50DF50C43D15E
:1028930080228F258E248D238C22300238E4FFFE84
:1028A300FD7C40AB25AA24A923A82212018EE4FBB8
:1028B300FA798078BF12009D1203727800EEF20855
:1028C300EFF218E2547FF2E2FE08E2F5AAEE547F3B
:1028D300F5AB43AB8022D2A9D2AC43AF0153AFFBDC
:1028E30053AFBFC2B943B702C2BC53B7EF43B5013D
:1028F30043B601D2AF227F470000DFFE2278067481
:1029030014F2D2C19164C2C1916FD2C111F930C125
:10291300077806E214F270F47806E27002D322D24A
:10292300C19178C322780474FFF20874C9F2C3E436
:1029330094C9FEE494FF18F208CEF2121F790451F1
:10294300D1088005C333CE33CED8F97905F3EE1918
:10295300F331005001221227B07801EFF21227BAA7
:102963007800EFF27802E4F208EFF2E27F0018F267
:10297300FE08EFF27801E2FDEE08F2ED08F2121F15
:1029830079FFC374039F51D1088005CEC313CE13BF
:10299300D8F9FF7802EEF208EFF2EE30E42E18E2F7
:1029A300FE08E2FFEE30E324EFF4FFEEF418F20842
:1029B300EFF2E224011225C2E2FE08E2FFC378052A
:1029C300E29F7903F318E29E19F380107804E2FE84
:1029D30008E2FF7803E22FF218E23EF27802E2FE09
:1029E30008E2FF9008C1E0FCA3E0FDEC540FFAEF0E
:1029F3006D7002EE6A70024185EE540FFEEC54F0E6
:102A03004EFE9008C1EEF0A3EFF051DA4401F0510D
:102A1300C913540170189008C7E0FCA3E0FDD3E28A
:102A23009D18E29C5008EF440851B34401F090080C
:102A3300CBE0FF121F5070149008C951BC9C400C8E
:102A4300EF54F7A3F0900177E04401F051C954012A
:102A530070109008C351BC9C4008EF440451B34428
:102A630002F09008CBE0FF121F5170169008C5E0EA
:102A7300FCA3E0FDD351C29C5008EF54FB51B34477
:102A830002F0C3228F24E47806F27806E264086039
:102A93001EC2C11227F2E5241392C19164D2C1125E
:102AA30027F27806E204F2E524C313F52480DB223F
:102AB3009008CBF0900177E022E0FCA3E0FDC3781F
:102AC30003E29D18E2229008CBE0FF131322FF18C4
:102AD300E2FE08E2A80722900175E04410F0A3E0AB
:102AE300228D29EF24FE603D14605E147002617232
:102AF3002403600261ADA2C2E43365296025E529A0
:102B030024FF92C251DA4404913B64557015FFFED1
:102B130071E57D55E4FFFE71C371DA914B71C3AD6D
:102B23002971BFC322A2C3E4336529601AE52924AE
:102B3300FF92C351DA4408913B6455700A71AF9117
:102B43004B71C3AD2971DFC322A2C4E4336529608D
:102B53001CE52924FF92C451DA4410913B6455705B
:102B63000C71AF71DAAD297F037E0071C3C322E418
:102B7300FFFE71FA8F2A7E00EFF47006E5296401E7
:102B8300600AEF64554E7020E529701CE529640145
:102B9300700C7D5571B671DA914B71C38005E4FFFA
:102BA300FE71E551DA4420F0C322D322FFFE71E522
:102BB3007D55E4FFFE71C3A2C2E433FD7F017E00B5
:102BC30075C78275C5028FC48EC38DC275C65A750B
:102BD300C6A500E4F5C722A2C3E433FD7F027E004D
:102BE30080DE75C78275C5038FC48EC375C65A75DB
:102BF300C6A500E4F5C7228F828E83E42582F58281
:102C030074FE3583F583E493FF22913CF47008D27C
:102C1300C2D2C3D2C480127F01914392C27F029178
:102C23004392C37F03914392C451DA4410F04408A2
:102C3300F04404F04420F022F0E4FFFE71FAEF22A6
:102C43007E0071FAEF24FF22A2C4E433FD7F037EEA
:102C5300002231005001227FCC51877F445187C32A
:102C6300227FB67E020000DFFEDEFC227FEC7E0EBA
:102C7300DFFEDEFC227FB97E0400DFFEDEFC227F66
:102C8300237E0200DFFEDEFC22C2B5D2B4D2B2D272
:102C9300A79182A2A79205C2B22005F1227FB77E37
:102CA3001DDFFEDEFC227F7A7E397D0CDFFEDEFC3B
:102CB300DDFA227FF87E717D17DFFEDEFCDDFA226E
:102CC3007F127E347D2C0000DFFEDEFCDDFA227FE6
:102CD3008A7ED77D56DFFEDEFCDDFA228B298A2A27
:102CE300892B3003047F408002E4FFB110E4F52C0C
:102CF300AB29AA2AA92B852C82B118600FE52C6475
:102D0300286009D2041226D8052C80E422430780C8
:102D1300C2040226D87583001205AEFF22530707AB
:102D2300EF33333354F8FF430740C2040226D8E09D
:102D3300FCA3E0FDEC120339E4FBFA79C8784222E4
:102D43007527FF75281075293F9008CBE022FF9067
:102D53000171120694900175E022FF7E007401A8B0
:102D63000708228F2D8E2C8D2B8C2A22748725F019
:102D7300F582740122E475F0010205ED900170E023
:042D83004401F022F5
:00000001FF
