:10000000021C39121F31121A9480FB021E41C2B524
:10001000D2B4D2B2D2A7122200A2A79204C2B220B6
:1000200004F022022226D2A9D2AC53AFFB43AF0187
:10003000C2B943B702C2BC53B7EF43B50143B601DF
:10004000D2AF22021CC50202EEE86480F8E933E870
:100050003360110460F0ED33EC337009E8FCE9FD26
:10006000EAFEEBFF220460DED3EB9FEA9EE99DE807
:10007000C2E78CF0C2F795F0400CE8CCF8E9CDF976
:10008000EACEFAEBCFFB1202B985D0F05804700328
:1000900020D5B3E80470075002B2D50202F892D519
:1000A000EC0460F7E4CCC0E0C398F8603B941860BF
:1000B00008400DD0E0FB0202D0E4FBFAC9FC802826
:1000C000E830E406E4C9FBE4CAFCE830E305E4C92F
:1000D000CACBFCE854076010F8C3E913F9EA13FA35
:1000E000EB13FBEC13FCD8F130F52FC3E49CFCEFD1
:1000F0009BFFEE9AFEED99FDD0E0FBEF4E4D4C706C
:100100001222DB030202F5EC2CFCEF33FFEE33FE90
:10011000ED33FDED30E7EB0202D0EF2BFFEE3AFEC0
:10012000ED39FDD0E0FB50130BBB00030202F8EDEC
:1001300013FDEE13FEEF13FFEC13FC0202D0EC4DA7
:100140006011E8497017ED33EC3304600DE4FCFFF7
:10015000FEFD22E933E8330470F80202EE1202B920
:1001600058046009E4CC248150062850090202F8A2
:100170002840030202F5C0E0EB4A7044B98006D083
:10018000E0FB0202E4EF4E701CBD8008EBFFEAFECC
:10019000E9FD80EBE98DF0A4FEE5F0020227E9CD50
:1001A000F9EAFEEBFFEF89F0A4FCE5F0CE89F0A4BC
:1001B0002EFFE435F0CD89F0A42DFEE435F0806704
:1001C000EF4E7005BD80D780C3EF8BF0A4ACF0EE8E
:1001D0008BF0A42CFCE435F0F8EF8AF0A42CE5F0C9
:1001E00038FCE433CB8DF0A42CFCE5F03BF8EE8A30
:1001F000F0A42CFCE5F038F8E433CF89F0A42CFC13
:10020000E5F038CF3400CE89F0A42FFFE5F03EFEB4
:10021000E433C98DF0A42EFEE5F039CD8AF0A42F89
:10022000FFE5F03EFEE43DFD33D0E0FB50070BBBA5
:10023000000F0202F8EC2CFCEF33FFEE33FEED333F
:10024000FD0202D075F020800E75F010800575F06B
:10025000087D007E007F003392D530D50312060260
:10026000EC334010EF33FFEE33FEED33FDEC33FCA7
:10027000D5F0ED22E5F0247EA2D513CC92E7CDCEC9
:10028000FF22EDD2E7CD33EC3392D524814006E452
:10029000FFFEFDFC22FCE4CFCECDCC24E050117457
:1002A000FF80EDC3CC13CCCD13CDCE13CECF13CF67
:1002B0000470F030D5DE020602E9D2E7C933E83334
:1002C000F892D5EDD2E7CD33EC33FC5002B2D52213
:1002D000EC30E7100FBF000C0EBE00080DBD00048F
:1002E0000BEB6014A2D5EB13FCED92E7FD2274FF3B
:1002F000FCFDFEFF22E480F8A2D574FF13FC7D8094
:10030000E480EFF920E72824F950037907E4F42486
:1003100002FB18DBFDE624FB5014E9600DE4F6183F
:10032000E604F6B40A08E4F6D9F57401F60A22C226
:10033000D522ED33EC3392D5FA602AB4FF33EDC207
:10034000E77BFF60067A037957E4227A037960201D
:10035000D5047A03795B224E614E002B494E46004C
:100360002D494E4600E47A08F608DAFC7B00740753
:1003700022E8C0E0ECC0E0EDC0E0EEC0E0EFC0E09D
:10038000EA75F010A4CAABF075F04DA42BFBE43570
:10039000F0FCEA2410FAEB34C5FBEC34D9FCEDC2D6
:1003A000E7FF75F056A4F42411C5F0F434C58FF0BE
:1003B000A42AE5F03BE43CF620E714120505D0E062
:1003C000FFD0E0FED0E0FDD0E0FC1204388014F451
:1003D00004120505D0E0FFD0E0FED0E0FDD0E0FC47
:1003E00012013ED0E0F8E6FAEDD2E7CD33EC33244B
:1003F00082FBE4C3CF33CFCE33CECD33CD33DBF36B
:100400007B0775F00A846004F6081B0AE5F0F6081D
:100410008FF0740AA4FFACF08EF0740AA42CFEAC2A
:10042000F050010C8DF0740AA42CFDE435F0F608B0
:10043000DBDE7407220202F8EC5D046005E8590473
:1004400070030202EE1202B9580460F6EC4860F242
:10045000EC7004FDFEFF22C860DB2481C85009C394
:1004600098600250060202F59850CAF582E9294BBD
:100470004A7005AB820202E475F0007C1A7880C3F2
:10048000EF9BEE9AED99400DC3EF9BFFEE9AFEEDC8
:1004900099FDE842F0DC23ACF0D0E0FFD0E0FED0E4
:1004A000E0FDAB8220E7101BEB60BAEC2CFCEF33D5
:1004B000FFEE33FEED33FD0202D0E803F830E7052E
:1004C000C0F075F000EF2FFFEE33FEED33FD40B8C6
:1004D00030E7C280AA3F8000004120000042C800EF
:1004E00000447A0000461C400047C3500049742471
:1004F000004B1896804CBEBC205A0E1BCA6753C2D4
:100500001C749DC5AEFB60065407601C23231205B6
:1005100033EB5438600912051F12052E12013EEC10
:10052000F8EDF9EEFAEFCB22EB12052E80F15438FC
:1005300003241C9004D5FE93FC0EEE93FD0EEE9367
:100540000ECE93FF22BB010689828A83E0225002ED
:10055000E722BBFE02E32289828A83E49322BB0165
:100560000CE58229F582E5833AF583E0225006E91D
:100570002582F8E622BBFE06E92582F8E222E58222
:1005800029F582E5833AF583E49322BB010689824B
:100590008A83F0225002F722BBFE01F322A3F8E087
:1005A000C5F025F0F0E582158270021583E0C838A9
:1005B000F0E822E88FF0A4CC8BF0A42CFCE98EF0BC
:1005C000A42CFC8AF0EDA42CFCEA8EF0A4CDA8F0BB
:1005D0008BF0A42DCC3825F0FDE98FF0A42CCD357F
:1005E000F0FCEB8EF0A4FEA9F0EB8FF0A4CFC5F0E9
:1005F0002ECD39FEE43CFCEAA42DCE35F0FDE43CE2
:10060000FC22C3E49FFFE49EFEE49DFDE49CFC22EB
:10061000EB9FF5F0EA9E42F0E99D42F0E89C45F040
:1006200022E8600FECC313FCED13FDEE13FEEF1395
:10063000FFD8F122E493F8740193F9740293FA74E9
:100640000393FB22ECF0A3EDF0A3EEF0A3EFF02276
:10065000A8828583F0D083D08212066712066712C3
:100660000667120667E473E493A3C583C5F0C583E8
:10067000C8C582C8F0A3C583C5F0C583C8C582C8F4
:1006800022FAE6FB0808E6F925F0F618E6CA3AF67B
:1006900022D083D082F8E4937012740193700DA37A
:1006A000A393F8740193F5828883E47374029368CA
:1006B00060EFA3A3A380DFEF4E6012EF60010EEDA9
:1006C000BB010B89828A83F0A3DFFCDEFA2289F06A
:1006D0005007F709DFFCA9F022BBFEFCF309DFFCA1
:1006E000A9F022E709F608DFFA8046E709F208DFF9
:1006F000FA803E88828C83E709F0A3DFFA8032E338
:1007000009F608DFFA8076E309F208DFFA806E88DE
:10071000828C83E309F0A3DFFA806289828A83E016
:10072000A3F608DFFA805689828A83E0A3F208DF05
:10073000FA804A80D280FA80C680D4806580F280B8
:1007400031801080A680EA809A80A880DA80E280DA
:10075000CA803189828A8363A20188828C8363A2E2
:1007600001E493A363A201F0A363A201DFF3DEF12E
:10077000800B89828A83E493A3F608DFF9ECFAA957
:10078000F0EDFB2289828A8363A20188828C8363D5
:10079000A201E0A363A201F0A363A201DFF4DEF2F1
:1007A00080DB89828A83E493A3F208DFF980CE8814
:1007B000F0EF60010E4E60C588F0ED2402B4040035
:1007C00050BBF582EB2402B4040050B123234582D0
:1007D0002390073373E540242CF8E605402278295E
:1007E000300902782CE475F00112068102054520DB
:1007F00002EB7F2ED2028018EF540F2490D43440A5
:10080000D4FF30060BEF24BFB41A0050032461FF5D
:10081000E541600215410544E54470020543300995
:100820000D7829E475F001120681EF02058B022292
:100830003D7403D2098003E4C209F5408B298A2A5A
:10084000892BE4F541F543F544E54160077F20122B
:10085000081080F57542FFC203C202C204C205C27D
:1008600007C208C20A1207DEFF700D3009057F00BB
:10087000120821AF44AE4322B4255FC2D5C206128E
:1008800007DEFF24D0B40A00501A75F00A78413010
:10089000D50508B6FF0106C6A426F620D5047002C9
:1008A000D20580D924CFB41A00EF5004C2E5D20695
:1008B000020B0ED20380C6D20280C0D20480BCD20A
:1008C000D580BAD20780B47F2012081020040774A4
:1008D00001B5410040F11207D5FF12081002084986
:1008E000D20AD20880951207D5FB1207D5FA120753
:1008F000D5F94A4B700679057A0C7BFF20042EE56A
:1009000041602A7E008E8275830012055E60060EAD
:10091000EE654270F0C2D5EBC0E0EAC0E0E9C0E0AD
:10092000EE120B6ED0E0F9D0E0FAD0E0FB120545F4
:10093000FF60AAEBC0E0EAC0E0E9C0E0120810D016
:10094000E02401F9D0E03400FAD0E0FBE542046095
:10095000DCD542D98087D20480A2120B5160F7E522
:1009600042700104120303A942600DE542600914BC
:10097000F542120BF8EF60F3EA30E702F404C39992
:100980005077EAF425420430E701E404F542800D93
:10099000120B5160C1EA05422542120303EA783F77
:1009A000F630E701E4254204D54204200701141281
:1009B0000B6EE4C0E0120BF8783FE6601320E70707
:1009C00014F61207F8802204F6D0E014C0E07F008D
:1009D0001207F8E54260071207EF1542800B300757
:1009E000031207EFD0E0020849D0E00480C5120BE3
:1009F0005160A0E54204120303783FEAF6E5422085
:100A000007026001042404120B6E74FF04C0E0129C
:100A10000BF81207F8E54220070260031207EFD037
:100A2000E0B542E87F45120802783FE67F2B30E7C9
:100A3000047F2DF404C0E0120810D0E075F00A84A1
:100A4000C0F01207F9D0E01207F9020849791080C6
:100A5000027908C208C20A8008D2D5790A800479CE
:100A60000AC2D5E542047002F542E4FAFDFEFF1227
:100A700007D5FC7B082003131207D5FD7B1030023D
:100A80000A1207D5FE1207D5FF7B20EC3382D592E0
:100A9000D55013C3E43002069FFFE49EFEE420031A
:100AA000039DFDE49CFCE4CBF8C203EC700CCFCEBC
:100AB000CDCCE824F8F870F38017C3EF33FFEE33A2
:100AC000FEED33FDEC33FCEB33FB994002FB0FD81A
:100AD000E9EB300305F8D0E0C448B203C0E00AEC0B
:100AE0004D4E4F78207B0070C2EAB5420040BCC03A
:100AF000E0120B70D0F0D0E0200304C4C0E0C4B218
:100B000003C0F01207F9D0F0D5F0EB020849120645
:100B10009108E6530A4D5808B74C08B3420A514FA2
:100B20000A59440A594908CC430A5F5509904609B5
:100B3000EE45095A470C255008BB2D08BF2E08E288
:100B40002B08C32308E0200C0E2A087B480000086D
:100B5000DAE542B4FF037542061207D5FC1207D549
:100B6000FD1207D5FE1207D5FF7838020332790A45
:100B7000A2D5200514300709B910020404B90801F0
:100B800004A2D52008025001042004689204B54153
:100B9000005034C0E07F203005197F30A204720875
:100BA0007207500F120BC7C204C208C207C20A7FE5
:100BB00030800F300703E9C0E0120810300703D07F
:100BC000E0F9D0E0B541CC3007177F30B9100C12F6
:100BD00008107F583006077F788003B90803120891
:100BE000103004057F2D0208107F20200AF87F2B8B
:100BF0002008F322920480CF7F00B4070050052420
:100C000038F8E6FF22286E756C6C2900D2031207B3
:100C1000D53003F8C203784130D50108F602087BCD
:100C20002D504349581207D52403B405004001E470
:100C3000900C2093120801743A120801D2057541F4
:100C400004020A4D752C01752D00752EA57BFF7AC7
:100C5000267983120837752CFF752D26752E9A7507
:100C60002F00753005120F457003020F04752CFF1D
:100C7000752D26752EA0752F00753002120F457048
:100C80003B900084E0FF64067003020F04EF6409E8
:100C90007003020F04EF64077003020F04EF640D8A
:100CA0007003020F041216BE900084E06408600313
:100CB000020F04900095E0900094F0229000A5E0CF
:100CC000642B6003020F04752CFF752D26752EA36F
:100CD000F52F753008120F366003020E42781404A7
:100CE000F2087400F20874B5F2E4781AF29000AFDA
:100CF000E024CE6003020F04752CFF752D26752E9F
:100D0000AC121646120F5FE2240612169C1216460B
:100D100012054564226018121676FF781AE2FE0466
:100D2000F274882EF582E43400F583EFF080DE78EB
:100D30001AE2540FFF900093E054F04FF0752CFF2F
:100D4000752D26752EB3121646120F5FE2240A1275
:100D5000169C181216487D7D1221257817EBF20893
:100D6000EAF208E9F278027C007DFE7BFF7A2779BF
:100D7000017E007F111207AFE47813F27817121684
:100D800048C0038A838982121646D0E06B7008E956
:100D900065827003EA65836077121697752CFF757C
:100DA0002D26752EBE752F007530041812164812A8
:100DB0001DD2EF3395E04F702C7801F27816E224C3
:100DC0000712169C1216461205456422601212166E
:100DD00076FF7801E2FE04F274022EF8EFF280E46E
:100DE00012169780127816E2240812169C18121612
:100DF0007824D024FF92017813E204F208121648F6
:100E0000120545642C6003020D7C121699020D7CBC
:100E10007813E2640270197BFE7A007902A20192D3
:100E200002121FDD90009C120650000000C8800ACC
:100E300090009C120650000001CC90009BE0448082
:100E4000F022752CFF752D26752EC3752F00753079
:100E500009120F367074900084E064067016752CC9
:100E6000FF752D26752ECD120F227008120F0570FA
:100E7000031216BE900084E064077031752CFF7574
:100E80002D26752EDDF52F7530097A0079B2120FF7
:100E900054701A752CFF752D26752ED5F52F7530CB
:100EA000077A0079BC120F5470031216BE900084AA
:100EB000E06409704F752CFF752D26752EE7120F13
:100EC000227041120F05703C8037752CFF752D265E
:100ED000752EEF752F007530067A0079A6120F6D0A
:100EE0007022900084E0640D701A752CFF752D2619
:100EF000752EF6F52F75300A7A0079AD120F6D70E8
:100F0000031216BE22752CFF752D26752ED5F52FD2
:100F10007530077B017A0079B8121DD2EF3395E066
:100F20004F22F52F7530077B017A0079B0121DD260
:100F3000EF3395E04F227B017A0079A6121DD2EFA4
:100F40003395E04F227B017A0079A5121DD2EF3351
:100F500095E04F227B01121DD2EF3395E04F221214
:100F60001D507814EBF208EAF208E9F2227B011234
:100F70001DD2EF3395E04F228F23E47801F29000E9
:100F800096E030E002D322752CFF752D23752EF6E6
:100F9000900084E075F003A424C2F582E5F03428C3
:100FA000F583E493FB740193FA7402938B2F8A30D8
:100FB000F53112170412083190029BEEF0A3EFF006
:100FC000E5231470030211ED1470030211F3147081
:100FD000030211E7240360030211FE900084E01273
:100FE0000691100400101C0110340210430310522B
:100FF0000410610510700710B70811110911CD0D0B
:10100000000011FE1215DF1216B175302775313C44
:101010007532FF7533277534500211E21215DF1255
:1010200016B17530277531797532FF7533277534F0
:10103000AA0211E21215DF12168A7530277531AF38
:101040000211E21215DF12168A7530277531E80297
:1010500011E21215DF12168A7530277531EB021175
:10106000E21215DF12168A7530277531EE0211E291
:10107000900087E05407FF24FE60030211FE9002F7
:101080009BE0FCA3E0249DF974023CFA7B01752CE3
:10109000FF752D24752E098F2F7530FF753127753B
:1010A000321A7533FF7534277535127536FF75376B
:1010B0002875381D0211E2900095E014602014603C
:1010C00029243A603124C860030211FE1215DF752D
:1010D0002CFF752D24752E2D1216330211E21215D8
:1010E000DF12162A12170B0211E21215DF12162A4E
:1010F0001217150211E21215DF752CFF752D2475DC
:101100002E791216337535FF75362875371D021185
:10111000E2900094E014602F14603F243A604E2463
:10112000C860030211B81215DFC003752CFF752DBE
:1011300024752E9F90029AE0244DF530900299E09C
:101140003400121665806C1215DFC00312171F9051
:10115000281B12165112170B80591215DFC00312EB
:10116000171F90281C12165112171580461215DFF2
:10117000C003752CFF752D25752E47900093E05404
:101180000F2421FFE433FE90029AE02FF530900205
:1011900099E03EF52F8B3175320075338890009CB5
:1011A0001215FFF5378E368D358C348B3875390036
:1011B000753A1BD003120831900094E0C394C874B0
:1011C0008094805039900085E004F080311215DF62
:1011D0001216B17530277531267532FF75332775B4
:1011E00034331208318017121613743DF01216139F
:1011F000743FF0121613740DF0121613E4F0121768
:10120000297BFF7A2579711208371217041220E121
:10121000900096E04401F01215FC1216F154FCF017
:10122000C3227E007F267D007B017A00797F120633
:10123000B7E4900491F0A3F090029BF0A3F0900229
:1012400099F0A3F0900084740E12146312160A70C1
:101250000D121B897F1412142570F10213AA7A2231
:101260007969121413740F12146312160A700D1296
:101270001B897F1E12142570F10213AA7A22798429
:10128000121413740D12143D12160A700D121B89DC
:101290007F9612145470F10213AA7BFF7A2279A66A
:1012A000120837E4900084F0FF120F7812160A70CB
:1012B000081213C370F60213AA7A2279C512141CFD
:1012C000740112143D12160A70081213C370F6024C
:1012D00013AA7A2279E612141C740212144D121603
:1012E0000A70081213D770F60213AA7A237907122C
:1012F0001434740312144D12160A70081213D770A6
:10130000F60213AA7A23792B121434740412146A85
:1013100012160A70081213EB70F60213AA7A2379D8
:101320004D121444740512146A12160A700712132F
:10133000EB70F680757A2379771214447406F07F87
:1013400002120F7812160A700C121B897F281214D1
:101350005470F180557BFF7A23799D1208379000F5
:10136000847407F0900087E054F84402F0E4FF1220
:101370000F7812160A70071213FF70F6802C900077
:1013800086E0FF543FFDEF54C0FFED4404543F4F4F
:10139000F07BFF7A2379BC1208371216E4120F781B
:1013A00012160A70141213FF70F6900083E04401C5
:1013B000F07BFF7A22794D80067BFF7A2379E21257
:1013C000083722121B897F1612173390009BE0FF0B
:1013D00013135403640122121B897F1612173390D2
:1013E000009BE0FF13135403640122121B897F1634
:1013F00012173390009BE0FF131354036401221271
:101400001B897F1612173390009BE0FF13135403C0
:101410006401227BFF120837900084227BFF1208B0
:10142000379000842212173390009BE0FF1313546F
:10143000036401227BFF12083790008422F0E4FF4E
:10144000120F78227BFF12083790008422F0E4FF0D
:10145000120F782212173390009BE0FF13135403EE
:10146000640122F07F02120F7822F0E4FF120F785D
:1014700022780474FFF20874C9F2C3E494C9FEE44C
:1014800094FF18F208CEF2121FAD04121FD380058C
:10149000C333CE33CED8F97905F3EE19F312207F9A
:1014A0005001227FCC1220B47FBE1220B4121F6BD9
:1014B0007801EFF2121F6B7800EFF27802E4F20885
:1014C000EFF2E27F0018F2FE08EFF27801E2FDEEA3
:1014D00008F2ED08F2121FADFFC374039F121FD371
:1014E0008005CEC313CE13D8F9FF7802EEF208EFD1
:1014F000F2EE30E43118E2FE08E2FFEE30E327EFCF
:10150000F4FFEEF418F208EFF2E22401F218E234EC
:1015100000F2E2FE08E2FFC37805E29F7903F318C8
:10152000E29E19F380107804E2FE08E2FF7803E2FD
:101530002FF218E23EF27802E2FE08E2FF9006EB9C
:10154000E0FCA3E0FDEC540FFAEF6D7002EE6A7060
:10155000030215DDEE540FFEEC54F04EFE9006EB48
:10156000EEF0A3EFF090009BE04410F0121FC213C6
:10157000540170159006F1E0FCA3D3121FBA500974
:10158000EF4408121FCA4420F0121FC21354016412
:101590000170149006F3121FB4400CEF54F7A3F03F
:1015A00090009BE04420F0121FC25401701190067D
:1015B000ED121FB44009EF4404121FCA4440F01258
:1015C0001FC25401640170159006EFE0FCA3D31212
:1015D0001FB85009EF54FB121FCA4440F0C32290B9
:1015E000029BE0FEA3E0249DF974023EFA7B0122F7
:1015F000A3E0F8A3E0F9A3E0FAA3E0FB90007FE00A
:10160000FCA3E0FDA3E0FEA3E022900096E05401DD
:1016100064012290029BE475F00112059DFE749D09
:1016200025F0F58274023EF58322752CFF752D247A
:10163000752E56752FFF75302775311A7532FF7567
:101640003327753412227814E2FB08E2FA08E2F933
:1016500022E4932445FFE433FE90029AE02FF53014
:10166000900299E03EF52F900085E0F5318B3275C0
:10167000330075341B227814E2FB0808E2F92401D8
:10168000F218E2FA3400F2020545752CFF752D249C
:10169000752E04752FFF227816E22401F218E23429
:1016A00000F22274932526F58274043525F583E033
:1016B00022752CFF752D23752EFC752FFF229000AF
:1016C00096E054FEF022752CFF752D26752E76902F
:1016D00006F5E0FF131322C39BFFEE9AFEED99FD82
:1016E000EC98FC229000847408F0E4900095F0FFE0
:1016F00022FF90009712064490009BE02290009BEE
:10170000E0C413227B017A02799D227535FF75367C
:10171000277537F2227535FF75362875370622751D
:101720002CFF752D24752EF622752C01752D027552
:101730002E9D22E4FCFDFE9006F61206449006F66D
:101740001215FFFFE47B64FAF9F81205B39006F670
:10175000120644900096E0540170030218621215BC
:10176000F01216D79006F6E0F8A3E0F9A3E0FAA38A
:10177000E0FBD3120610400302186290009BE05475
:1017800003640260030218377BFF7A25798512080B
:10179000371216BE90009BE0FF1313543FFEEF5428
:1017A000F3FFEE045403FE25E025E04FF0E0FF13C5
:1017B000135403640360030218627BFF7A2579A047
:1017C00012083790008474FFF0FB7A2579C8122044
:1017D000E190007FA3A3E0FEA3E08E23F524900018
:1017E00096E04401F012160A703D121B89AE23AF39
:1017F00024AB07AA061215FCC39BFFEE9AFEED94DC
:1018000000FDEC9400FCE47BAC7A0DF9F8D31206F1
:101810001050D27BFF7A2579CD120837900083E0F3
:101820004401F053AFFE227BFF7A26790712083776
:1018300053C7BF43C7202212172990009BE05403CF
:1018400004F52F7BFF7A267940120837121704120D
:1018500020E11215FC1216F1FF54FCFEEF045403B4
:101860004EF0227E007F0B7D007B017A0679EB1221
:1018700006B712207F50097BFF7A2879F202198B74
:101880007FCC1220B47FBE1220B4121F6B121F6BCC
:10189000121F6B8F22121F6B8F23121F6BEFC4134B
:1018A0005403FF9006F5E054FC4FF0540304FF7E10
:1018B000007455A807088005C333CE33CED8F990FD
:1018C00006ED121FA5FF7E007401A807088005C35E
:1018D00033CE33CED8F9FFC3ED9FFFEC9E9006EFD9
:1018E000F0A3EFF0121FAD04FF7E00744DA80708AF
:1018F0008005C333CE33CED8F99006F1121FA5FF71
:101900007E007401A807088005C333CE33CED8F912
:101910002DFFEE3C9006F3F0A3EFF0122154121FBE
:10192000AD14600F1460111460132403701212219F
:1019300098800D1221A5800812218980031221B2FE
:101940001214717BFF7A29791D1208377BFF7A29DF
:1019500079339006EBE0540FF52CA3E0F52D8522AA
:101960002E85232F121FADF5309006EDE0F531A343
:10197000E0F532A3E0F533A3E0F534A3E0F535A3B9
:10198000E0F536A3E0F537A3E0F538120837228FEB
:1019900022900096E020E00A900083E05401640168
:1019A0007002D322E5227057900094E0600CA3E00F
:1019B00060061216E4120F78D322752CFF752D26BF
:1019C000752E5E9006EBE0540FFCA3E0FDE41202DE
:1019D000499006F5E0540375F004A4248CF582E5E3
:1019E000F03429F58312063412013EE4FBFA795CE7
:1019F00078C212004D8F328E318D308C2F807790CF
:101A00000094E06522604590009BE0131354037836
:101A100000F29000847408F0900095E522F0E4FF55
:101A2000120F7812160A7024121B897F05121733C1
:101A30007800E22401FFE433FE90009BE01313548E
:101A4000037C00B507DDECB506D9D322E52224FEE0
:101A50006012243A601724C7702D1216C613540161
:101A6000F52F80121216C65401F52F8009752CFF30
:101A7000752D26752E827B017A00791B1208319014
:101A80000299EEF0A3EFF09000847409F0E4FF12E5
:101A90000F78C322900083E054017068121B897F85
:101AA000061217331216FD54016401700E7F0112E5
:101AB000198F400790009BE054DFF01216FD13547D
:101AC000016401700E7F0212198F400790009BE0A5
:101AD00054BFF090009BE0C454016401700DFF12EC
:101AE000198F400790009BE054EFF01216FD13137E
:101AF00054016401700E7FC812198F400790009B3B
:101B0000E0547FF09000A0E0540164017049121588
:101B1000F0C39BFBEE9AFAED99F9EC98F89006F574
:101B2000E0540375F002A42484F582E5F03429F52D
:101B300083E493FE740193FFE4FCFDC3120610409E
:101B40001612147140119000A0E054FEF01215FC22
:101B5000FF9000A11206449000A0E05401702912E9
:101B600015F01216D7E47BE87A03F9F8D3120610C1
:101B7000501612215440119000A0E04401F01215BB
:101B8000FCFF9000A11206442285082585092685C0
:101B90000A27850B28E52665287004E5256527704A
:101BA00003021C38E50C14600F0470651216A36460
:101BB0000A705E750C0180591216A3640D7036C34D
:101BC000900492E09402900491E094004018E4752F
:101BD000F00112059DFE74A525F0F58274003EF516
:101BE00083E4F0120C44E4F50C900491F0A3F0901F
:101BF00000A5F0801C1216A3FF900491E475F0017B
:101C000012059DFC74A525F0F58274003CF583EF68
:101C1000F0E5262401FFE43525FEBE020ABF580781
:101C2000E4F525F52680080526E5267002052585BC
:101C30002508852609021B9522787FE4F6D8FD75D4
:101C40008144021C80020003E493A3F8E493A340C0
:101C500003F68001F208DFF48029E493A3F8540727
:101C6000240CC8C333C4540F4420C8834004F45622
:101C7000800146F6DFE4800B01020408102040805A
:101C8000902249E47E019360BCA3FF543F30E509F4
:101C9000541FFEE493A360010ECF54C025E060A85A
:101CA00040B8E493A3FAE493A3F8E493A3C8C582ED
:101CB000C8CAC583CAF0A3C8C582C8CAC583CADF5B
:101CC000E9DEE780BEC0E0C083C08263A201C083BA
:101CD000C082C0D075D000C006C007E59A30E0577A
:101CE000C200539AFE1221ECBE020DBF580AE5094C
:101CF00045087012D200800EEFB50908EEB5080451
:101D0000D2008002D291300004C291802F749325BA
:101D10000BF5827404350AF583E59BF01221ECBEC5
:101D2000020BBF5808750A00750B00800F050BE504
:101D30000B7002050A8005539AFDC20CD007D0062D
:101D4000D0D0D082D08363A201D082D083D0E032C1
:101D50008B298A2A892BAB2CAA2DA92E1205456026
:101D600063AB29AA2AA92B120545605F852C2F8514
:101D70002D30852E318B328A338934AB2FAA30A98E
:101D800031120545FF6023AB32AA33A93412054551
:101D90006F7017042531F531E43530F530740125C5
:101DA00034F534E43533F53380D1AB2FAA30A93183
:101DB0001205457002800D7401252BF52BE4352AA0
:101DC000F52A809DAB29AA2AA92B227B007A0079CB
:101DD00000228B298A2A892BAB2CAA2DA92E120529
:101DE00045FEAB29AA2AA92B120545FF6E702BEFE1
:101DF000600DE53015307002152F14452F70037FEC
:101E000000227401252BF52BE4352AF52A740125CF
:101E10002EF52EE4352DF52D80BEAB29AA2AA92B4F
:101E2000120545FDD3EE6480F8ED64809840037F91
:101E30000122AB2CAA2DA92E120545FFC3ED9FFF51
:101E400022C0E0C0F0C083C08263A201C083C08210
:101E5000C0D075D000C000C004C005C006C0079047
:101E6000007FE0FCA3E0FDA3E0FEA3E02401FFE48B
:101E70003EFEE43DFDE43CFC90007F120644D007AA
:101E8000D006D005D004D000D0D0D082D08363A2B9
:101E900001D082D083D0F0D0E032C2B2C2037F380A
:101EA000122141C2037F0C122141C2037F0612217D
:101EB00041C2037F011221417BFF7A2979F8E4FFB7
:101EC0001220147BFF7A2A79007F011220147BFFF5
:101ED0007A2979D4C202121FDD7BFF7A2979DCD2FC
:101EE00002121FDD7BFF7A2979E20208378F258EE7
:101EF000248D238C22300138E4FFFEFD7C40AB258D
:101F0000AA24A923A82212013EE4FBFA798078BF13
:101F100012004D1202827800EEF208EFF218E2543D
:101F20007FF2E2FE08E2F5AAEE547FF5AB43AB8008
:101F3000221221F61221061221781221BF12204A04
:101F4000C2017F007E007D807C3F121EED120026C4
:101F50007BFF7A29799C1208371212221218631219
:101F60001E9A7BFF7A2979B8020837D2C11222362D
:101F7000E47806F208F27806E26408602308E2FFDB
:101F8000C313F2C2C1122243D2C112224330C1068E
:101F90007807E24480F21221E17806E204F280D66A
:101FA0007807E2FF22FFEEF0FCA3EFF0FD9006F5CC
:101FB000E0540322E0FCA3C37803E0FDE29D18E2B5
:101FC0009C229006F5E0FF1313229006F5F0900096
:101FD0009BE022FF18E2FE08E2A80708228B298A6C
:101FE0002A892B3002047F408002E4FF12222EE473
:101FF000F52CAB29AA2AA92B852C82758300120502
:102000005EFF600FE52C64286009D20312214105B0
:102010002C80DF228F228B238A24892512221DAF58
:102020002212216612221DE4F526E52664086019B5
:10203000AB23AA24A92585268275830012055EFF9D
:10204000D203122141052680E122E47525D07524B2
:10205000FFF523F522438E04E525FFE48FD7AF2556
:10206000AE24AD23AC2278081206218FD6759A10C3
:10207000C20CE4F50AF50BF508F509438E10227839
:10208000067414F2D2C11221E1C2C1122214D2C1CB
:1020900012223630C1077806E214F270F37806E2B5
:1020A000700B7BFF7A29796D120837D322D2C112C7
:1020B000220AC3228F24E47806F27806E2640860DC
:1020C0001FC2C1122243E5241392C11221E1D2C1E1
:1020D0001222437806E204F2E524C313F52480DAE1
:1020E000228B258A268927AB25AA26A927120545F2
:1020F00060130527E5277002052614F9120545FF30
:102100001221D680E22253B1FE53B2FE53B1FD43F9
:10211000B2025391FE5392FE5391FD43920253B18A
:10212000BF43B24022E94A4B700122120545FF6DC0
:10213000700122EF7004FBFAF92209E970ED0A80C0
:10214000EA8F2D12000EA20392B5C2B4852DA0D243
:10215000B2C2B22212207F5001227FCC1220B47F63
:10216000441220B4C322530707EF33333354F8FF2C
:10217000430740C203022141438E805389F0758A90
:102180009A758CA9C28DD28C227F127E347D2C0050
:1021900000DFFEDEFCDDFA227F7A7E397D0CDFFE79
:1021A000DEFCDDFA227FF87E717D17DFFEDEFCDDCE
:1021B000FA227F8A7ED77D56DFFEDEFCDDFA2275AD
:1021C000984053873F438E01C20B22200BFDD20B58
:1021D0008F99200BFD22200CFDD20C8F9B200CFD33
:1021E000227FB67E020000DFFEDEFC22E50B24012A
:1021F000FFE4350AFE2253C1DF53FFAF53FFFC2239
:102200007F237E0200DFFEDEFC227FB97E0400DF3A
:10221000FEDEFC227FEC7E0EDFFEDEFC227FB77E40
:102220001DDFFEDEFC22309904C299C20B32430747
:1022300080C2030221417F470000DFFE221221CB32
:102240007F01227F0500DFFE22010C00004C4F477A
:10225000233A436C6F7564496E69742023235B468F
:1022600061696C5D23230D0A004C4F47233A436C90
:102270006F7564496E69742D5265626F6F74206F5B
:102280006B0D0A004C4F47233A436C6F7564496EDF
:1022900069742D57694669446973436F6E65637449
:1022A000206F6B0D0A004C4F47233A436C6F7564E7
:1022B000496E69742D57694669436F6E6563742072
:1022C0006F6B0D0A004C4F47233A436C6F7564499E
:1022D0006E69742D4D5154545F5573657253657416
:1022E000206F6B0D0A004C4F47233A436C6F7564A7
:1022F000496E69742D4D5154545F486F7374536522
:1023000074206F6B0D0A004C4F47233A436C6F7576
:1023100064496E69742D4D5154545F436C696E74F9
:102320004944536574206F6B0D0A004C4F47233AA4
:10233000436C6F7564496E69742D4D5154545F48F8
:1023400065617274536574206F6B0D0A004C4F47C2
:10235000233A436C6F7564496E69742D4D51545422
:102360005F4175746F5265436F6E6563742053658A
:1023700074206F6B0D0A004C4F47233A436C6F7506
:1023800064496E69742D4D5154545F4175746F5397
:1023900074617274536574206F6B0D0A004C4F4763
:1023A000233A436C6F7564496E69742D4D515454D2
:1023B0005F5374617274206F6B0D0A004C4F47239A
:1023C0003A436C6F7564496E69742D4D5154545F76
:1023D0005355425F5365727669636531206F6B0DAB
:1023E0000A004C4F47233A436C6F7564496E697419
:1023F000206F6B0D0A0041542B2573003D25732C73
:1024000025730D003D25730D003D2562752C2F733E
:1024100079732F25732F25732F7468696E672F7357
:102420006572766963652F25732C300D003D2F731F
:1024300079732F25732F25732F7468696E672F6545
:1024400076656E742F70726F70657274792F706F0D
:1024500073742C300D003D2F7379732F25732F2546
:10246000732F7468696E672F6576656E742F257398
:102470002F706F73742C300D003D2F7379732F25DF
:10248000732F25732F7468696E672F736572766971
:1024900063652F25735F7265706C792C300D003D7C
:1024A00025750D7B226964223A222530336275221C
:1024B0002C2276657273696F6E223A22312E302299
:1024C0002C22706172616D73223A7B25737D2C2200
:1024D0006D6574686F64223A227468696E672E6550
:1024E00076656E742E70726F70657274792E706F6F
:1024F0007374227D0D003D25750D7B226964223A9F
:10250000222530336275222C2276657273696F6ED4
:10251000223A22312E30222C22706172616D732298
:102520003A7B25737D2C226D6574686F64223A2294
:102530007468696E672E6576656E742E25732E70CD
:102540006F7374227D0D003D25750D7B2269642219
:102550003A222573222C22636F6465223A25303695
:102560006C752C2264617461223A7B25737D7D0D2C
:10257000004C4F47233A436C6F756453656E642477
:1025800025730D0A004C4F47233A436C6F75645214
:102590006553656E64206162616E646F6E0D0A0042
:1025A0004C4F47233A436C6F7564526553656E64B4
:1025B00020636865636B20576946692069734F6EB5
:1025C0006C696E653F0D0A000D41540D004C4F477C
:1025D000233A436C6F7564526553656E642063687B
:1025E00065636B20576946692069734F6E6C696E2D
:1025F00065202D204E6F2C446973436F6E656374A4
:10260000204E6F770D0A004C4F47233A436C6F758D
:1026100064526553656E6420636865636B20576917
:1026200046692069734F6E6C696E65202D2059656F
:10263000732C52657374617274204D43550D0A00FA
:102640004C4F47233A436C6F7564526553656E6413
:102650002425732C436E74242562750D0A002257BD
:102660006174657254656D7065726174757265220E
:102670003A252E336600224572726F72223A256225
:102680007500004C4F473A48616E646C6552656353
:10269000656976652425730D0A004552524F520034
:1026A0004F4B004D51545452454356002269642209
:1026B0003A220022706172616D73223A7B00546588
:1026C0007874004D5154544556454E5400434F4E76
:1026D0004E454354005355434345535300535542CD
:1026E000534352494245005055424C4953480057C4
:1026F0004556454E540053544154494F4E5F555032
:1027000000202020202020202020202020202020E9
:10271000200044533138423230006131636939342A
:10272000733535774F0054502D4C494E4B5F38333D
:102730003041007A64777A787932370044533138FF
:1027400042323026613163693934733535774F0051
:1027500062623131353566383936666436646363B2
:1027600032376435353133636364663362646136AE
:1027700030623037326161380061316369393473F6
:102780003535774F2E696F742D61732D6D717474AB
:102790002E636E2D7368616E676861692E616C6966
:1027A00079756E63732E636F6D0031383833003185
:1027B00032333435367C7365637572656D6F64656D
:1027C0003D335C2C7369676E6D6574686F643D683A
:1027D0006D6163736861315C2C74696D65737461DC
:1027E0006D703D3738397C003630004F4E004F4613
:1027F0004600576174657254656D706572617475D9
:1028000072654C6F7700576174657254656D7065C1
:10281000726174757265486967680013144C4344AB
:1028200031363032446973706C6179000E4D515409
:102830005441555448004D515454534F434B004D4F
:10284000515454434944004D5154544B4545504113
:102850004C495645004D5154545245434F4E4E003D
:102860004D5154544155544F5354415254004D51BD
:1028700054545354415254004D51545453554200F2
:102880004D515454505542004D51545453454E44AB
:10289000004D515454554E535542004D51545453CC
:1028A0005441545553004D515454434C4F534500DB
:1028B000574A4150005245424F4F5400574A4150E9
:1028C0005100FF282DFF2836FF283FFF2847FF280B
:1028D00055FF2860FF286EFF2878FF2880FF288892
:1028E000FF2891FF289BFF28A6FF28B0FF28B5FFEF
:1028F00028BC4552523A44533138423230496E690D
:1029000074206661696C207768656E2044533138A5
:102910004232305354496E6974210D0A004C4F47BE
:10292000233A44533138423230496E6974206F6B18
:102930000D0A004C4F473A542D25752C54482D252F
:1029400062752C544C2D2562752C4D6F64652D25B8
:1029500062752C48312D25752C48322D25752C4C4F
:10296000312D25752C4C322D25750D0A00455252FE
:102970003A44533138423230496E69742066616995
:102980006C0D0A00005F00BE017A02F13F000000FA
:102990003E8000003E0000003D8000004C4F472379
:1029A0003A496E7465726E616C20496E6974204696
:1029B000696E6973680D0A004C4F47233A45787475
:1029C00065726E616C20496E69742046696E697328
:1029D000680D0A004C434431363032005265616460
:1029E00079004C4F47233A4C434431363032496EDC
:1029F0006974206F6B0D0A001006090808090600AB
:082A0000000A1F1F0E04000074
:00000001FF
