:10000000021FA912248512177F80FB02222DC2B580
:10001000D2B4D2B2D2A712260EA2A79205C2B220A3
:1000200005F022022634E50D2401FFE433FEEF64DF
:10003000204E22E50B2401FFE4350AFE227F050055
:10004000DFFE220220358F258E248D238C22300264
:1000500038E4FFFEFD7C40AB25AA24A923A8221288
:10006000018EE4FBFA798078BF12009D120372784A
:1000700000EEF208EFF218E2547FF2E2FE08E2F539
:10008000AAEE547FF5AB43AB80227FEC7E0EDFFE01
:10009000DEFC220221420203DEE86480F8E933E854
:1000A0003360110460F0ED33EC337009E8FCE9FDD6
:1000B000EAFEEBFF220460DED3EB9FEA9EE99DE8B7
:1000C000C2E78CF0C2F795F0400CE8CCF8E9CDF926
:1000D000EACEFAEBCFFB1203A985D0F058047003E7
:1000E00020D5B3E80470075002B2D50203E892D5D8
:1000F000EC0460F7E4CCC0E0C398F8603B9418606F
:1001000008400DD0E0FB0203C0E4FBFAC9FC8028E4
:10011000E830E406E4C9FBE4CAFCE830E305E4C9DE
:10012000CACBFCE854076010F8C3E913F9EA13FAE4
:10013000EB13FBEC13FCD8F130F52FC3E49CFCEF80
:100140009BFFEE9AFEED99FDD0E0FBEF4E4D4C701B
:100150001222DB030203E5EC2CFCEF33FFEE33FE4F
:10016000ED33FDED30E7EB0203C0EF2BFFEE3AFE7F
:10017000ED39FDD0E0FB50130BBB00030203E8EDAB
:1001800013FDEE13FEEF13FFEC13FC0203C0EC4D66
:100190006011E8497017ED33EC3304600DE4FCFFA7
:1001A000FEFD22E933E8330470F80203DE1203A9EE
:1001B00058046009E4CC248150062850090203E861
:1001C0002840030203E5C0E0EB4A7044B98006D042
:1001D000E0FB0203D4EF4E701CBD8008EBFFEAFE8B
:1001E000E9FD80EBE98DF0A4FEE5F0020277E9CDB0
:1001F000F9EAFEEBFFEF89F0A4FCE5F0CE89F0A46C
:100200002EFFE435F0CD89F0A42DFEE435F08067B3
:10021000EF4E7005BD80D780C3EF8BF0A4ACF0EE3D
:100220008BF0A42CFCE435F0F8EF8AF0A42CE5F078
:1002300038FCE433CB8DF0A42CFCE5F03BF8EE8ADF
:10024000F0A42CFCE5F038F8E433CF89F0A42CFCC2
:10025000E5F038CF3400CE89F0A42FFFE5F03EFE64
:10026000E433C98DF0A42EFEE5F039CD8AF0A42F39
:10027000FFE5F03EFEE43DFD33D0E0FB50070BBB55
:10028000000F0203E8EC2CFCEF33FFEE33FEED33FE
:10029000FD0203C00203E8EC5D046005E859047048
:1002A000030203DE1203A9580460F6EC4860F2EC86
:1002B0007004FDFEFF22C860DB2481C85009C3988A
:1002C000600250060203E59850CAF582E9294B4ABC
:1002D0007005AB820203D475F0007C1A7880C3EFFE
:1002E0009BEE9AED99400DC3EF9BFFEE9AFEED99C0
:1002F000FDE842F0DC23ACF0D0E0FFD0E0FED0E03F
:10030000FDAB8220E7101BEB60BAEC2CFCEF33FF57
:10031000EE33FEED33FD0203C0E803F830E705C01D
:10032000F075F000EF2FFFEE33FEED33FD40B830F7
:10033000E7C280AA75F020800E75F010800575F078
:10034000087D007E007F003392D530D5031206521F
:10035000EC334010EF33FFEE33FEED33FDEC33FCB6
:10036000D5F0ED22E5F0247EA2D513CC92E7CDCED8
:10037000FF22EDD2E7CD33EC3392D524814006E461
:10038000FFFEFDFC22FCE4CFCECDCC24E050117466
:10039000FF80EDC3CC13CCCD13CDCE13CECF13CF76
:1003A0000470F030D5DE020652E9D2E7C933E833F3
:1003B000F892D5EDD2E7CD33EC33FC5002B2D52222
:1003C000EC30E7100FBF000C0EBE00080DBD00049E
:1003D0000BEB6014A2D5EB13FCED92E7FD2274FF4A
:1003E000FCFDFEFF22E480F8A2D574FF13FC7D80A3
:1003F000E480EFF920E72824F950037907E4F42496
:1004000002FB18DBFDE624FB5014E9600DE4F6184E
:10041000E604F6B40A08E4F6D9F57401F60A22C235
:10042000D522ED33EC3392D5FA602AB4FF33EDC216
:10043000E77BFF60067A047947E4227A047950204A
:10044000D5047A04794B224E614E002B494E46006A
:100450002D494E4600E47A08F608DAFC7B00740762
:1004600022E8C0E0ECC0E0EDC0E0EEC0E0EFC0E0AC
:10047000EA75F010A4CAABF075F04DA42BFBE4357F
:10048000F0FCEA2410FAEB34C5FBEC34D9FCEDC2E5
:10049000E7FF75F056A4F42411C5F0F434C58FF0CD
:1004A000A42AE5F03BE43CF620E714120555D0E021
:1004B000FFD0E0FED0E0FDD0E0FC1202978014F403
:1004C00004120555D0E0FFD0E0FED0E0FDD0E0FC06
:1004D00012018ED0E0F8E6FAEDD2E7CD33EC33240A
:1004E00082FBE4C3CF33CFCE33CECD33CD33DBF37A
:1004F0007B0775F00A846004F6081B0AE5F0F6082D
:100500008FF0740AA4FFACF08EF0740AA42CFEAC39
:10051000F050010C8DF0740AA42CFDE435F0F608BF
:10052000DBDE7407223F8000004120000042C8004B
:1005300000447A0000461C400047C3500049742420
:10054000004B1896804CBEBC205A0E1BCA6753C283
:100550001C749DC5AEFB60065407601C2323120566
:1005600083EB5438600912056F12057E12018EEC80
:10057000F8EDF9EEFAEFCB22EB12057E80F154385C
:1005800003241C900525FE93FC0EEE93FD0EEE93C6
:100590000ECE93FF22BB010689828A83E02250029D
:1005A000E722BBFE02E32289828A83E49322BB0115
:1005B0000CE58229F582E5833AF583E0225006E9CD
:1005C0002582F8E622BBFE06E92582F8E222E582D2
:1005D00029F582E5833AF583E49322BB01068982FB
:1005E0008A83F0225002F722BBFE01F322A3F8E037
:1005F000C5F025F0F0E582158270021583E0C83859
:10060000F0E822E88FF0A4CC8BF0A42CFCE98EF06B
:10061000A42CFC8AF0EDA42CFCEA8EF0A4CDA8F06A
:100620008BF0A42DCC3825F0FDE98FF0A42CCD352E
:10063000F0FCEB8EF0A4FEA9F0EB8FF0A4CFC5F098
:100640002ECD39FEE43CFCEAA42DCE35F0FDE43C91
:10065000FC22C3E49FFFE49EFEE49DFDE49CFC229B
:10066000EB9FF5F0EA9E42F0E99D42F0E89C45F0F0
:1006700022E8600FECC313FCED13FDEE13FEEF1345
:10068000FFD8F122E493F8740193F9740293FA7499
:100690000393FB22ECF0A3EDF0A3EEF0A3EFF02226
:1006A000A8828583F0D083D0821206B71206B712D3
:1006B00006B71206B7E473E493A3C583C5F0C583F8
:1006C000C8C582C8F0A3C583C5F0C583C8C582C8A4
:1006D00022FAE6FB0808E6F925F0F618E6CA3AF62B
:1006E00022D083D082F8E4937012740193700DA32A
:1006F000A393F8740193F5828883E473740293687A
:1007000060EFA3A3A380DFEF4E6012EF60010EED58
:10071000BB010B89828A83F0A3DFFCDEFA2289F019
:100720005007F709DFFCA9F022BBFEFCF309DFFC50
:10073000A9F022E709F608DFFA8046E709F208DFA8
:10074000FA803E88828C83E709F0A3DFFA8032E3E7
:1007500009F608DFFA8076E309F208DFFA806E888E
:10076000828C83E309F0A3DFFA806289828A83E0C6
:10077000A3F608DFFA805689828A83E0A3F208DFB5
:10078000FA804A80D280FA80C680D4806580F28068
:1007900031801080A680EA809A80A880DA80E2808A
:1007A000CA803189828A8363A20188828C8363A292
:1007B00001E493A363A201F0A363A201DFF3DEF1DE
:1007C000800B89828A83E493A3F608DFF9ECFAA907
:1007D000F0EDFB2289828A8363A20188828C836385
:1007E000A201E0A363A201F0A363A201DFF4DEF2A1
:1007F00080DB89828A83E493A3F208DFF980CE88C4
:10080000F0EF60010E4E60C588F0ED2402B40400E4
:1008100050BBF582EB2402B4040050B1232345827F
:100820002390078373E53B2427F8E6053B227824D1
:100830003009027827E475F0011206D102059520EF
:1008400002EB7F2ED2028018EF540F2490D4344054
:10085000D4FF30060BEF24BFB41A0050032461FF0D
:10086000E53C6002153C053FE53F7002053E30095E
:100870000D7824E475F0011206D1EF0205DB0224A5
:10088000B07403D2098003E4C209F53B8B248A25A6
:100890008926E4F53CF53EF53FE53C60077F2012F4
:1008A000086080F5753DFFC203C202C204C205C2E2
:1008B00007C208C20A12082EFF700D3009057F001A
:1008C000120871AF3FAE3E22B4255FC2D5C20612F8
:1008D000082EFF24D0B40A00501A75F00A783C3074
:1008E000D50508B6FF0106C6A426F620D504700279
:1008F000D20580D924CFB41A00EF5004C2E5D20645
:10090000020B5ED20380C6D20280C0D20480BCD269
:10091000D580BAD20780B47F201208602004077403
:1009200001B53C0040F1120825FF12086002089949
:10093000D20AD2088095120825FB120825FA12085F
:1009400025F94A4B700679557A0C7BFF20042EE579
:100950003C602A7E008E827583001205AE60060E12
:10096000EE653D70F0C2D5EBC0E0EAC0E0E9C0E062
:10097000EE120BBED0E0F9D0E0FAD0E0FB12059504
:10098000FF60AAEBC0E0EAC0E0E9C0E0120860D076
:10099000E02401F9D0E03400FAD0E0FBE53D04604A
:1009A000DCD53DD98087D20480A2120BA160F7E587
:1009B0003D7001041203F3A93D600DE53D6009148B
:1009C000F53D120C48EF60F3EA30E702F404C399F6
:1009D0005077EAF4253D0430E701E404F53D800D4D
:1009E000120BA160C1EA053D253D1203F3EA783AF6
:1009F000F630E701E4253D04D53D0420070114123B
:100A00000BBEE4C0E0120C48783AE6601320E7071A
:100A100014F6120848802204F6D0E014C0E07F00EB
:100A2000120848E53D600712083F153D800B30076E
:100A30000312083FD0E0020899D0E00480C5120BF1
:100A4000A160A0E53D041203F3783AEAF6E53D2003
:100A500007026001042404120BBE74FF04C0E012FC
:100A60000C48120848E53D200702600312083FD0F9
:100A7000E0B53DE87F45120852783AE67F2B30E733
:100A8000047F2DF404C0E0120860D0E075F00A8401
:100A9000C0F0120849D0E012084902089979108084
:100AA000027908C208C20A8008D2D5790A8004797E
:100AB0000AC2D5E53D047002F53DE4FAFDFEFF12E1
:100AC0000825FC7B08200313120825FD7B1030024B
:100AD0000A120825FE120825FF7B20EC3382D592EE
:100AE000D55013C3E43002069FFFE49EFEE42003CA
:100AF000039DFDE49CFCE4CBF8C203EC700CCFCE6C
:100B0000CDCCE824F8F870F38017C3EF33FFEE3351
:100B1000FEED33FDEC33FCEB33FB994002FB0FD8C9
:100B2000E9EB300305F8D0E0C448B203C0E00AECBA
:100B30004D4E4F78207B0070C2EAB53D0040BCC0EE
:100B4000E0120BC0D0F0D0E0200304C4C0E0C4B277
:100B500003C0F0120849D0F0D5F0EB020899120654
:100B6000E10936530A9D5809074C0903420AA14F6F
:100B70000AA9440AA949091C430AAF5509E0460AD3
:100B80003E4509AA470C7550090B2D090F2E093255
:100B90002B0913230930200C5E2A08CB48000009DA
:100BA0002AE53DB4FF03753D06120825FC12082511
:100BB000FD120825FE120825FF7833020422790A67
:100BC000A2D5200514300709B910020404B90801A0
:100BD00004A2D52008025001042004689204B53C08
:100BE000005034C0E07F203005197F30A204720825
:100BF0007207500F120C17C204C208C207C20A7F44
:100C000030800F300703E9C0E0120860300703D0DE
:100C1000E0F9D0E0B53CCC3007177F30B9100C12AA
:100C200008607F583006077F788003B908031208F0
:100C3000603004057F2D0208607F20200AF87F2B9A
:100C40002008F322920480CF7F00B40700500524CF
:100C500033F8E6FF22286E756C6C2900D203120867
:100C6000253003F8C203783C30D50108F60208CBE2
:100C70002D504349581208252403B405004001E4CF
:100C8000900C7093120851743A120851D205753CB9
:100C900004020A9D752CFF752D28752E24752F00D2
:100CA0007530051210637003021022752CFF752D2C
:100CB00028752E2A752F007530021210637043902C
:100CC0000085E0FF64067003021022EF64097003E0
:100CD000021022EF64077003021022EF640D70030C
:100CE000021022EF640C700302102212169F900073
:100CF00085E064086003021022900096E090009561
:100D0000F0229000AEE0642B6003021022752CFFED
:100D1000752D28752E2DF52F75300812105460038F
:100D2000020F357B017A0079BE781704F208EAF2E7
:100D300008E9F2E408F2752CFF752D28752E36129D
:100D4000107212160112059564226018121667FFC0
:100D5000781AE2FE04F274892EF582E43400F583F9
:100D6000EFF080DE781AE2540FFF900094E054F028
:100D70004FF09000B8E024CE600F147003020EB85C
:100D8000147003020EF6021022752CFF752D2875C3
:100D90002E3D1216011220C07802EBF208EAF2088A
:100DA000E9F2087C007DFE7BFF7A2879B87E007F1F
:100DB000111207FFE47816F2752CFF752D28752E99
:100DC000520812160312109FE2240A020E807802C3
:100DD000121603C0038A838982121601D0E06B7059
:100DE00008E965827003EA65837003020E861216B5
:100DF00048752CFF752D28752E5D752F00753004F4
:100E0000181216031221BEEF3395E04F704A780195
:100E1000F27819E2240712164D121601120595FFF9
:100E2000642260207801E264106019EFB45C031260
:100E30001648121667FF7801E2FE04F274052EF8D8
:100E4000EFF280D512160112059564226005121684
:100E50004A80F112164880127819E2240812164DC1
:100E60001812166924D024FF92027816E204F208C0
:100E7000121603120595642C6003020DCEE22401C4
:100E800012164D020DCE7816E2640270197BFE7ABE
:100E9000007905A20292031222F890009F1206A088
:100EA000000000C8800A90009F1206A0000001CC3C
:100EB00090009EE04404F022752CFF752D28752EBD
:100EC0006212160112109FE2240A12164D18121611
:100ED0000312059524CE60070470097F5480027FB9
:100EE000551225AE90009F1206A0000000C8900089
:100EF0009EE04408F022752CFF752D28752E6D128A
:100F000016011210721812160312059524CF600CE8
:100F10000470109000ADE04401F080079000ADE057
:100F20004402F090009F1206A0000000C890009EAE
:100F3000E04410F022752CFF752D28752E74752F46
:100F4000007530091210546003020FE8900085E02C
:100F500064067016752CFF752D28752E7E121040B4
:100F60007008121023700312169F900085E064072A
:100F70007026752CFF752D28752E8EF52F7530096E
:100F80007A0079BB121089700F1217027A0079C5A6
:100F9000121089700312169F900085E06409701684
:100FA000752CFF752D28752E9812104070081210A0
:100FB00023700312169F900085E0640C7064752CFA
:100FC000FF752D28752EA0F52F7530057A0079B99B
:100FD000121094704D1217027A0079BF121094709B
:100FE0004112169F12171E22752CFF752D28752E83
:100FF000A6752F007530067A0079AF1210AD7022F9
:10100000900085E0640D701A752CFF752D28752EE3
:10101000ADF52F75300A7A0079B61210AD70031253
:10102000169F22752CFF752D28752E86F52F75308D
:10103000077B017A0079C11221BEEF3395E04F2280
:10104000F52F7530077B017A0079B91221BEEF3395
:1010500095E04F227B017A0079AF1221BEEF3395E4
:10106000E04F227B017A0079AE1221BEEF3395E08A
:101070004F221220C07817EBF208EAF208E9F2E2F8
:101080002406F218E23400F2227B011221BEEF3373
:1010900095E04F227B011221BEEF3395E04F2212E3
:1010A00020C07817EBF208EAF208E9F2227B01127D
:1010B00021BEEF3395E04F228F23E47804F29000B5
:1010C00097E020E0051216E17002D3227527FF7524
:1010D000282675294B900085E075F003A42495F52A
:1010E00082E5F0342AF583E493FB740193FA7402E9
:1010F000938B2A8A2BF52C1217491208819002A48F
:10110000EEF0A3EFF0E52314700302138F147003C5
:10111000021395147003021389240360030213A0C1
:10112000900085E01206E111490011610111790278
:1011300011880311970411A60511B5071230081282
:10114000B109136F0D000013A01215B11216D4755A
:101150002B28752CF3752DFF752E29752F0702137B
:10116000841215B11216D4752B29752C30752DFFEC
:10117000752E29752F610213841215B112167B7515
:101180002B29752C660213841215B112167B752B50
:1011900029752C9F0213841215B112167B752B2909
:1011A000752CA20213841215B112167B752B2975AA
:1011B0002CA5021384900088E05407FF24FD6013DF
:1011C00014601C240270221217507429F20874D47F
:1011D000F280161217507429F20874E4F2800A1291
:1011E00017507429F20874F4F29002A4E0FCA3E012
:1011F00024A6F974023CFA7B01C003C0027527FFE4
:1012000075282675295E8F2A752BFF752C28752D5C
:10121000D1752EFF752F287530C97801E2FB08E2E1
:10122000FA08E28B318A32F533D002D003021384FC
:10123000900096E0146026146032243A603D1460F9
:101240004C14605B24CA60030213A01215B1752709
:10125000FF7528267529821215E50213841215B12F
:101260001217571215E51217610213841215B112E5
:1012700017571215E512176B0213841215B11215C8
:10128000DC7530FF7531297532D40213841215B123
:101290001215DC7530FF7531297532E402138412A2
:1012A00015B11215DC7530FF7531297532F4021352
:1012B00084900095E0146031146041243A24FD507C
:1012C0004E24CB600302135A1215B1C0037527FFD9
:1012D0007528267529F49002A3E0244DF52B900281
:1012E000A2E03400121637806C1215B1C003121739
:1012F000759029D212162312176180591215B1C0A8
:10130000031217759029D312162312176B804612F9
:1013100015B1C0037527FF75282775299C90009487
:10132000E0540F2421FFE433FE9002A3E02FF52BBD
:101330009002A2E03EF52A8B2C752D00752E899027
:10134000009F1215D1F5328E318D308C2F8B337575
:10135000340075351CD003120881900095E0C394C9
:10136000C8748094805039900086E004F080311277
:1013700015B11216D4752B28752CDD752DFF752E21
:1013800028752FEA120881801712160C743DF0128E
:10139000160C743FF012160C740DF012160CE4F0DB
:1013A0001217491224D7900097E04401F01215CE8D
:1013B00012172D54FCF0C3227F2E7A007980121769
:1013C00040E490049AF0A3F09002A4F0A3F09002FD
:1013D000A2F0A3F0740E1215A01215F8700D121FD2
:1013E000017F1412157E70F1021511740F1215A0F1
:1013F0001215F8700D121F017F1E12157E70F1027A
:101400001511740D1215741215F87012121F017F48
:1014100096121D261216EA640170EC021511E49072
:101420000085F0FF1210B81215F87008121515702B
:10143000F602151174011215741215F870081215C0
:101440001570F6021511740212158C1215F8700839
:1014500012152870F6021511740312158C1215F866
:10146000700812152870F6021511740412159612E0
:1014700015F8700812153B70F60215117405121557
:10148000961215F8700812153B70F60215119000AF
:10149000857406F07F021210B81215F87011121F31
:1014A000017F28121D261216EA640170EC80621278
:1014B00016AB44021215AA1215F8700712154E70D9
:1014C000F6804E1216B844041216A744031215AA49
:1014D0001215F8700712154E70F680351216B844C2
:1014E000081216A74404F0E4FF1210B81215F870A1
:1014F0000712156170F680191216B84410543F4F48
:10150000F01217111210B81215F870081215617048
:10151000F612171E22121F017F16121D2690009C24
:10152000E013135403640122121F017F16121D26BB
:1015300090009CE013135403640122121F017F16D4
:10154000121D2690009CE013135403640122121F05
:10155000017F16121D2690009CE0131354036401B2
:1015600022121F017F16121D2690009CE0131354B7
:1015700003640122900085F0E4FF1210B822121DCE
:101580002690009CE013135403640122900085F020
:10159000E4FF1210B822900085F0E4FF1210B82288
:1015A000900085F07F021210B822F0E4FF1210B80C
:1015B000229002A4E0FEA3E024A6F974023EFA7B86
:1015C0000122A3E0F8A3E0F9A3E0FAA3E0FB900076
:1015D00080E0FCA3E0FDA3E0FEA3E0227527FF75F9
:1015E00028267529CE752AFF752B28752CD1752DC7
:1015F000FF752E28752FC922900097E054016401D1
:10160000227817E2FB08E2FA08E2F9229002A4E449
:1016100075F0011205EDFE74A625F0F58274023E08
:10162000F58322E4932445FFE433FE9002A3E02FE8
:10163000F52B9002A2E03EF52A900086E0F52C8B77
:101640002D752E00752F1C227819E22401F218E264
:101650003400F222E0FCA3E0FDEC120339E4FBFAD3
:1016600079C878420202977817E2FB0808E2F92469
:1016700001F218E2FA3400F20205957527FF752889
:1016800026752959752AFF22C39BFFEE9AFEED9914
:10169000FDEC987BE87A03FCE4F9F8D3020660904D
:1016A0000097E054FEF022543F4FF09000857407FD
:1016B000F0900088E054F822900087E0FF543FFD4E
:1016C000EF54C0FFED22749C2526F5827404352565
:1016D000F583E0227527FF752826752951752AFFA5
:1016E00022900084E0540164012290009CE01313D6
:1016F0005403227527FF75282875291790072AE0BB
:10170000FF22752CFF752D28752E86F52F75300755
:10171000229000857408F0E4900096F0FF2290007B
:1017200084E04401F022E475F0010205EDFF900031
:101730009812069490009CE022C313540164012285
:101740007E007D007B010207077B017A0279A622D9
:10175000780174FFF208227527FF7528267529ABDA
:10176000227530FF7531297532A9227530FF753128
:10177000297532BD227527FF75282775294B2290C0
:101780000084E054016003021830121F017F06122A
:101790001D2690009EE054016401700E7F01121915
:1017A0002C400790009EE054FEF090009EE012173F
:1017B00039700E7F0212192C400790009EE054FDF4
:1017C000F090009CE0C4540164017016FF12192CC3
:1017D000401090009CE054EFF07F017A00799D1258
:1017E000174090009EE0131354016401700E7FC8EF
:1017F00012192C400790009EE054FBF090009EE0F0
:1018000013131354016401700E7FC912192C400781
:1018100090009EE054F7F090009EE0C454016401F3
:10182000700E7FCA12192C400790009EE054EFF012
:101830009000ADE0FF540164016006EF12173970AB
:1018400033900097E054017012200E0F90008574C1
:101850000CF07F021210B84002D20E1216E1701482
:101860009000ADE054FEF0E0FF121739700653C748
:10187000BF43C7209000A8E05401640170491215CD
:10188000C2C39BFBEE9AFAED99F9EC98F890072AFF
:10189000E0540375F002A424C5F582E5F0342AF57E
:1018A00083E493FE740193FFE4FCFDC312066040E1
:1018B00016121AAB40119000A8E054FEF01215CE9B
:1018C000FF9000A91206949000A3E05401640170F7
:1018D00016121C1E40119000A3E054FEF01215CE0B
:1018E000FF9000A41206949000A8E05401701E120C
:1018F00015C2121688501612256A40119000A8E0F1
:101900004401F01215CEFF9000A91206949000A396
:10191000E0540170161215C2121688500E7F511233
:1019200025AE40079000A3E04401F0228F229000F2
:1019300097E020E0051216E17002D322E522600351
:10194000021A0A900095E0600CA3E06006121711DD
:101950001210B8D322E49002A2F0A3F090009DE010
:1019600030E1367527FF7528277529CB90071A12A5
:1019700016548F2D8E2C8D2B8C2A90071C121654EA
:101980008F318E308D2F8C2E90071E1216548F356E
:101990008E348D338C32121A9590009DE020E00336
:1019A000021A889002A2E07002A3E060159002A2E1
:1019B000121726FE741C25F0F58274003EF5837420
:1019C0002CF07527FF7528277529FF900720E05414
:1019D0000FFCA3E0FDE412033990072AE0540375DD
:1019E000F004A424CDF582E5F0342AF583120684B0
:1019F00012018EE4FBFA795C78C212009D8F2D8E65
:101A00002C8D2B8C2A121A95807E900095E06522F1
:101A1000603B1216EA7800F29000857408F090009E
:101A200096E522F0E4FF1210B81215F8701F121F8D
:101A3000017F05121D267800E22401FFE433FE1227
:101A400016EA7C00B507E2ECB506DED322E52224D7
:101A5000FE6010243A24FD501524CA702B1216F390
:101A60001380031216F313135401F52A8009752706
:101A7000FF7528287529237B017A00791C120881BB
:101A80009002A2EEF0A3EFF09000857409F0E4FF5D
:101A90001210B8C3227B017A00791C1208819002CF
:101AA000A3E02FF09002A2E03EF022780474FFF24F
:101AB0000874C9F2C3E494C9FEE494FF18F208CE96
:101AC000F21222C8041222EE8005C333CE33CED8E0
:101AD000F97905F3EE19F31224595001227FCC1243
:101AE00023FF7FBE1223FF1222867801EFF212221B
:101AF000867800EFF27802E4F208EFF2E27F001855
:101B0000F2FE08EFF27801E2FDEE08F2ED08F212C3
:101B100022C8FFC374039F1222EE8005CEC313CEEA
:101B200013D8F9FF7802EEF208EFF2EE30E4311844
:101B3000E2FE08E2FFEE30E327EFF4FFEEF418F2E6
:101B400008EFF2E22401F218E23400F2E2FE08E2C9
:101B5000FFC37805E29F7903F318E29E19F3801022
:101B60007804E2FE08E2FF7803E22FF218E23EF288
:101B70007802E2FE08E2FF900720E0FCA3E0FDEC23
:101B8000540FFAEF6D7002EE6A7003021C1CEE54E3
:101B90000FFEEC54F04EFE900720EEF0A3EFF09015
:101BA000009CE04410F0A3E04401F01222DD135445
:101BB000017015900726E0FCA3D31222D55009EF3F
:101BC00044081222E54401F01222DD13540164019D
:101BD00070149007281222CF400CEF54F7A3F09016
:101BE000009EE04401F01222DD54017011900722A2
:101BF0001222CF4009EF44041222E54402F01222DF
:101C0000DD540164017015900724E0FCA3D3122277
:101C1000D35009EF54FB1222E54402F0C322AD0C6D
:101C2000AC0DED6C7003021D24781BE2B40800506B
:101C300074901C38F8282873021C50021C59021C8E
:101C400059021C6C021C6C021C7F021C7F021C9936
:101C500012254364AA704E8047900715E0F8E4F01F
:101C6000900714122541FF9007148025900717E074
:101C7000F8E4F0900716122541FF900716801290A5
:101C80000719E0F8E4F0E8900718122542FF9007E2
:101C900018E0F0A3E04FF08007122543645570056B
:101CA000781BE204F2ED2401FFE433FEEF64204EE2
:101CB0007003FD80010D8D0C781BE2640860030247
:101CC0001C22C202F2900714E0FEA3E0FF90071A64
:101CD000E06E7003A3E06F600690071A12254F9024
:101CE0000716E0FEA3E0FF90071CE06E7003A3E080
:101CF0006F600690071C12254F900718E0FEA3E0C6
:101D0000FF90071EE06E7003A3E06F600690071E51
:101D100012254F30020C90009CE04410F0A3E044E8
:101D200002F0C322D322E4FCFDFE90072B1206949E
:101D300090072B1215D1FFE47B64FAF9F812060321
:101D400090072B120694900097E054017003021E36
:101D5000241216E17003021E249000981215C3C3CA
:101D60009BFFEE9AFEED99FDEC98FC90072BE0F8B6
:101D7000A3E0F9A3E0FAA3E0FBD31206604003025C
:101D80001E2490009CE0540364026003021E0E12A5
:101D9000169F90009CE0FF1313543FFEEF54F3FF97
:101DA000EE045403FE25E025E04FF0E0FF1313544A
:101DB000036403706F90008574FFF0FB7A2779C687
:101DC0001224D7900080A3A3E0FEA3E08E23F52485
:101DD000900097E04401F01215F8702B121F01AE2D
:101DE00023AF24AB07AA061215CEC39BFFEE9AFEC3
:101DF000ED9400FDEC94007BAC7A0D12169750D751
:101E000012171E53AFFE2253C7BF43C7202212171B
:101E1000491224D71215CE12172DFF54FCFEEF04E1
:101E200054034EF0227E007F0B7D007B017A077900
:101E30002012070712245940FB7FCC1223FF7FBEDC
:101E40001223FF1222861222861222868F2212224B
:101E5000868F23122286EFC4135403FF90072AE0D3
:101E600054FC4FF0540304FF7E007455A80708800B
:101E700005C333CE33CED8F99007221222C0FF7E9D
:101E8000007401A807088005C333CE33CED8F9FF0C
:101E9000C3ED9FFFEC9E900724F0A3EFF01222C841
:101EA00004FF7E00744DA807088005C333CE33CEEF
:101EB000D8F99007261222C0FF7E007401A80708F7
:101EC0008005C333CE33CED8F92DFFEE3C900728E2
:101ED000F0A3EFF012256A40FB1222C814600F1421
:101EE0006011146013240370121225BC800D12259A
:101EF000C9800812259F80031225D6121AAB40FB19
:101F000022850825850926850A27850B28E526656B
:101F1000287004E52565277003021FA8E50E1460EC
:101F20000F04705D1216C6640A7056750E0180515A
:101F30001216C6640D7032C390049BE094029004A4
:101F40009AE094004014121726FE74AE25F0F58234
:101F500074003EF583E4F0120C94E4F50E90049ABC
:101F6000F0A3F09000AEF080181216C6FF90049A0D
:101F7000121726FC74AE25F0F58274003CF583EF51
:101F8000F0E5262401FFE43525FEBE020ABF58070E
:101F9000E4F525F52680080526E526700205258549
:101FA0002508852609021F0D22787FE4F6D8FD75E5
:101FB000813F021FF0020003E493A3F8E493A340DF
:101FC00003F68001F208DFF48029E493A3F85407B4
:101FD000240CC8C333C4540F4420C8834004F456AF
:101FE000800146F6DFE4800B0102040810204080E7
:101FF00090262BE47E019360BCA3FF543F30E5099B
:10200000541FFEE493A360010ECF54C025E060A8E6
:1020100040B8E493A3FAE493A3F8E493A3C8C58279
:10202000C8CAC583CAF0A3C8C582C8CAC583CADFE7
:10203000E9DEE780BEC0E0C083C08263A201C08346
:10204000C082C0D075D000C006C007E59A30E05706
:10205000C200539AFE120033BE020DBF580AE509B2
:1020600045087012D200800EEFB50908EEB50804DD
:10207000D2008002D291300004C291802F749C253E
:102080000BF5827404350AF583E59BF0120033BE2C
:10209000020BBF5808750A00750B00800F050BE591
:1020A0000B7002050A8005539AFDC20CD007D006BA
:1020B000D0D0D082D08363A201D082D083D0E0324E
:1020C0008B298A2A892BAB2CAA2DA92E1205956063
:1020D00063AB29AA2AA92B120595605F852C2F8551
:1020E0002D30852E318B328A338934AB2FAA30A91B
:1020F00031120595FF6023AB32AA33A9341205953E
:102100006F7017042531F531E43530F53074012551
:1021100034F534E43533F53380D1AB2FAA30A9310F
:102120001205957002800D7401252BF52BE4352ADC
:10213000F52A809DAB29AA2AA92B227B007A007957
:102140000022C0E0C083C08263A201C083C082C0FD
:10215000D075D000C004C006C007E58430E044C29A
:10216000015384FE1200267008E50C7014D2018021
:10217000107C00EFB50C08ECB50604D2018002D249
:1021800087300104C287802074F4250DF582E43481
:1021900006F583E585F01200267004F50D8009052B
:1021A0000D80055384FDC20DD007D006D004D0D0D9
:1021B000D082D08363A201D082D083D0E0328B2939
:1021C0008A2A892BAB2CAA2DA92E120595FEAB29A4
:1021D000AA2AA92B120595FF6E702BEF600DE53032
:1021E00015307002152F14452F70037F00227401E3
:1021F000252BF52BE4352AF52A7401252EF52EE43E
:10220000352DF52D80BEAB29AA2AA92B120595FDE7
:10221000D3EE6480F8ED64809840037F0122AB2CFC
:10222000AA2DA92E120595FFC3ED9FFF22C0E0C085
:10223000F0C083C08263A201C083C082C0D075D0C9
:1022400000C000C004C005C006C007900080E0FCCC
:10225000A3E0FDA3E0FEA3E02401FFE43EFEE43D95
:10226000FDE43CFC900080120694D007D006D00517
:10227000D004D000D0D0D082D08363A201D082D04D
:1022800083D0F0D0E032D2C1122644E47806F208BE
:10229000F27806E26408602308E2FFC313F2C2C1C9
:1022A00012003DD2C112003D30C1067807E24480E1
:1022B000F21225F97806E204F280D67807E2FF22CE
:1022C000FFEEF0FCA3EFF0FD90072AE0540322E0BC
:1022D000FCA3C37803E0FDE29D18E29C2290072A4C
:1022E000E0FF13132290072AF090009EE022FF18CF
:1022F000E2FE08E2A80708228B298A2A892B3003EC
:10230000047F408002E4FF12263CE4F52CAB29AAAE
:102310002AA92B852C827583001205AEFF600FE57C
:102320002C64286009D204122557052C80DF228FE7
:10233000228B238A248925122622AF2212257C1281
:102340002622E4F526E52664086019AB23AA24A911
:10235000258526827583001205AEFFD2041225570B
:10236000052680E122E47525D07524FFF523F522AA
:10237000438E04E525FFE48FD7AF25AE24AD23AC13
:102380002278081206718FD6759A10C20CE4F50AED
:10239000F50BF508F509438E1022C2B2C2047F384E
:1023A000122557C2047F0C122557C2047F0612253E
:1023B00057C2047F011225577BFF7A2A79DDE4FF9B
:1023C00012232F7BFF7A2A79E57F0102232FE47500
:1023D00025C07524FDF523F52243D120E525FFE432
:1023E0008FD3AF25AE24AD23AC2278081206718FAF
:1023F000D2758450C20DE4F50DF50C43D180228FC7
:1024000024E47806F27806E26408601FC2C1120074
:102410003DE5241392C11225F9D2C112003D780680
:10242000E204F2E524C313F52480DA227E007F065D
:102430007DFF7B017A07791A1207075384EF43AFB8
:10244000107F551225AE7F541225AE7F511225AE56
:10245000438410121C1E40FB2278067414F2D2C171
:102460001225F9C2C112008AD2C112264430C10716
:102470007806E214F270F37806E27002D322D2C139
:10248000122618C3221226041224FC12258E1223AF
:10249000651223CEC2027F007E007D807C3F120049
:1024A000461225211213B8121E2512242C02239A3B
:1024B000EFB40A07740D1224BB740A309811A8995E
:1024C000B8130CC2983098FDA899C298B811F6308C
:1024D00099FDC299F599228B258A268927AB25AAD1
:1024E00026A92712059560130527E5277002052602
:1024F00014F9120595FF1225E380E22253B1FE5331
:10250000B2FE53B1FD43B2025391FE5392FE53917A
:10251000FD4392025393FB5394FB5393F743940868
:1025200022D2A9D2AC43AF0153AFFB53AFBFC2B964
:1025300043B702C2BC53B7EF43B50143B601D2AFB4
:1025400022E8F074F42DF582E43406F583E022EEFF
:10255000F0A3EFF0D202228F2D12000EA20492B54A
:10256000C2B4852DA0D2B2C2B22212245950012287
:102570007FCC1223FF7F441223FFC322530707EFB0
:1025800033333354F8FF430740C204022557438EC8
:10259000805389F0758A9A758CA9C28DD28C227F5E
:1025A000127E347D2C0000DFFEDEFCDDFA228F2956
:1025B0007FA51225EEAF291225EEC3227F7A7E3940
:1025C0007D0CDFFEDEFCDDFA227FF87E717D17DFF9
:1025D000FEDEFCDDFA227F8A7ED77D56DFFEDEFC42
:1025E000DDFA22200CFDD20C8F9B200CFD22200D49
:1025F000FDD20D8F85200DFD227FB67E020000DF0B
:10260000FEDEFC2253C1DF53FFAF53FFFC227F23CA
:102610007E0200DFFEDEFC227FB97E0400DFFEDEEC
:10262000FC227FB77E1DDFFEDEFC22811B00010E37
:1026300000C10E00309904C299C20B32430780C218
:10264000040225577F470000DFFE2241542B2573EB
:10265000003D25732C25730D003D25730D003D2590
:1026600062752C2F7379732F25732F25732F746840
:10267000696E672F736572766963652F25732C30D9
:102680000D003D2F7379732F25732F25732F7468D9
:10269000696E672F6576656E742F70726F706572E4
:1026A00074792F706F73742C300D003D2F73797314
:1026B0002F25732F25732F7468696E672F657665D4
:1026C0006E742F25732F706F73742C300D003D2F97
:1026D0007379732F25732F25732F7468696E672F95
:1026E000736572766963652F25735F7265706C79A7
:1026F0002C300D003D25750D7B226964223A222580
:1027000030336275222C2276657273696F6E223ABD
:1027100022312E30222C22706172616D73223A7B3D
:1027200025737D2C226D6574686F64223A2274686B
:10273000696E672E6576656E742E70726F70657245
:1027400074792E706F7374227D0D003D25750D7B9D
:10275000226964223A222530336275222C22766562
:102760007273696F6E223A22312E30222C227061F0
:1027700072616D73223A7B25737D2C226D657468BE
:102780006F64223A227468696E672E6576656E748E
:102790002E25732E706F7374227D0D003D25750DEF
:1027A0007B226964223A222573222C22636F64659E
:1027B000223A2530366C752C2264617461223A7B92
:1027C00025737D7D0D000D41540D00224865616427
:1027D000416E676C65223A252E32662C2250697450
:1027E0006368416E676C65223A252E32662C225250
:1027F0006F6C6C416E676C65223A252E3266002242
:10280000576174657254656D706572617475726537
:10281000223A252E336600224572726F72223A25C3
:10282000627500004552524F52004F4B004D5154BB
:10283000545245435600226964223A22007D2C22DC
:1028400076657273696F6E223A22312E302E3022F5
:102850007D0022706172616D73223A7B005465784D
:1028600074007B226F626A656374223A007B22499E
:1028700044223A004D5154544556454E5400434F5E
:102880004E4E45435400535543434553530053550F
:1028900042534352494245005055424C4953480027
:1028A000434C4F534500574556454E5400535441F1
:1028B00054494F4E5F5550002020202020202020DA
:1028C0002020202020202020004453313842323064
:1028D00000613163693934733535774F0054502DB9
:1028E0004C494E4B5F38333041007A64777A7879BF
:1028F000323700445331384232302661316369390E
:1029000034733535774F0062623131353566383989
:1029100036666436646363323764353531336363F6
:102920006466336264613630623037326161380028
:10293000613163693934733535774F2E696F742D82
:1029400061732D6D7174742E636E2D7368616E6783
:102950006861692E616C6979756E63732E636F6D42
:102960000031383833003132333435367C736563A7
:102970007572656D6F64653D335C2C7369676E6D50
:102980006574686F643D686D6163736861315C2C68
:1029900074696D657374616D703D3738397C0036CC
:1029A00030004F4E004F46460057617465725465C3
:1029B0006D70657261747572654C6F7700576174E4
:1029C000657254656D70657261747572654869678A
:1029D000680013144C434431363032446973706CD0
:1029E0006179000E47593235436F727265637469BD
:1029F0006F6E000E4D4355436F6E74726F6C000A1C
:102A00004D51545441555448004D515454534F4323
:102A10004B004D515454434944004D5154544B457F
:102A20004550414C495645004D5154545245434F31
:102A30004E4E004D5154544155544F5354415254ED
:102A4000004D5154545354415254004D5154545319
:102A50005542004D515454505542004D5154545319
:102A6000454E44004D515454554E535542004D511E
:102A70005454535441545553004D515454434C4FA6
:102A8000534500574A4150005245424F4F5400575A
:102A90004A41505100FF2A00FF2A09FF2A12FF2A4B
:102AA0001AFF2A28FF2A33FF2A41FF2A4BFF2A5305
:102AB000FF2A5BFF2A64FF2A6EFF2A79FF2A83FF21
:102AC0002A88FF2A8F005F00BE017A02F13F0000D2
:102AD000003E8000003E0000003D8000001006091E
:0D2AE0000808090600000A1F1F0E04000070
:00000001FF
